{
  "contractName": "CarrierRole",
  "abi": [
    {
      "anonymous": false,
      "inputs": [
        {
          "indexed": true,
          "internalType": "address",
          "name": "previousOwner",
          "type": "address"
        },
        {
          "indexed": true,
          "internalType": "address",
          "name": "newOwner",
          "type": "address"
        }
      ],
      "name": "OwnershipTransferred",
      "type": "event"
    },
    {
      "anonymous": false,
      "inputs": [
        {
          "indexed": true,
          "internalType": "bytes32",
          "name": "role",
          "type": "bytes32"
        },
        {
          "indexed": true,
          "internalType": "bytes32",
          "name": "previousAdminRole",
          "type": "bytes32"
        },
        {
          "indexed": true,
          "internalType": "bytes32",
          "name": "newAdminRole",
          "type": "bytes32"
        }
      ],
      "name": "RoleAdminChanged",
      "type": "event"
    },
    {
      "anonymous": false,
      "inputs": [
        {
          "indexed": true,
          "internalType": "bytes32",
          "name": "role",
          "type": "bytes32"
        },
        {
          "indexed": true,
          "internalType": "address",
          "name": "account",
          "type": "address"
        },
        {
          "indexed": true,
          "internalType": "address",
          "name": "sender",
          "type": "address"
        }
      ],
      "name": "RoleGranted",
      "type": "event"
    },
    {
      "anonymous": false,
      "inputs": [
        {
          "indexed": true,
          "internalType": "bytes32",
          "name": "role",
          "type": "bytes32"
        },
        {
          "indexed": true,
          "internalType": "address",
          "name": "account",
          "type": "address"
        },
        {
          "indexed": true,
          "internalType": "address",
          "name": "sender",
          "type": "address"
        }
      ],
      "name": "RoleRevoked",
      "type": "event"
    },
    {
      "anonymous": false,
      "inputs": [
        {
          "indexed": true,
          "internalType": "address",
          "name": "account",
          "type": "address"
        }
      ],
      "name": "carrierAdded",
      "type": "event"
    },
    {
      "anonymous": false,
      "inputs": [
        {
          "indexed": true,
          "internalType": "address",
          "name": "account",
          "type": "address"
        }
      ],
      "name": "carrierRemoved",
      "type": "event"
    },
    {
      "inputs": [],
      "name": "CARRIER_ROLE",
      "outputs": [
        {
          "internalType": "bytes32",
          "name": "",
          "type": "bytes32"
        }
      ],
      "stateMutability": "view",
      "type": "function"
    },
    {
      "inputs": [],
      "name": "DEFAULT_ADMIN_ROLE",
      "outputs": [
        {
          "internalType": "bytes32",
          "name": "",
          "type": "bytes32"
        }
      ],
      "stateMutability": "view",
      "type": "function"
    },
    {
      "inputs": [
        {
          "internalType": "bytes32",
          "name": "role",
          "type": "bytes32"
        }
      ],
      "name": "getRoleAdmin",
      "outputs": [
        {
          "internalType": "bytes32",
          "name": "",
          "type": "bytes32"
        }
      ],
      "stateMutability": "view",
      "type": "function"
    },
    {
      "inputs": [
        {
          "internalType": "bytes32",
          "name": "role",
          "type": "bytes32"
        },
        {
          "internalType": "address",
          "name": "account",
          "type": "address"
        }
      ],
      "name": "grantRole",
      "outputs": [],
      "stateMutability": "nonpayable",
      "type": "function"
    },
    {
      "inputs": [
        {
          "internalType": "bytes32",
          "name": "role",
          "type": "bytes32"
        },
        {
          "internalType": "address",
          "name": "account",
          "type": "address"
        }
      ],
      "name": "hasRole",
      "outputs": [
        {
          "internalType": "bool",
          "name": "",
          "type": "bool"
        }
      ],
      "stateMutability": "view",
      "type": "function"
    },
    {
      "inputs": [],
      "name": "owner",
      "outputs": [
        {
          "internalType": "address",
          "name": "",
          "type": "address"
        }
      ],
      "stateMutability": "view",
      "type": "function"
    },
    {
      "inputs": [],
      "name": "renounceOwnership",
      "outputs": [],
      "stateMutability": "nonpayable",
      "type": "function"
    },
    {
      "inputs": [
        {
          "internalType": "bytes32",
          "name": "role",
          "type": "bytes32"
        },
        {
          "internalType": "address",
          "name": "account",
          "type": "address"
        }
      ],
      "name": "renounceRole",
      "outputs": [],
      "stateMutability": "nonpayable",
      "type": "function"
    },
    {
      "inputs": [
        {
          "internalType": "bytes32",
          "name": "role",
          "type": "bytes32"
        },
        {
          "internalType": "address",
          "name": "account",
          "type": "address"
        }
      ],
      "name": "revokeRole",
      "outputs": [],
      "stateMutability": "nonpayable",
      "type": "function"
    },
    {
      "inputs": [
        {
          "internalType": "bytes4",
          "name": "interfaceId",
          "type": "bytes4"
        }
      ],
      "name": "supportsInterface",
      "outputs": [
        {
          "internalType": "bool",
          "name": "",
          "type": "bool"
        }
      ],
      "stateMutability": "view",
      "type": "function"
    },
    {
      "inputs": [
        {
          "internalType": "address",
          "name": "newOwner",
          "type": "address"
        }
      ],
      "name": "transferOwnership",
      "outputs": [],
      "stateMutability": "nonpayable",
      "type": "function"
    },
    {
      "inputs": [
        {
          "internalType": "address",
          "name": "account",
          "type": "address"
        }
      ],
      "name": "isCarrier",
      "outputs": [
        {
          "internalType": "bool",
          "name": "",
          "type": "bool"
        }
      ],
      "stateMutability": "view",
      "type": "function"
    }
  ],
  "bytecode": "0x608060405234801561001057600080fd5b5061002d61002261003260201b60201c565b61003a60201b60201c565b610100565b600033905090565b6000600160009054906101000a900473ffffffffffffffffffffffffffffffffffffffff16905081600160006101000a81548173ffffffffffffffffffffffffffffffffffffffff021916908373ffffffffffffffffffffffffffffffffffffffff1602179055508173ffffffffffffffffffffffffffffffffffffffff168173ffffffffffffffffffffffffffffffffffffffff167f8be0079c531659141344cd1fd0a4f28419497f9722a3daafe3b4186f6b6457e060405160405180910390a35050565b6113b08061010f6000396000f3fe608060405234801561001057600080fd5b50600436106100b45760003560e01c8063715018a611610071578063715018a61461019f5780638da5cb5b146101a957806391d14854146101c7578063a217fddf146101f7578063d547741f14610215578063f2fde38b14610231576100b4565b806301ffc9a7146100b9578063248a9ca3146100e95780632f2ff15d1461011957806336568abe14610135578063436a34ee1461015157806365a1be4814610181575b600080fd5b6100d360048036038101906100ce9190610d8a565b61024d565b6040516100e0919061106b565b60405180910390f35b61010360048036038101906100fe9190610d25565b6102c7565b6040516101109190611086565b60405180910390f35b610133600480360381019061012e9190610d4e565b6102e6565b005b61014f600480360381019061014a9190610d4e565b61030f565b005b61016b60048036038101906101669190610cfc565b610392565b604051610178919061106b565b60405180910390f35b6101896103c5565b6040516101969190611086565b60405180910390f35b6101a76103e9565b005b6101b1610471565b6040516101be9190611050565b60405180910390f35b6101e160048036038101906101dc9190610d4e565b61049b565b6040516101ee919061106b565b60405180910390f35b6101ff610505565b60405161020c9190611086565b60405180910390f35b61022f600480360381019061022a9190610d4e565b61050c565b005b61024b60048036038101906102469190610cfc565b610535565b005b60007f7965db0b000000000000000000000000000000000000000000000000000000007bffffffffffffffffffffffffffffffffffffffffffffffffffffffff1916827bffffffffffffffffffffffffffffffffffffffffffffffffffffffff191614806102c057506102bf8261062d565b5b9050919050565b6000806000838152602001908152602001600020600101549050919050565b6102ef826102c7565b610300816102fb610697565b61069f565b61030a838361073c565b505050565b610317610697565b73ffffffffffffffffffffffffffffffffffffffff168173ffffffffffffffffffffffffffffffffffffffff1614610384576040517f08c379a000000000000000000000000000000000000000000000000000000000815260040161037b90611123565b60405180910390fd5b61038e828261081c565b5050565b60006103be7feb998ffefd22a823ed46d63e27357a1eefa908b6ba6804ac328694f77956b4698361049b565b9050919050565b7feb998ffefd22a823ed46d63e27357a1eefa908b6ba6804ac328694f77956b46981565b6103f1610697565b73ffffffffffffffffffffffffffffffffffffffff1661040f610471565b73ffffffffffffffffffffffffffffffffffffffff1614610465576040517f08c379a000000000000000000000000000000000000000000000000000000000815260040161045c90611103565b60405180910390fd5b61046f60006108fd565b565b6000600160009054906101000a900473ffffffffffffffffffffffffffffffffffffffff16905090565b600080600084815260200190815260200160002060000160008373ffffffffffffffffffffffffffffffffffffffff1673ffffffffffffffffffffffffffffffffffffffff16815260200190815260200160002060009054906101000a900460ff16905092915050565b6000801b81565b610515826102c7565b61052681610521610697565b61069f565b610530838361081c565b505050565b61053d610697565b73ffffffffffffffffffffffffffffffffffffffff1661055b610471565b73ffffffffffffffffffffffffffffffffffffffff16146105b1576040517f08c379a00000000000000000000000000000000000000000000000000000000081526004016105a890611103565b60405180910390fd5b600073ffffffffffffffffffffffffffffffffffffffff168173ffffffffffffffffffffffffffffffffffffffff161415610621576040517f08c379a0000000000000000000000000000000000000000000000000000000008152600401610618906110e3565b60405180910390fd5b61062a816108fd565b50565b60007f01ffc9a7000000000000000000000000000000000000000000000000000000007bffffffffffffffffffffffffffffffffffffffffffffffffffffffff1916827bffffffffffffffffffffffffffffffffffffffffffffffffffffffff1916149050919050565b600033905090565b6106a9828261049b565b610738576106ce8173ffffffffffffffffffffffffffffffffffffffff1660146109c3565b6106dc8360001c60206109c3565b6040516020016106ed929190611016565b6040516020818303038152906040526040517f08c379a000000000000000000000000000000000000000000000000000000000815260040161072f91906110a1565b60405180910390fd5b5050565b610746828261049b565b61081857600160008084815260200190815260200160002060000160008373ffffffffffffffffffffffffffffffffffffffff1673ffffffffffffffffffffffffffffffffffffffff16815260200190815260200160002060006101000a81548160ff0219169083151502179055506107bd610697565b73ffffffffffffffffffffffffffffffffffffffff168173ffffffffffffffffffffffffffffffffffffffff16837f2f8788117e7eff1d82e926ec794901d17c78024a50270940304540a733656f0d60405160405180910390a45b5050565b610826828261049b565b156108f957600080600084815260200190815260200160002060000160008373ffffffffffffffffffffffffffffffffffffffff1673ffffffffffffffffffffffffffffffffffffffff16815260200190815260200160002060006101000a81548160ff02191690831515021790555061089e610697565b73ffffffffffffffffffffffffffffffffffffffff168173ffffffffffffffffffffffffffffffffffffffff16837ff6391f5c32d9c69d2a47ea670b442974b53935d1edc7fd64eb21e047a839171b60405160405180910390a45b5050565b6000600160009054906101000a900473ffffffffffffffffffffffffffffffffffffffff16905081600160006101000a81548173ffffffffffffffffffffffffffffffffffffffff021916908373ffffffffffffffffffffffffffffffffffffffff1602179055508173ffffffffffffffffffffffffffffffffffffffff168173ffffffffffffffffffffffffffffffffffffffff167f8be0079c531659141344cd1fd0a4f28419497f9722a3daafe3b4186f6b6457e060405160405180910390a35050565b6060600060028360026109d691906111c0565b6109e0919061116a565b67ffffffffffffffff811115610a1f577f4e487b7100000000000000000000000000000000000000000000000000000000600052604160045260246000fd5b6040519080825280601f01601f191660200182016040528015610a515781602001600182028036833780820191505090505b5090507f300000000000000000000000000000000000000000000000000000000000000081600081518110610aaf577f4e487b7100000000000000000000000000000000000000000000000000000000600052603260045260246000fd5b60200101907effffffffffffffffffffffffffffffffffffffffffffffffffffffffffffff1916908160001a9053507f780000000000000000000000000000000000000000000000000000000000000081600181518110610b39577f4e487b7100000000000000000000000000000000000000000000000000000000600052603260045260246000fd5b60200101907effffffffffffffffffffffffffffffffffffffffffffffffffffffffffffff1916908160001a90535060006001846002610b7991906111c0565b610b83919061116a565b90505b6001811115610c6f577f3031323334353637383961626364656600000000000000000000000000000000600f861660108110610beb577f4e487b7100000000000000000000000000000000000000000000000000000000600052603260045260246000fd5b1a60f81b828281518110610c28577f4e487b7100000000000000000000000000000000000000000000000000000000600052603260045260246000fd5b60200101907effffffffffffffffffffffffffffffffffffffffffffffffffffffffffffff1916908160001a905350600485901c945080610c68906112cb565b9050610b86565b5060008414610cb3576040517f08c379a0000000000000000000000000000000000000000000000000000000008152600401610caa906110c3565b60405180910390fd5b8091505092915050565b600081359050610ccc81611335565b92915050565b600081359050610ce18161134c565b92915050565b600081359050610cf681611363565b92915050565b600060208284031215610d0e57600080fd5b6000610d1c84828501610cbd565b91505092915050565b600060208284031215610d3757600080fd5b6000610d4584828501610cd2565b91505092915050565b60008060408385031215610d6157600080fd5b6000610d6f85828601610cd2565b9250506020610d8085828601610cbd565b9150509250929050565b600060208284031215610d9c57600080fd5b6000610daa84828501610ce7565b91505092915050565b610dbc8161121a565b82525050565b610dcb8161122c565b82525050565b610dda81611238565b82525050565b6000610deb82611143565b610df5818561114e565b9350610e05818560208601611298565b610e0e81611324565b840191505092915050565b6000610e2482611143565b610e2e818561115f565b9350610e3e818560208601611298565b80840191505092915050565b6000610e5760208361114e565b91507f537472696e67733a20686578206c656e67746820696e73756666696369656e746000830152602082019050919050565b6000610e9760268361114e565b91507f4f776e61626c653a206e6577206f776e657220697320746865207a65726f206160008301527f64647265737300000000000000000000000000000000000000000000000000006020830152604082019050919050565b6000610efd60208361114e565b91507f4f776e61626c653a2063616c6c6572206973206e6f7420746865206f776e65726000830152602082019050919050565b6000610f3d60178361115f565b91507f416363657373436f6e74726f6c3a206163636f756e74200000000000000000006000830152601782019050919050565b6000610f7d60118361115f565b91507f206973206d697373696e6720726f6c65200000000000000000000000000000006000830152601182019050919050565b6000610fbd602f8361114e565b91507f416363657373436f6e74726f6c3a2063616e206f6e6c792072656e6f756e636560008301527f20726f6c657320666f722073656c6600000000000000000000000000000000006020830152604082019050919050565b600061102182610f30565b915061102d8285610e19565b915061103882610f70565b91506110448284610e19565b91508190509392505050565b60006020820190506110656000830184610db3565b92915050565b60006020820190506110806000830184610dc2565b92915050565b600060208201905061109b6000830184610dd1565b92915050565b600060208201905081810360008301526110bb8184610de0565b905092915050565b600060208201905081810360008301526110dc81610e4a565b9050919050565b600060208201905081810360008301526110fc81610e8a565b9050919050565b6000602082019050818103600083015261111c81610ef0565b9050919050565b6000602082019050818103600083015261113c81610fb0565b9050919050565b600081519050919050565b600082825260208201905092915050565b600081905092915050565b60006111758261128e565b91506111808361128e565b9250827fffffffffffffffffffffffffffffffffffffffffffffffffffffffffffffffff038211156111b5576111b46112f5565b5b828201905092915050565b60006111cb8261128e565b91506111d68361128e565b9250817fffffffffffffffffffffffffffffffffffffffffffffffffffffffffffffffff048311821515161561120f5761120e6112f5565b5b828202905092915050565b60006112258261126e565b9050919050565b60008115159050919050565b6000819050919050565b60007fffffffff0000000000000000000000000000000000000000000000000000000082169050919050565b600073ffffffffffffffffffffffffffffffffffffffff82169050919050565b6000819050919050565b60005b838110156112b657808201518184015260208101905061129b565b838111156112c5576000848401525b50505050565b60006112d68261128e565b915060008214156112ea576112e96112f5565b5b600182039050919050565b7f4e487b7100000000000000000000000000000000000000000000000000000000600052601160045260246000fd5b6000601f19601f8301169050919050565b61133e8161121a565b811461134957600080fd5b50565b61135581611238565b811461136057600080fd5b50565b61136c81611242565b811461137757600080fd5b5056fea26469706673582212202ce98c137959bdaf66e927a8f53d0ba954648e675dd6482be1449fd49edae5e464736f6c63430008000033",
  "immutableReferences": {},
  "source": "// SPDX-License-Identifier: GPL-3.0\npragma solidity >=0.6.0 <0.9.0;\n\n//OpenZeppelin library 'AccessControl' import\nimport \"@openzeppelin/contracts/access/AccessControl.sol\";\nimport \"@openzeppelin/contracts/access/Ownable.sol\";\n\n//Contract 'CarrierRole' to manage carrier role - to check, to add, to remove\ncontract CarrierRole is AccessControl, Ownable{\n\n  bytes32 public constant CARRIER_ROLE = keccak256(\"CARRIER_ROLE\");\n\n  //Event thrown when adding\n  event carrierAdded(address indexed account);\n  //Event thrown when removing\n  event carrierRemoved(address indexed account);\n\n\n  //Checks carrier role\n  function isCarrier(address account) public view returns (bool) {\n    return hasRole(CARRIER_ROLE, account);\n  }\n\n  function _addCarrier(address account) internal {\n    _grantRole(CARRIER_ROLE, account);\n    emit carrierAdded(account);\n  }\n\n  function _removeCarrier(address account) internal {\n    _revokeRole(CARRIER_ROLE, account);\n    emit carrierRemoved(account);\n  }\n}",
  "sourcePath": "/Users/tfm/Desktop/Drizzle-tuto-master/contracts/roles/carrierRole.sol",
  "compiler": {
    "name": "solc",
    "version": "0.8.0+commit.c7dfd78e.Emscripten.clang"
  },
  "schemaVersion": "3.4.7",
  "updatedAt": "2022-04-25T23:29:45.960Z",
  "devdoc": {
    "kind": "dev",
    "methods": {
      "getRoleAdmin(bytes32)": {
        "details": "Returns the admin role that controls `role`. See {grantRole} and {revokeRole}. To change a role's admin, use {_setRoleAdmin}."
      },
      "grantRole(bytes32,address)": {
        "details": "Grants `role` to `account`. If `account` had not been already granted `role`, emits a {RoleGranted} event. Requirements: - the caller must have ``role``'s admin role."
      },
      "hasRole(bytes32,address)": {
        "details": "Returns `true` if `account` has been granted `role`."
      },
      "owner()": {
        "details": "Returns the address of the current owner."
      },
      "renounceOwnership()": {
        "details": "Leaves the contract without owner. It will not be possible to call `onlyOwner` functions anymore. Can only be called by the current owner. NOTE: Renouncing ownership will leave the contract without an owner, thereby removing any functionality that is only available to the owner."
      },
      "renounceRole(bytes32,address)": {
        "details": "Revokes `role` from the calling account. Roles are often managed via {grantRole} and {revokeRole}: this function's purpose is to provide a mechanism for accounts to lose their privileges if they are compromised (such as when a trusted device is misplaced). If the calling account had been revoked `role`, emits a {RoleRevoked} event. Requirements: - the caller must be `account`."
      },
      "revokeRole(bytes32,address)": {
        "details": "Revokes `role` from `account`. If `account` had been granted `role`, emits a {RoleRevoked} event. Requirements: - the caller must have ``role``'s admin role."
      },
      "supportsInterface(bytes4)": {
        "details": "See {IERC165-supportsInterface}."
      },
      "transferOwnership(address)": {
        "details": "Transfers ownership of the contract to a new account (`newOwner`). Can only be called by the current owner."
      }
    },
    "version": 1
  },
  "userdoc": {
    "kind": "user",
    "methods": {},
    "version": 1
  }
}