{
  "contractName": "LaboratoryRole",
  "abi": [
    {
      "anonymous": false,
      "inputs": [
        {
          "indexed": true,
          "internalType": "address",
          "name": "previousOwner",
          "type": "address"
        },
        {
          "indexed": true,
          "internalType": "address",
          "name": "newOwner",
          "type": "address"
        }
      ],
      "name": "OwnershipTransferred",
      "type": "event"
    },
    {
      "anonymous": false,
      "inputs": [
        {
          "indexed": true,
          "internalType": "bytes32",
          "name": "role",
          "type": "bytes32"
        },
        {
          "indexed": true,
          "internalType": "bytes32",
          "name": "previousAdminRole",
          "type": "bytes32"
        },
        {
          "indexed": true,
          "internalType": "bytes32",
          "name": "newAdminRole",
          "type": "bytes32"
        }
      ],
      "name": "RoleAdminChanged",
      "type": "event"
    },
    {
      "anonymous": false,
      "inputs": [
        {
          "indexed": true,
          "internalType": "bytes32",
          "name": "role",
          "type": "bytes32"
        },
        {
          "indexed": true,
          "internalType": "address",
          "name": "account",
          "type": "address"
        },
        {
          "indexed": true,
          "internalType": "address",
          "name": "sender",
          "type": "address"
        }
      ],
      "name": "RoleGranted",
      "type": "event"
    },
    {
      "anonymous": false,
      "inputs": [
        {
          "indexed": true,
          "internalType": "bytes32",
          "name": "role",
          "type": "bytes32"
        },
        {
          "indexed": true,
          "internalType": "address",
          "name": "account",
          "type": "address"
        },
        {
          "indexed": true,
          "internalType": "address",
          "name": "sender",
          "type": "address"
        }
      ],
      "name": "RoleRevoked",
      "type": "event"
    },
    {
      "anonymous": false,
      "inputs": [
        {
          "indexed": true,
          "internalType": "address",
          "name": "account",
          "type": "address"
        }
      ],
      "name": "laboratoryAdded",
      "type": "event"
    },
    {
      "anonymous": false,
      "inputs": [
        {
          "indexed": true,
          "internalType": "address",
          "name": "account",
          "type": "address"
        }
      ],
      "name": "laboratoryRemoved",
      "type": "event"
    },
    {
      "inputs": [],
      "name": "DEFAULT_ADMIN_ROLE",
      "outputs": [
        {
          "internalType": "bytes32",
          "name": "",
          "type": "bytes32"
        }
      ],
      "stateMutability": "view",
      "type": "function"
    },
    {
      "inputs": [],
      "name": "LABORATORY_ROLE",
      "outputs": [
        {
          "internalType": "bytes32",
          "name": "",
          "type": "bytes32"
        }
      ],
      "stateMutability": "view",
      "type": "function"
    },
    {
      "inputs": [
        {
          "internalType": "bytes32",
          "name": "role",
          "type": "bytes32"
        }
      ],
      "name": "getRoleAdmin",
      "outputs": [
        {
          "internalType": "bytes32",
          "name": "",
          "type": "bytes32"
        }
      ],
      "stateMutability": "view",
      "type": "function"
    },
    {
      "inputs": [
        {
          "internalType": "bytes32",
          "name": "role",
          "type": "bytes32"
        },
        {
          "internalType": "address",
          "name": "account",
          "type": "address"
        }
      ],
      "name": "grantRole",
      "outputs": [],
      "stateMutability": "nonpayable",
      "type": "function"
    },
    {
      "inputs": [
        {
          "internalType": "bytes32",
          "name": "role",
          "type": "bytes32"
        },
        {
          "internalType": "address",
          "name": "account",
          "type": "address"
        }
      ],
      "name": "hasRole",
      "outputs": [
        {
          "internalType": "bool",
          "name": "",
          "type": "bool"
        }
      ],
      "stateMutability": "view",
      "type": "function"
    },
    {
      "inputs": [],
      "name": "owner",
      "outputs": [
        {
          "internalType": "address",
          "name": "",
          "type": "address"
        }
      ],
      "stateMutability": "view",
      "type": "function"
    },
    {
      "inputs": [],
      "name": "renounceOwnership",
      "outputs": [],
      "stateMutability": "nonpayable",
      "type": "function"
    },
    {
      "inputs": [
        {
          "internalType": "bytes32",
          "name": "role",
          "type": "bytes32"
        },
        {
          "internalType": "address",
          "name": "account",
          "type": "address"
        }
      ],
      "name": "renounceRole",
      "outputs": [],
      "stateMutability": "nonpayable",
      "type": "function"
    },
    {
      "inputs": [
        {
          "internalType": "bytes32",
          "name": "role",
          "type": "bytes32"
        },
        {
          "internalType": "address",
          "name": "account",
          "type": "address"
        }
      ],
      "name": "revokeRole",
      "outputs": [],
      "stateMutability": "nonpayable",
      "type": "function"
    },
    {
      "inputs": [
        {
          "internalType": "bytes4",
          "name": "interfaceId",
          "type": "bytes4"
        }
      ],
      "name": "supportsInterface",
      "outputs": [
        {
          "internalType": "bool",
          "name": "",
          "type": "bool"
        }
      ],
      "stateMutability": "view",
      "type": "function"
    },
    {
      "inputs": [
        {
          "internalType": "address",
          "name": "newOwner",
          "type": "address"
        }
      ],
      "name": "transferOwnership",
      "outputs": [],
      "stateMutability": "nonpayable",
      "type": "function"
    },
    {
      "inputs": [
        {
          "internalType": "address",
          "name": "account",
          "type": "address"
        }
      ],
      "name": "isLaboratory",
      "outputs": [
        {
          "internalType": "bool",
          "name": "",
          "type": "bool"
        }
      ],
      "stateMutability": "view",
      "type": "function"
    },
    {
      "inputs": [
        {
          "internalType": "address",
          "name": "account",
          "type": "address"
        }
      ],
      "name": "addLaboratory",
      "outputs": [],
      "stateMutability": "nonpayable",
      "type": "function"
    },
    {
      "inputs": [
        {
          "internalType": "address",
          "name": "account",
          "type": "address"
        }
      ],
      "name": "removeLaboratory",
      "outputs": [],
      "stateMutability": "nonpayable",
      "type": "function"
    }
  ],
  "bytecode": "0x608060405234801561001057600080fd5b5061002d61002261003260201b60201c565b61003a60201b60201c565b610100565b600033905090565b6000600160009054906101000a900473ffffffffffffffffffffffffffffffffffffffff16905081600160006101000a81548173ffffffffffffffffffffffffffffffffffffffff021916908373ffffffffffffffffffffffffffffffffffffffff1602179055508173ffffffffffffffffffffffffffffffffffffffff168173ffffffffffffffffffffffffffffffffffffffff167f8be0079c531659141344cd1fd0a4f28419497f9722a3daafe3b4186f6b6457e060405160405180910390a35050565b61160e8061010f6000396000f3fe608060405234801561001057600080fd5b50600436106100ea5760003560e01c80637fe212431161008c57806391d148541161006657806391d1485414610235578063a217fddf14610265578063d547741f14610283578063f2fde38b1461029f576100ea565b80637fe21243146101dd5780638da5cb5b146101fb5780638fadae9014610219576100ea565b80632f2ff15d116100c85780632f2ff15d1461017f57806336568abe1461019b578063404203b9146101b7578063715018a6146101d3576100ea565b806301ffc9a7146100ef578063248a9ca31461011f578063277065841461014f575b600080fd5b61010960048036038101906101049190610fe8565b6102bb565b60405161011691906112c9565b60405180910390f35b61013960048036038101906101349190610f83565b610335565b60405161014691906112e4565b60405180910390f35b61016960048036038101906101649190610f5a565b610354565b60405161017691906112c9565b60405180910390f35b61019960048036038101906101949190610fac565b610387565b005b6101b560048036038101906101b09190610fac565b6103b0565b005b6101d160048036038101906101cc9190610f5a565b610433565b005b6101db6104bb565b005b6101e5610543565b6040516101f291906112e4565b60405180910390f35b610203610567565b60405161021091906112ae565b60405180910390f35b610233600480360381019061022e9190610f5a565b610591565b005b61024f600480360381019061024a9190610fac565b610619565b60405161025c91906112c9565b60405180910390f35b61026d610683565b60405161027a91906112e4565b60405180910390f35b61029d60048036038101906102989190610fac565b61068a565b005b6102b960048036038101906102b49190610f5a565b6106b3565b005b60007f7965db0b000000000000000000000000000000000000000000000000000000007bffffffffffffffffffffffffffffffffffffffffffffffffffffffff1916827bffffffffffffffffffffffffffffffffffffffffffffffffffffffff1916148061032e575061032d826107ab565b5b9050919050565b6000806000838152602001908152602001600020600101549050919050565b60006103807fc9f41f19cd323609a8840e20c19f0688fff7f2c7796dc69350af80f75835f81583610619565b9050919050565b61039082610335565b6103a18161039c610815565b61081d565b6103ab83836108ba565b505050565b6103b8610815565b73ffffffffffffffffffffffffffffffffffffffff168173ffffffffffffffffffffffffffffffffffffffff1614610425576040517f08c379a000000000000000000000000000000000000000000000000000000000815260040161041c90611381565b60405180910390fd5b61042f828261099a565b5050565b61043b610815565b73ffffffffffffffffffffffffffffffffffffffff16610459610567565b73ffffffffffffffffffffffffffffffffffffffff16146104af576040517f08c379a00000000000000000000000000000000000000000000000000000000081526004016104a690611361565b60405180910390fd5b6104b881610a7b565b50565b6104c3610815565b73ffffffffffffffffffffffffffffffffffffffff166104e1610567565b73ffffffffffffffffffffffffffffffffffffffff1614610537576040517f08c379a000000000000000000000000000000000000000000000000000000000815260040161052e90611361565b60405180910390fd5b6105416000610aeb565b565b7fc9f41f19cd323609a8840e20c19f0688fff7f2c7796dc69350af80f75835f81581565b6000600160009054906101000a900473ffffffffffffffffffffffffffffffffffffffff16905090565b610599610815565b73ffffffffffffffffffffffffffffffffffffffff166105b7610567565b73ffffffffffffffffffffffffffffffffffffffff161461060d576040517f08c379a000000000000000000000000000000000000000000000000000000000815260040161060490611361565b60405180910390fd5b61061681610bb1565b50565b600080600084815260200190815260200160002060000160008373ffffffffffffffffffffffffffffffffffffffff1673ffffffffffffffffffffffffffffffffffffffff16815260200190815260200160002060009054906101000a900460ff16905092915050565b6000801b81565b61069382610335565b6106a48161069f610815565b61081d565b6106ae838361099a565b505050565b6106bb610815565b73ffffffffffffffffffffffffffffffffffffffff166106d9610567565b73ffffffffffffffffffffffffffffffffffffffff161461072f576040517f08c379a000000000000000000000000000000000000000000000000000000000815260040161072690611361565b60405180910390fd5b600073ffffffffffffffffffffffffffffffffffffffff168173ffffffffffffffffffffffffffffffffffffffff16141561079f576040517f08c379a000000000000000000000000000000000000000000000000000000000815260040161079690611341565b60405180910390fd5b6107a881610aeb565b50565b60007f01ffc9a7000000000000000000000000000000000000000000000000000000007bffffffffffffffffffffffffffffffffffffffffffffffffffffffff1916827bffffffffffffffffffffffffffffffffffffffffffffffffffffffff1916149050919050565b600033905090565b6108278282610619565b6108b65761084c8173ffffffffffffffffffffffffffffffffffffffff166014610c21565b61085a8360001c6020610c21565b60405160200161086b929190611274565b6040516020818303038152906040526040517f08c379a00000000000000000000000000000000000000000000000000000000081526004016108ad91906112ff565b60405180910390fd5b5050565b6108c48282610619565b61099657600160008084815260200190815260200160002060000160008373ffffffffffffffffffffffffffffffffffffffff1673ffffffffffffffffffffffffffffffffffffffff16815260200190815260200160002060006101000a81548160ff02191690831515021790555061093b610815565b73ffffffffffffffffffffffffffffffffffffffff168173ffffffffffffffffffffffffffffffffffffffff16837f2f8788117e7eff1d82e926ec794901d17c78024a50270940304540a733656f0d60405160405180910390a45b5050565b6109a48282610619565b15610a7757600080600084815260200190815260200160002060000160008373ffffffffffffffffffffffffffffffffffffffff1673ffffffffffffffffffffffffffffffffffffffff16815260200190815260200160002060006101000a81548160ff021916908315150217905550610a1c610815565b73ffffffffffffffffffffffffffffffffffffffff168173ffffffffffffffffffffffffffffffffffffffff16837ff6391f5c32d9c69d2a47ea670b442974b53935d1edc7fd64eb21e047a839171b60405160405180910390a45b5050565b610aa57fc9f41f19cd323609a8840e20c19f0688fff7f2c7796dc69350af80f75835f815826108ba565b8073ffffffffffffffffffffffffffffffffffffffff167f98980d7f599134323351c537f72e6e91717e3b79333a908281c16eba585a455760405160405180910390a250565b6000600160009054906101000a900473ffffffffffffffffffffffffffffffffffffffff16905081600160006101000a81548173ffffffffffffffffffffffffffffffffffffffff021916908373ffffffffffffffffffffffffffffffffffffffff1602179055508173ffffffffffffffffffffffffffffffffffffffff168173ffffffffffffffffffffffffffffffffffffffff167f8be0079c531659141344cd1fd0a4f28419497f9722a3daafe3b4186f6b6457e060405160405180910390a35050565b610bdb7fc9f41f19cd323609a8840e20c19f0688fff7f2c7796dc69350af80f75835f8158261099a565b8073ffffffffffffffffffffffffffffffffffffffff167f97777ba2e5fcee6d754cfc5ef55c7906082b5f8304c0612b37538176814d8b6260405160405180910390a250565b606060006002836002610c34919061141e565b610c3e91906113c8565b67ffffffffffffffff811115610c7d577f4e487b7100000000000000000000000000000000000000000000000000000000600052604160045260246000fd5b6040519080825280601f01601f191660200182016040528015610caf5781602001600182028036833780820191505090505b5090507f300000000000000000000000000000000000000000000000000000000000000081600081518110610d0d577f4e487b7100000000000000000000000000000000000000000000000000000000600052603260045260246000fd5b60200101907effffffffffffffffffffffffffffffffffffffffffffffffffffffffffffff1916908160001a9053507f780000000000000000000000000000000000000000000000000000000000000081600181518110610d97577f4e487b7100000000000000000000000000000000000000000000000000000000600052603260045260246000fd5b60200101907effffffffffffffffffffffffffffffffffffffffffffffffffffffffffffff1916908160001a90535060006001846002610dd7919061141e565b610de191906113c8565b90505b6001811115610ecd577f3031323334353637383961626364656600000000000000000000000000000000600f861660108110610e49577f4e487b7100000000000000000000000000000000000000000000000000000000600052603260045260246000fd5b1a60f81b828281518110610e86577f4e487b7100000000000000000000000000000000000000000000000000000000600052603260045260246000fd5b60200101907effffffffffffffffffffffffffffffffffffffffffffffffffffffffffffff1916908160001a905350600485901c945080610ec690611529565b9050610de4565b5060008414610f11576040517f08c379a0000000000000000000000000000000000000000000000000000000008152600401610f0890611321565b60405180910390fd5b8091505092915050565b600081359050610f2a81611593565b92915050565b600081359050610f3f816115aa565b92915050565b600081359050610f54816115c1565b92915050565b600060208284031215610f6c57600080fd5b6000610f7a84828501610f1b565b91505092915050565b600060208284031215610f9557600080fd5b6000610fa384828501610f30565b91505092915050565b60008060408385031215610fbf57600080fd5b6000610fcd85828601610f30565b9250506020610fde85828601610f1b565b9150509250929050565b600060208284031215610ffa57600080fd5b600061100884828501610f45565b91505092915050565b61101a81611478565b82525050565b6110298161148a565b82525050565b61103881611496565b82525050565b6000611049826113a1565b61105381856113ac565b93506110638185602086016114f6565b61106c81611582565b840191505092915050565b6000611082826113a1565b61108c81856113bd565b935061109c8185602086016114f6565b80840191505092915050565b60006110b56020836113ac565b91507f537472696e67733a20686578206c656e67746820696e73756666696369656e746000830152602082019050919050565b60006110f56026836113ac565b91507f4f776e61626c653a206e6577206f776e657220697320746865207a65726f206160008301527f64647265737300000000000000000000000000000000000000000000000000006020830152604082019050919050565b600061115b6020836113ac565b91507f4f776e61626c653a2063616c6c6572206973206e6f7420746865206f776e65726000830152602082019050919050565b600061119b6017836113bd565b91507f416363657373436f6e74726f6c3a206163636f756e74200000000000000000006000830152601782019050919050565b60006111db6011836113bd565b91507f206973206d697373696e6720726f6c65200000000000000000000000000000006000830152601182019050919050565b600061121b602f836113ac565b91507f416363657373436f6e74726f6c3a2063616e206f6e6c792072656e6f756e636560008301527f20726f6c657320666f722073656c6600000000000000000000000000000000006020830152604082019050919050565b600061127f8261118e565b915061128b8285611077565b9150611296826111ce565b91506112a28284611077565b91508190509392505050565b60006020820190506112c36000830184611011565b92915050565b60006020820190506112de6000830184611020565b92915050565b60006020820190506112f9600083018461102f565b92915050565b60006020820190508181036000830152611319818461103e565b905092915050565b6000602082019050818103600083015261133a816110a8565b9050919050565b6000602082019050818103600083015261135a816110e8565b9050919050565b6000602082019050818103600083015261137a8161114e565b9050919050565b6000602082019050818103600083015261139a8161120e565b9050919050565b600081519050919050565b600082825260208201905092915050565b600081905092915050565b60006113d3826114ec565b91506113de836114ec565b9250827fffffffffffffffffffffffffffffffffffffffffffffffffffffffffffffffff0382111561141357611412611553565b5b828201905092915050565b6000611429826114ec565b9150611434836114ec565b9250817fffffffffffffffffffffffffffffffffffffffffffffffffffffffffffffffff048311821515161561146d5761146c611553565b5b828202905092915050565b6000611483826114cc565b9050919050565b60008115159050919050565b6000819050919050565b60007fffffffff0000000000000000000000000000000000000000000000000000000082169050919050565b600073ffffffffffffffffffffffffffffffffffffffff82169050919050565b6000819050919050565b60005b838110156115145780820151818401526020810190506114f9565b83811115611523576000848401525b50505050565b6000611534826114ec565b9150600082141561154857611547611553565b5b600182039050919050565b7f4e487b7100000000000000000000000000000000000000000000000000000000600052601160045260246000fd5b6000601f19601f8301169050919050565b61159c81611478565b81146115a757600080fd5b50565b6115b381611496565b81146115be57600080fd5b50565b6115ca816114a0565b81146115d557600080fd5b5056fea2646970667358221220e90916066221d7036dc528f26376f6276e1cddc5f8d3b19b534af07bd7f2a07964736f6c63430008000033",
  "immutableReferences": {},
  "source": "pragma solidity >=0.6.0 <0.9.0;\n\n//OpenZeppelin library 'AccessControl' import\nimport \"@openzeppelin/contracts/access/AccessControl.sol\";\nimport \"@openzeppelin/contracts/access/Ownable.sol\";\n\n//Contract 'LaboratoryRole' to manage laboratory role - to check, to add, to remove\ncontract LaboratoryRole is AccessControl, Ownable{\n\n  bytes32 public constant LABORATORY_ROLE = keccak256(\"LABORATORY_ROLE\");\n\n  //Event thrown when adding\n  event laboratoryAdded(address indexed account);\n  //Event thrown when removing\n  event laboratoryRemoved(address indexed account);\n\n\n  //Checks laboratory role\n  function isLaboratory(address account) public view returns (bool) {\n    return hasRole(LABORATORY_ROLE, account);\n  }\n\n  //Add Laboratory role to an account. Only admin account can use it.\n  function addLaboratory(address account) public onlyOwner {\n   _addLaboratory(account);\n  }\n\n  //Remove laboratory role of an account. Only admin account can use it. \n  function removeLaboratory(address account) public onlyOwner {\n    _removeLaboratory(account);\n  }\n\n  function _addLaboratory(address account) internal {\n    _grantRole(LABORATORY_ROLE, account);\n    emit laboratoryAdded(account);\n  }\n\n  function _removeLaboratory(address account) internal {\n    _revokeRole(LABORATORY_ROLE, account);\n    emit laboratoryRemoved(account);\n  }\n}",
  "sourcePath": "/Users/tfm/Desktop/Drizzle-tuto-master/contracts/roles/LaboratoryRole.sol",
  "compiler": {
    "name": "solc",
    "version": "0.8.0+commit.c7dfd78e.Emscripten.clang"
  },
  "schemaVersion": "3.4.7",
  "updatedAt": "2022-04-19T00:46:35.821Z",
  "devdoc": {
    "kind": "dev",
    "methods": {
      "getRoleAdmin(bytes32)": {
        "details": "Returns the admin role that controls `role`. See {grantRole} and {revokeRole}. To change a role's admin, use {_setRoleAdmin}."
      },
      "grantRole(bytes32,address)": {
        "details": "Grants `role` to `account`. If `account` had not been already granted `role`, emits a {RoleGranted} event. Requirements: - the caller must have ``role``'s admin role."
      },
      "hasRole(bytes32,address)": {
        "details": "Returns `true` if `account` has been granted `role`."
      },
      "owner()": {
        "details": "Returns the address of the current owner."
      },
      "renounceOwnership()": {
        "details": "Leaves the contract without owner. It will not be possible to call `onlyOwner` functions anymore. Can only be called by the current owner. NOTE: Renouncing ownership will leave the contract without an owner, thereby removing any functionality that is only available to the owner."
      },
      "renounceRole(bytes32,address)": {
        "details": "Revokes `role` from the calling account. Roles are often managed via {grantRole} and {revokeRole}: this function's purpose is to provide a mechanism for accounts to lose their privileges if they are compromised (such as when a trusted device is misplaced). If the calling account had been revoked `role`, emits a {RoleRevoked} event. Requirements: - the caller must be `account`."
      },
      "revokeRole(bytes32,address)": {
        "details": "Revokes `role` from `account`. If `account` had been granted `role`, emits a {RoleRevoked} event. Requirements: - the caller must have ``role``'s admin role."
      },
      "supportsInterface(bytes4)": {
        "details": "See {IERC165-supportsInterface}."
      },
      "transferOwnership(address)": {
        "details": "Transfers ownership of the contract to a new account (`newOwner`). Can only be called by the current owner."
      }
    },
    "version": 1
  },
  "userdoc": {
    "kind": "user",
    "methods": {},
    "version": 1
  }
}