{
  "contractName": "VaccineNetwork",
  "abi": [
    {
      "anonymous": false,
      "inputs": [
        {
          "indexed": true,
          "internalType": "address",
          "name": "previousOwner",
          "type": "address"
        },
        {
          "indexed": true,
          "internalType": "address",
          "name": "newOwner",
          "type": "address"
        }
      ],
      "name": "OwnershipTransferred",
      "type": "event"
    },
    {
      "anonymous": false,
      "inputs": [
        {
          "indexed": true,
          "internalType": "bytes32",
          "name": "role",
          "type": "bytes32"
        },
        {
          "indexed": true,
          "internalType": "bytes32",
          "name": "previousAdminRole",
          "type": "bytes32"
        },
        {
          "indexed": true,
          "internalType": "bytes32",
          "name": "newAdminRole",
          "type": "bytes32"
        }
      ],
      "name": "RoleAdminChanged",
      "type": "event"
    },
    {
      "anonymous": false,
      "inputs": [
        {
          "indexed": true,
          "internalType": "bytes32",
          "name": "role",
          "type": "bytes32"
        },
        {
          "indexed": true,
          "internalType": "address",
          "name": "account",
          "type": "address"
        },
        {
          "indexed": true,
          "internalType": "address",
          "name": "sender",
          "type": "address"
        }
      ],
      "name": "RoleGranted",
      "type": "event"
    },
    {
      "anonymous": false,
      "inputs": [
        {
          "indexed": true,
          "internalType": "bytes32",
          "name": "role",
          "type": "bytes32"
        },
        {
          "indexed": true,
          "internalType": "address",
          "name": "account",
          "type": "address"
        },
        {
          "indexed": true,
          "internalType": "address",
          "name": "sender",
          "type": "address"
        }
      ],
      "name": "RoleRevoked",
      "type": "event"
    },
    {
      "anonymous": false,
      "inputs": [
        {
          "indexed": true,
          "internalType": "address",
          "name": "account",
          "type": "address"
        }
      ],
      "name": "carrierAdded",
      "type": "event"
    },
    {
      "anonymous": false,
      "inputs": [
        {
          "indexed": true,
          "internalType": "address",
          "name": "account",
          "type": "address"
        }
      ],
      "name": "carrierRemoved",
      "type": "event"
    },
    {
      "anonymous": false,
      "inputs": [
        {
          "indexed": true,
          "internalType": "address",
          "name": "account",
          "type": "address"
        }
      ],
      "name": "laboratoryAdded",
      "type": "event"
    },
    {
      "anonymous": false,
      "inputs": [
        {
          "indexed": true,
          "internalType": "address",
          "name": "account",
          "type": "address"
        }
      ],
      "name": "laboratoryRemoved",
      "type": "event"
    },
    {
      "anonymous": false,
      "inputs": [
        {
          "indexed": true,
          "internalType": "address",
          "name": "account",
          "type": "address"
        }
      ],
      "name": "vaccineCenterAdded",
      "type": "event"
    },
    {
      "anonymous": false,
      "inputs": [
        {
          "indexed": true,
          "internalType": "address",
          "name": "account",
          "type": "address"
        }
      ],
      "name": "vaccineCenterRemoved",
      "type": "event"
    },
    {
      "inputs": [],
      "name": "CARRIER_ROLE",
      "outputs": [
        {
          "internalType": "bytes32",
          "name": "",
          "type": "bytes32"
        }
      ],
      "stateMutability": "view",
      "type": "function"
    },
    {
      "inputs": [],
      "name": "DEFAULT_ADMIN_ROLE",
      "outputs": [
        {
          "internalType": "bytes32",
          "name": "",
          "type": "bytes32"
        }
      ],
      "stateMutability": "view",
      "type": "function"
    },
    {
      "inputs": [],
      "name": "LABORATORY_ROLE",
      "outputs": [
        {
          "internalType": "bytes32",
          "name": "",
          "type": "bytes32"
        }
      ],
      "stateMutability": "view",
      "type": "function"
    },
    {
      "inputs": [],
      "name": "VC_ROLE",
      "outputs": [
        {
          "internalType": "bytes32",
          "name": "",
          "type": "bytes32"
        }
      ],
      "stateMutability": "view",
      "type": "function"
    },
    {
      "inputs": [
        {
          "internalType": "address",
          "name": "account",
          "type": "address"
        }
      ],
      "name": "addCarrier",
      "outputs": [],
      "stateMutability": "nonpayable",
      "type": "function"
    },
    {
      "inputs": [
        {
          "internalType": "address",
          "name": "account",
          "type": "address"
        }
      ],
      "name": "addLaboratory",
      "outputs": [],
      "stateMutability": "nonpayable",
      "type": "function"
    },
    {
      "inputs": [
        {
          "internalType": "address",
          "name": "account",
          "type": "address"
        }
      ],
      "name": "addVaccineCenter",
      "outputs": [],
      "stateMutability": "nonpayable",
      "type": "function"
    },
    {
      "inputs": [
        {
          "internalType": "bytes32",
          "name": "role",
          "type": "bytes32"
        }
      ],
      "name": "getRoleAdmin",
      "outputs": [
        {
          "internalType": "bytes32",
          "name": "",
          "type": "bytes32"
        }
      ],
      "stateMutability": "view",
      "type": "function"
    },
    {
      "inputs": [
        {
          "internalType": "bytes32",
          "name": "role",
          "type": "bytes32"
        },
        {
          "internalType": "address",
          "name": "account",
          "type": "address"
        }
      ],
      "name": "grantRole",
      "outputs": [],
      "stateMutability": "nonpayable",
      "type": "function"
    },
    {
      "inputs": [
        {
          "internalType": "bytes32",
          "name": "role",
          "type": "bytes32"
        },
        {
          "internalType": "address",
          "name": "account",
          "type": "address"
        }
      ],
      "name": "hasRole",
      "outputs": [
        {
          "internalType": "bool",
          "name": "",
          "type": "bool"
        }
      ],
      "stateMutability": "view",
      "type": "function"
    },
    {
      "inputs": [
        {
          "internalType": "address",
          "name": "account",
          "type": "address"
        }
      ],
      "name": "isCarrier",
      "outputs": [
        {
          "internalType": "bool",
          "name": "",
          "type": "bool"
        }
      ],
      "stateMutability": "view",
      "type": "function"
    },
    {
      "inputs": [
        {
          "internalType": "address",
          "name": "account",
          "type": "address"
        }
      ],
      "name": "isLaboratory",
      "outputs": [
        {
          "internalType": "bool",
          "name": "",
          "type": "bool"
        }
      ],
      "stateMutability": "view",
      "type": "function"
    },
    {
      "inputs": [
        {
          "internalType": "address",
          "name": "account",
          "type": "address"
        }
      ],
      "name": "isVaccineCenter",
      "outputs": [
        {
          "internalType": "bool",
          "name": "",
          "type": "bool"
        }
      ],
      "stateMutability": "view",
      "type": "function"
    },
    {
      "inputs": [],
      "name": "owner",
      "outputs": [
        {
          "internalType": "address",
          "name": "",
          "type": "address"
        }
      ],
      "stateMutability": "view",
      "type": "function"
    },
    {
      "inputs": [
        {
          "internalType": "address",
          "name": "account",
          "type": "address"
        }
      ],
      "name": "removeCarrier",
      "outputs": [],
      "stateMutability": "nonpayable",
      "type": "function"
    },
    {
      "inputs": [
        {
          "internalType": "address",
          "name": "account",
          "type": "address"
        }
      ],
      "name": "removeLaboratory",
      "outputs": [],
      "stateMutability": "nonpayable",
      "type": "function"
    },
    {
      "inputs": [
        {
          "internalType": "address",
          "name": "account",
          "type": "address"
        }
      ],
      "name": "removeVaccineCenter",
      "outputs": [],
      "stateMutability": "nonpayable",
      "type": "function"
    },
    {
      "inputs": [],
      "name": "renounceOwnership",
      "outputs": [],
      "stateMutability": "nonpayable",
      "type": "function"
    },
    {
      "inputs": [
        {
          "internalType": "bytes32",
          "name": "role",
          "type": "bytes32"
        },
        {
          "internalType": "address",
          "name": "account",
          "type": "address"
        }
      ],
      "name": "renounceRole",
      "outputs": [],
      "stateMutability": "nonpayable",
      "type": "function"
    },
    {
      "inputs": [
        {
          "internalType": "bytes32",
          "name": "role",
          "type": "bytes32"
        },
        {
          "internalType": "address",
          "name": "account",
          "type": "address"
        }
      ],
      "name": "revokeRole",
      "outputs": [],
      "stateMutability": "nonpayable",
      "type": "function"
    },
    {
      "inputs": [
        {
          "internalType": "bytes4",
          "name": "interfaceId",
          "type": "bytes4"
        }
      ],
      "name": "supportsInterface",
      "outputs": [
        {
          "internalType": "bool",
          "name": "",
          "type": "bool"
        }
      ],
      "stateMutability": "view",
      "type": "function"
    },
    {
      "inputs": [
        {
          "internalType": "address",
          "name": "newOwner",
          "type": "address"
        }
      ],
      "name": "transferOwnership",
      "outputs": [],
      "stateMutability": "nonpayable",
      "type": "function"
    }
  ],
  "bytecode": "0x608060405234801561001057600080fd5b5061002d61002261003260201b60201c565b61003a60201b60201c565b610100565b600033905090565b6000600160009054906101000a900473ffffffffffffffffffffffffffffffffffffffff16905081600160006101000a81548173ffffffffffffffffffffffffffffffffffffffff021916908373ffffffffffffffffffffffffffffffffffffffff1602179055508173ffffffffffffffffffffffffffffffffffffffff168173ffffffffffffffffffffffffffffffffffffffff167f8be0079c531659141344cd1fd0a4f28419497f9722a3daafe3b4186f6b6457e060405160405180910390a35050565b611c008061010f6000396000f3fe608060405234801561001057600080fd5b50600436106101425760003560e01c8063857aa71a116100b85780639e2fe90a1161007c5780639e2fe90a14610375578063a217fddf14610391578063c714bae4146103af578063d547741f146103cb578063eca48fd7146103e7578063f2fde38b1461040357610142565b8063857aa71a146102bd5780638da5cb5b146102db5780638e08aed6146102f95780638fadae901461032957806391d148541461034557610142565b806336568abe1161010a57806336568abe1461020f578063404203b91461022b578063436a34ee1461024757806365a1be4814610277578063715018a6146102955780637fe212431461029f57610142565b806301ffc9a71461014757806314e8f8d314610177578063248a9ca31461019357806327706584146101c35780632f2ff15d146101f3575b600080fd5b610161600480360381019061015c91906115da565b61041f565b60405161016e91906118bb565b60405180910390f35b610191600480360381019061018c919061154c565b610499565b005b6101ad60048036038101906101a89190611575565b610521565b6040516101ba91906118d6565b60405180910390f35b6101dd60048036038101906101d8919061154c565b610540565b6040516101ea91906118bb565b60405180910390f35b61020d6004803603810190610208919061159e565b610573565b005b6102296004803603810190610224919061159e565b61059c565b005b6102456004803603810190610240919061154c565b61061f565b005b610261600480360381019061025c919061154c565b6106a7565b60405161026e91906118bb565b60405180910390f35b61027f6106da565b60405161028c91906118d6565b60405180910390f35b61029d6106fe565b005b6102a7610786565b6040516102b491906118d6565b60405180910390f35b6102c56107aa565b6040516102d291906118d6565b60405180910390f35b6102e36107ce565b6040516102f091906118a0565b60405180910390f35b610313600480360381019061030e919061154c565b6107f8565b60405161032091906118bb565b60405180910390f35b610343600480360381019061033e919061154c565b61082b565b005b61035f600480360381019061035a919061159e565b6108b3565b60405161036c91906118bb565b60405180910390f35b61038f600480360381019061038a919061154c565b61091d565b005b6103996109a5565b6040516103a691906118d6565b60405180910390f35b6103c960048036038101906103c4919061154c565b6109ac565b005b6103e560048036038101906103e0919061159e565b610a34565b005b61040160048036038101906103fc919061154c565b610a5d565b005b61041d6004803603810190610418919061154c565b610ae5565b005b60007f7965db0b000000000000000000000000000000000000000000000000000000007bffffffffffffffffffffffffffffffffffffffffffffffffffffffff1916827bffffffffffffffffffffffffffffffffffffffffffffffffffffffff19161480610492575061049182610bdd565b5b9050919050565b6104a1610c47565b73ffffffffffffffffffffffffffffffffffffffff166104bf6107ce565b73ffffffffffffffffffffffffffffffffffffffff1614610515576040517f08c379a000000000000000000000000000000000000000000000000000000000815260040161050c90611953565b60405180910390fd5b61051e81610c4f565b50565b6000806000838152602001908152602001600020600101549050919050565b600061056c7fc9f41f19cd323609a8840e20c19f0688fff7f2c7796dc69350af80f75835f815836108b3565b9050919050565b61057c82610521565b61058d81610588610c47565b610cbf565b6105978383610d5c565b505050565b6105a4610c47565b73ffffffffffffffffffffffffffffffffffffffff168173ffffffffffffffffffffffffffffffffffffffff1614610611576040517f08c379a000000000000000000000000000000000000000000000000000000000815260040161060890611973565b60405180910390fd5b61061b8282610e3c565b5050565b610627610c47565b73ffffffffffffffffffffffffffffffffffffffff166106456107ce565b73ffffffffffffffffffffffffffffffffffffffff161461069b576040517f08c379a000000000000000000000000000000000000000000000000000000000815260040161069290611953565b60405180910390fd5b6106a481610f1d565b50565b60006106d37feb998ffefd22a823ed46d63e27357a1eefa908b6ba6804ac328694f77956b469836108b3565b9050919050565b7feb998ffefd22a823ed46d63e27357a1eefa908b6ba6804ac328694f77956b46981565b610706610c47565b73ffffffffffffffffffffffffffffffffffffffff166107246107ce565b73ffffffffffffffffffffffffffffffffffffffff161461077a576040517f08c379a000000000000000000000000000000000000000000000000000000000815260040161077190611953565b60405180910390fd5b6107846000610f8d565b565b7fc9f41f19cd323609a8840e20c19f0688fff7f2c7796dc69350af80f75835f81581565b7f5ddb3e3497f8f7f164aebc4d7f54dcf016e8cbf4b02588ee047dd5605a414dcb81565b6000600160009054906101000a900473ffffffffffffffffffffffffffffffffffffffff16905090565b60006108247f5ddb3e3497f8f7f164aebc4d7f54dcf016e8cbf4b02588ee047dd5605a414dcb836108b3565b9050919050565b610833610c47565b73ffffffffffffffffffffffffffffffffffffffff166108516107ce565b73ffffffffffffffffffffffffffffffffffffffff16146108a7576040517f08c379a000000000000000000000000000000000000000000000000000000000815260040161089e90611953565b60405180910390fd5b6108b081611053565b50565b600080600084815260200190815260200160002060000160008373ffffffffffffffffffffffffffffffffffffffff1673ffffffffffffffffffffffffffffffffffffffff16815260200190815260200160002060009054906101000a900460ff16905092915050565b610925610c47565b73ffffffffffffffffffffffffffffffffffffffff166109436107ce565b73ffffffffffffffffffffffffffffffffffffffff1614610999576040517f08c379a000000000000000000000000000000000000000000000000000000000815260040161099090611953565b60405180910390fd5b6109a2816110c3565b50565b6000801b81565b6109b4610c47565b73ffffffffffffffffffffffffffffffffffffffff166109d26107ce565b73ffffffffffffffffffffffffffffffffffffffff1614610a28576040517f08c379a0000000000000000000000000000000000000000000000000000000008152600401610a1f90611953565b60405180910390fd5b610a3181611133565b50565b610a3d82610521565b610a4e81610a49610c47565b610cbf565b610a588383610e3c565b505050565b610a65610c47565b73ffffffffffffffffffffffffffffffffffffffff16610a836107ce565b73ffffffffffffffffffffffffffffffffffffffff1614610ad9576040517f08c379a0000000000000000000000000000000000000000000000000000000008152600401610ad090611953565b60405180910390fd5b610ae2816111a3565b50565b610aed610c47565b73ffffffffffffffffffffffffffffffffffffffff16610b0b6107ce565b73ffffffffffffffffffffffffffffffffffffffff1614610b61576040517f08c379a0000000000000000000000000000000000000000000000000000000008152600401610b5890611953565b60405180910390fd5b600073ffffffffffffffffffffffffffffffffffffffff168173ffffffffffffffffffffffffffffffffffffffff161415610bd1576040517f08c379a0000000000000000000000000000000000000000000000000000000008152600401610bc890611933565b60405180910390fd5b610bda81610f8d565b50565b60007f01ffc9a7000000000000000000000000000000000000000000000000000000007bffffffffffffffffffffffffffffffffffffffffffffffffffffffff1916827bffffffffffffffffffffffffffffffffffffffffffffffffffffffff1916149050919050565b600033905090565b610c797feb998ffefd22a823ed46d63e27357a1eefa908b6ba6804ac328694f77956b46982610d5c565b8073ffffffffffffffffffffffffffffffffffffffff167f387a6db0f68b316b57f3260da99c5aeffd87c39beb8948ce8303d61e541869a060405160405180910390a250565b610cc982826108b3565b610d5857610cee8173ffffffffffffffffffffffffffffffffffffffff166014611213565b610cfc8360001c6020611213565b604051602001610d0d929190611866565b6040516020818303038152906040526040517f08c379a0000000000000000000000000000000000000000000000000000000008152600401610d4f91906118f1565b60405180910390fd5b5050565b610d6682826108b3565b610e3857600160008084815260200190815260200160002060000160008373ffffffffffffffffffffffffffffffffffffffff1673ffffffffffffffffffffffffffffffffffffffff16815260200190815260200160002060006101000a81548160ff021916908315150217905550610ddd610c47565b73ffffffffffffffffffffffffffffffffffffffff168173ffffffffffffffffffffffffffffffffffffffff16837f2f8788117e7eff1d82e926ec794901d17c78024a50270940304540a733656f0d60405160405180910390a45b5050565b610e4682826108b3565b15610f1957600080600084815260200190815260200160002060000160008373ffffffffffffffffffffffffffffffffffffffff1673ffffffffffffffffffffffffffffffffffffffff16815260200190815260200160002060006101000a81548160ff021916908315150217905550610ebe610c47565b73ffffffffffffffffffffffffffffffffffffffff168173ffffffffffffffffffffffffffffffffffffffff16837ff6391f5c32d9c69d2a47ea670b442974b53935d1edc7fd64eb21e047a839171b60405160405180910390a45b5050565b610f477fc9f41f19cd323609a8840e20c19f0688fff7f2c7796dc69350af80f75835f81582610d5c565b8073ffffffffffffffffffffffffffffffffffffffff167f98980d7f599134323351c537f72e6e91717e3b79333a908281c16eba585a455760405160405180910390a250565b6000600160009054906101000a900473ffffffffffffffffffffffffffffffffffffffff16905081600160006101000a81548173ffffffffffffffffffffffffffffffffffffffff021916908373ffffffffffffffffffffffffffffffffffffffff1602179055508173ffffffffffffffffffffffffffffffffffffffff168173ffffffffffffffffffffffffffffffffffffffff167f8be0079c531659141344cd1fd0a4f28419497f9722a3daafe3b4186f6b6457e060405160405180910390a35050565b61107d7fc9f41f19cd323609a8840e20c19f0688fff7f2c7796dc69350af80f75835f81582610e3c565b8073ffffffffffffffffffffffffffffffffffffffff167f97777ba2e5fcee6d754cfc5ef55c7906082b5f8304c0612b37538176814d8b6260405160405180910390a250565b6110ed7feb998ffefd22a823ed46d63e27357a1eefa908b6ba6804ac328694f77956b46982610e3c565b8073ffffffffffffffffffffffffffffffffffffffff167f78f1966a437b216b79694eba11d816b9d0e19de3271c193a3644850e9d6b3a8460405160405180910390a250565b61115d7f5ddb3e3497f8f7f164aebc4d7f54dcf016e8cbf4b02588ee047dd5605a414dcb82610d5c565b8073ffffffffffffffffffffffffffffffffffffffff167f73fa9435d865b08821c2994a077c585ed7bf83a8e04f9de2663a5e404030796c60405160405180910390a250565b6111cd7f5ddb3e3497f8f7f164aebc4d7f54dcf016e8cbf4b02588ee047dd5605a414dcb82610e3c565b8073ffffffffffffffffffffffffffffffffffffffff167f0301d300f7ffcdac7be324e8f0935a454bd86464697c0c9eea742da99310867460405160405180910390a250565b6060600060028360026112269190611a10565b61123091906119ba565b67ffffffffffffffff81111561126f577f4e487b7100000000000000000000000000000000000000000000000000000000600052604160045260246000fd5b6040519080825280601f01601f1916602001820160405280156112a15781602001600182028036833780820191505090505b5090507f3000000000000000000000000000000000000000000000000000000000000000816000815181106112ff577f4e487b7100000000000000000000000000000000000000000000000000000000600052603260045260246000fd5b60200101907effffffffffffffffffffffffffffffffffffffffffffffffffffffffffffff1916908160001a9053507f780000000000000000000000000000000000000000000000000000000000000081600181518110611389577f4e487b7100000000000000000000000000000000000000000000000000000000600052603260045260246000fd5b60200101907effffffffffffffffffffffffffffffffffffffffffffffffffffffffffffff1916908160001a905350600060018460026113c99190611a10565b6113d391906119ba565b90505b60018111156114bf577f3031323334353637383961626364656600000000000000000000000000000000600f86166010811061143b577f4e487b7100000000000000000000000000000000000000000000000000000000600052603260045260246000fd5b1a60f81b828281518110611478577f4e487b7100000000000000000000000000000000000000000000000000000000600052603260045260246000fd5b60200101907effffffffffffffffffffffffffffffffffffffffffffffffffffffffffffff1916908160001a905350600485901c9450806114b890611b1b565b90506113d6565b5060008414611503576040517f08c379a00000000000000000000000000000000000000000000000000000000081526004016114fa90611913565b60405180910390fd5b8091505092915050565b60008135905061151c81611b85565b92915050565b60008135905061153181611b9c565b92915050565b60008135905061154681611bb3565b92915050565b60006020828403121561155e57600080fd5b600061156c8482850161150d565b91505092915050565b60006020828403121561158757600080fd5b600061159584828501611522565b91505092915050565b600080604083850312156115b157600080fd5b60006115bf85828601611522565b92505060206115d08582860161150d565b9150509250929050565b6000602082840312156115ec57600080fd5b60006115fa84828501611537565b91505092915050565b61160c81611a6a565b82525050565b61161b81611a7c565b82525050565b61162a81611a88565b82525050565b600061163b82611993565b611645818561199e565b9350611655818560208601611ae8565b61165e81611b74565b840191505092915050565b600061167482611993565b61167e81856119af565b935061168e818560208601611ae8565b80840191505092915050565b60006116a760208361199e565b91507f537472696e67733a20686578206c656e67746820696e73756666696369656e746000830152602082019050919050565b60006116e760268361199e565b91507f4f776e61626c653a206e6577206f776e657220697320746865207a65726f206160008301527f64647265737300000000000000000000000000000000000000000000000000006020830152604082019050919050565b600061174d60208361199e565b91507f4f776e61626c653a2063616c6c6572206973206e6f7420746865206f776e65726000830152602082019050919050565b600061178d6017836119af565b91507f416363657373436f6e74726f6c3a206163636f756e74200000000000000000006000830152601782019050919050565b60006117cd6011836119af565b91507f206973206d697373696e6720726f6c65200000000000000000000000000000006000830152601182019050919050565b600061180d602f8361199e565b91507f416363657373436f6e74726f6c3a2063616e206f6e6c792072656e6f756e636560008301527f20726f6c657320666f722073656c6600000000000000000000000000000000006020830152604082019050919050565b600061187182611780565b915061187d8285611669565b9150611888826117c0565b91506118948284611669565b91508190509392505050565b60006020820190506118b56000830184611603565b92915050565b60006020820190506118d06000830184611612565b92915050565b60006020820190506118eb6000830184611621565b92915050565b6000602082019050818103600083015261190b8184611630565b905092915050565b6000602082019050818103600083015261192c8161169a565b9050919050565b6000602082019050818103600083015261194c816116da565b9050919050565b6000602082019050818103600083015261196c81611740565b9050919050565b6000602082019050818103600083015261198c81611800565b9050919050565b600081519050919050565b600082825260208201905092915050565b600081905092915050565b60006119c582611ade565b91506119d083611ade565b9250827fffffffffffffffffffffffffffffffffffffffffffffffffffffffffffffffff03821115611a0557611a04611b45565b5b828201905092915050565b6000611a1b82611ade565b9150611a2683611ade565b9250817fffffffffffffffffffffffffffffffffffffffffffffffffffffffffffffffff0483118215151615611a5f57611a5e611b45565b5b828202905092915050565b6000611a7582611abe565b9050919050565b60008115159050919050565b6000819050919050565b60007fffffffff0000000000000000000000000000000000000000000000000000000082169050919050565b600073ffffffffffffffffffffffffffffffffffffffff82169050919050565b6000819050919050565b60005b83811015611b06578082015181840152602081019050611aeb565b83811115611b15576000848401525b50505050565b6000611b2682611ade565b91506000821415611b3a57611b39611b45565b5b600182039050919050565b7f4e487b7100000000000000000000000000000000000000000000000000000000600052601160045260246000fd5b6000601f19601f8301169050919050565b611b8e81611a6a565b8114611b9957600080fd5b50565b611ba581611a88565b8114611bb057600080fd5b50565b611bbc81611a92565b8114611bc757600080fd5b5056fea264697066735822122054748b2c52e7fe90fa24ceb4d760212e07aa0ae3f0c6132ea32c2c54cdeb997264736f6c63430008000033",
  "immutableReferences": {},
  "source": "// SPDX-License-Identifier: GPL-3.0\npragma solidity >=0.6.0 <0.9.0;\n\nimport './roles/LaboratoryRole.sol';\nimport './roles/CarrierRole.sol';\nimport './roles/VaccineCenterRole.sol';\n\n/**\n * @title Vacine Network Model\n */\ncontract VaccineNetwork is LaboratoryRole, CarrierRole, VaccineCenterRole{\n    uint transport_phases;\n}",
  "sourcePath": "/Users/tfm/Desktop/Drizzle-tuto-master/contracts/vaccineNetwork.sol",
  "compiler": {
    "name": "solc",
    "version": "0.8.0+commit.c7dfd78e.Emscripten.clang"
  },
  "schemaVersion": "3.4.7",
  "updatedAt": "2022-04-19T00:49:20.393Z",
  "devdoc": {
    "kind": "dev",
    "methods": {
      "getRoleAdmin(bytes32)": {
        "details": "Returns the admin role that controls `role`. See {grantRole} and {revokeRole}. To change a role's admin, use {_setRoleAdmin}."
      },
      "grantRole(bytes32,address)": {
        "details": "Grants `role` to `account`. If `account` had not been already granted `role`, emits a {RoleGranted} event. Requirements: - the caller must have ``role``'s admin role."
      },
      "hasRole(bytes32,address)": {
        "details": "Returns `true` if `account` has been granted `role`."
      },
      "owner()": {
        "details": "Returns the address of the current owner."
      },
      "renounceOwnership()": {
        "details": "Leaves the contract without owner. It will not be possible to call `onlyOwner` functions anymore. Can only be called by the current owner. NOTE: Renouncing ownership will leave the contract without an owner, thereby removing any functionality that is only available to the owner."
      },
      "renounceRole(bytes32,address)": {
        "details": "Revokes `role` from the calling account. Roles are often managed via {grantRole} and {revokeRole}: this function's purpose is to provide a mechanism for accounts to lose their privileges if they are compromised (such as when a trusted device is misplaced). If the calling account had been revoked `role`, emits a {RoleRevoked} event. Requirements: - the caller must be `account`."
      },
      "revokeRole(bytes32,address)": {
        "details": "Revokes `role` from `account`. If `account` had been granted `role`, emits a {RoleRevoked} event. Requirements: - the caller must have ``role``'s admin role."
      },
      "supportsInterface(bytes4)": {
        "details": "See {IERC165-supportsInterface}."
      },
      "transferOwnership(address)": {
        "details": "Transfers ownership of the contract to a new account (`newOwner`). Can only be called by the current owner."
      }
    },
    "title": "Vacine Network Model",
    "version": 1
  },
  "userdoc": {
    "kind": "user",
    "methods": {},
    "version": 1
  }
}