{
  "contractName": "VaccineNetwork",
  "abi": [
    {
      "anonymous": false,
      "inputs": [
        {
          "indexed": true,
          "internalType": "address",
          "name": "previousOwner",
          "type": "address"
        },
        {
          "indexed": true,
          "internalType": "address",
          "name": "newOwner",
          "type": "address"
        }
      ],
      "name": "OwnershipTransferred",
      "type": "event"
    },
    {
      "anonymous": false,
      "inputs": [
        {
          "indexed": true,
          "internalType": "bytes32",
          "name": "role",
          "type": "bytes32"
        },
        {
          "indexed": true,
          "internalType": "bytes32",
          "name": "previousAdminRole",
          "type": "bytes32"
        },
        {
          "indexed": true,
          "internalType": "bytes32",
          "name": "newAdminRole",
          "type": "bytes32"
        }
      ],
      "name": "RoleAdminChanged",
      "type": "event"
    },
    {
      "anonymous": false,
      "inputs": [
        {
          "indexed": true,
          "internalType": "bytes32",
          "name": "role",
          "type": "bytes32"
        },
        {
          "indexed": true,
          "internalType": "address",
          "name": "account",
          "type": "address"
        },
        {
          "indexed": true,
          "internalType": "address",
          "name": "sender",
          "type": "address"
        }
      ],
      "name": "RoleGranted",
      "type": "event"
    },
    {
      "anonymous": false,
      "inputs": [
        {
          "indexed": true,
          "internalType": "bytes32",
          "name": "role",
          "type": "bytes32"
        },
        {
          "indexed": true,
          "internalType": "address",
          "name": "account",
          "type": "address"
        },
        {
          "indexed": true,
          "internalType": "address",
          "name": "sender",
          "type": "address"
        }
      ],
      "name": "RoleRevoked",
      "type": "event"
    },
    {
      "anonymous": false,
      "inputs": [
        {
          "indexed": true,
          "internalType": "address",
          "name": "account",
          "type": "address"
        }
      ],
      "name": "carrierAdded",
      "type": "event"
    },
    {
      "anonymous": false,
      "inputs": [
        {
          "indexed": true,
          "internalType": "address",
          "name": "account",
          "type": "address"
        }
      ],
      "name": "carrierRemoved",
      "type": "event"
    },
    {
      "anonymous": false,
      "inputs": [
        {
          "indexed": true,
          "internalType": "address",
          "name": "account",
          "type": "address"
        }
      ],
      "name": "laboratoryAdded",
      "type": "event"
    },
    {
      "anonymous": false,
      "inputs": [
        {
          "indexed": true,
          "internalType": "address",
          "name": "account",
          "type": "address"
        }
      ],
      "name": "laboratoryRemoved",
      "type": "event"
    },
    {
      "anonymous": false,
      "inputs": [
        {
          "indexed": true,
          "internalType": "address",
          "name": "account",
          "type": "address"
        }
      ],
      "name": "vaccineCenterAdded",
      "type": "event"
    },
    {
      "anonymous": false,
      "inputs": [
        {
          "indexed": true,
          "internalType": "address",
          "name": "account",
          "type": "address"
        }
      ],
      "name": "vaccineCenterRemoved",
      "type": "event"
    },
    {
      "inputs": [],
      "name": "CARRIER_ROLE",
      "outputs": [
        {
          "internalType": "bytes32",
          "name": "",
          "type": "bytes32"
        }
      ],
      "stateMutability": "view",
      "type": "function",
      "constant": true
    },
    {
      "inputs": [],
      "name": "DEFAULT_ADMIN_ROLE",
      "outputs": [
        {
          "internalType": "bytes32",
          "name": "",
          "type": "bytes32"
        }
      ],
      "stateMutability": "view",
      "type": "function",
      "constant": true
    },
    {
      "inputs": [],
      "name": "LABORATORY_ROLE",
      "outputs": [
        {
          "internalType": "bytes32",
          "name": "",
          "type": "bytes32"
        }
      ],
      "stateMutability": "view",
      "type": "function",
      "constant": true
    },
    {
      "inputs": [],
      "name": "VC_ROLE",
      "outputs": [
        {
          "internalType": "bytes32",
          "name": "",
          "type": "bytes32"
        }
      ],
      "stateMutability": "view",
      "type": "function",
      "constant": true
    },
    {
      "inputs": [
        {
          "internalType": "bytes32",
          "name": "role",
          "type": "bytes32"
        }
      ],
      "name": "getRoleAdmin",
      "outputs": [
        {
          "internalType": "bytes32",
          "name": "",
          "type": "bytes32"
        }
      ],
      "stateMutability": "view",
      "type": "function",
      "constant": true
    },
    {
      "inputs": [
        {
          "internalType": "bytes32",
          "name": "role",
          "type": "bytes32"
        },
        {
          "internalType": "address",
          "name": "account",
          "type": "address"
        }
      ],
      "name": "grantRole",
      "outputs": [],
      "stateMutability": "nonpayable",
      "type": "function"
    },
    {
      "inputs": [
        {
          "internalType": "bytes32",
          "name": "role",
          "type": "bytes32"
        },
        {
          "internalType": "address",
          "name": "account",
          "type": "address"
        }
      ],
      "name": "hasRole",
      "outputs": [
        {
          "internalType": "bool",
          "name": "",
          "type": "bool"
        }
      ],
      "stateMutability": "view",
      "type": "function",
      "constant": true
    },
    {
      "inputs": [
        {
          "internalType": "address",
          "name": "account",
          "type": "address"
        }
      ],
      "name": "isCarrier",
      "outputs": [
        {
          "internalType": "bool",
          "name": "",
          "type": "bool"
        }
      ],
      "stateMutability": "view",
      "type": "function",
      "constant": true
    },
    {
      "inputs": [
        {
          "internalType": "address",
          "name": "account",
          "type": "address"
        }
      ],
      "name": "isLaboratory",
      "outputs": [
        {
          "internalType": "bool",
          "name": "",
          "type": "bool"
        }
      ],
      "stateMutability": "view",
      "type": "function",
      "constant": true
    },
    {
      "inputs": [
        {
          "internalType": "address",
          "name": "account",
          "type": "address"
        }
      ],
      "name": "isVaccineCenter",
      "outputs": [
        {
          "internalType": "bool",
          "name": "",
          "type": "bool"
        }
      ],
      "stateMutability": "view",
      "type": "function",
      "constant": true
    },
    {
      "inputs": [],
      "name": "owner",
      "outputs": [
        {
          "internalType": "address",
          "name": "",
          "type": "address"
        }
      ],
      "stateMutability": "view",
      "type": "function",
      "constant": true
    },
    {
      "inputs": [],
      "name": "renounceOwnership",
      "outputs": [],
      "stateMutability": "nonpayable",
      "type": "function"
    },
    {
      "inputs": [
        {
          "internalType": "bytes32",
          "name": "role",
          "type": "bytes32"
        },
        {
          "internalType": "address",
          "name": "account",
          "type": "address"
        }
      ],
      "name": "renounceRole",
      "outputs": [],
      "stateMutability": "nonpayable",
      "type": "function"
    },
    {
      "inputs": [
        {
          "internalType": "bytes32",
          "name": "role",
          "type": "bytes32"
        },
        {
          "internalType": "address",
          "name": "account",
          "type": "address"
        }
      ],
      "name": "revokeRole",
      "outputs": [],
      "stateMutability": "nonpayable",
      "type": "function"
    },
    {
      "inputs": [
        {
          "internalType": "address",
          "name": "",
          "type": "address"
        }
      ],
      "name": "roles",
      "outputs": [
        {
          "internalType": "enum VaccineNetwork.Rol",
          "name": "",
          "type": "uint8"
        }
      ],
      "stateMutability": "view",
      "type": "function",
      "constant": true
    },
    {
      "inputs": [
        {
          "internalType": "bytes4",
          "name": "interfaceId",
          "type": "bytes4"
        }
      ],
      "name": "supportsInterface",
      "outputs": [
        {
          "internalType": "bool",
          "name": "",
          "type": "bool"
        }
      ],
      "stateMutability": "view",
      "type": "function",
      "constant": true
    },
    {
      "inputs": [
        {
          "internalType": "address",
          "name": "newOwner",
          "type": "address"
        }
      ],
      "name": "transferOwnership",
      "outputs": [],
      "stateMutability": "nonpayable",
      "type": "function"
    },
    {
      "inputs": [
        {
          "internalType": "enum VaccineNetwork.Rol",
          "name": "",
          "type": "uint8"
        }
      ],
      "name": "users",
      "outputs": [
        {
          "internalType": "address",
          "name": "",
          "type": "address"
        }
      ],
      "stateMutability": "view",
      "type": "function",
      "constant": true
    },
    {
      "inputs": [
        {
          "internalType": "address",
          "name": "account",
          "type": "address"
        }
      ],
      "name": "addLaboratory",
      "outputs": [],
      "stateMutability": "nonpayable",
      "type": "function"
    },
    {
      "inputs": [
        {
          "internalType": "address",
          "name": "account",
          "type": "address"
        }
      ],
      "name": "removeLaboratory",
      "outputs": [],
      "stateMutability": "nonpayable",
      "type": "function"
    },
    {
      "inputs": [
        {
          "internalType": "address",
          "name": "account",
          "type": "address"
        }
      ],
      "name": "addVaccineCenter",
      "outputs": [],
      "stateMutability": "nonpayable",
      "type": "function"
    },
    {
      "inputs": [
        {
          "internalType": "address",
          "name": "account",
          "type": "address"
        }
      ],
      "name": "removeVaccineCenter",
      "outputs": [],
      "stateMutability": "nonpayable",
      "type": "function"
    },
    {
      "inputs": [
        {
          "internalType": "address",
          "name": "account",
          "type": "address"
        }
      ],
      "name": "addCarrier",
      "outputs": [],
      "stateMutability": "nonpayable",
      "type": "function"
    },
    {
      "inputs": [
        {
          "internalType": "address",
          "name": "account",
          "type": "address"
        }
      ],
      "name": "removeCarrier",
      "outputs": [],
      "stateMutability": "nonpayable",
      "type": "function"
    },
    {
      "inputs": [
        {
          "internalType": "address",
          "name": "_address",
          "type": "address"
        }
      ],
      "name": "getAccountRole",
      "outputs": [
        {
          "internalType": "enum VaccineNetwork.Rol",
          "name": "",
          "type": "uint8"
        }
      ],
      "stateMutability": "view",
      "type": "function",
      "constant": true
    },
    {
      "inputs": [
        {
          "internalType": "enum VaccineNetwork.Rol",
          "name": "_rol",
          "type": "uint8"
        }
      ],
      "name": "getRoleAccount",
      "outputs": [
        {
          "internalType": "address",
          "name": "",
          "type": "address"
        }
      ],
      "stateMutability": "view",
      "type": "function",
      "constant": true
    }
  ],
  "bytecode": "0x60806040526000600360006101000a81548173ffffffffffffffffffffffffffffffffffffffff021916908373ffffffffffffffffffffffffffffffffffffffff1602179055506000600360146101000a81548160ff0219169083151502179055506000600360156101000a81548160ff0219169083151502179055506000600360166101000a81548160ff021916908315150217905550348015620000a457600080fd5b50620000c5620000b9620000cb60201b60201c565b620000d360201b60201c565b62000199565b600033905090565b6000600160009054906101000a900473ffffffffffffffffffffffffffffffffffffffff16905081600160006101000a81548173ffffffffffffffffffffffffffffffffffffffff021916908373ffffffffffffffffffffffffffffffffffffffff1602179055508173ffffffffffffffffffffffffffffffffffffffff168173ffffffffffffffffffffffffffffffffffffffff167f8be0079c531659141344cd1fd0a4f28419497f9722a3daafe3b4186f6b6457e060405160405180910390a35050565b612f8480620001a96000396000f3fe608060405234801561001057600080fd5b506004361061018e5760003560e01c806381d66b23116100de5780639937464211610097578063c714bae411610071578063c714bae4146104bb578063d547741f146104d7578063eca48fd7146104f3578063f2fde38b1461050f5761018e565b806399374642146104515780639e2fe90a14610481578063a217fddf1461049d5761018e565b806381d66b2314610369578063857aa71a146103995780638da5cb5b146103b75780638e08aed6146103d55780638fadae901461040557806391d14854146104215761018e565b806336568abe1161014b57806356dad6f91161012557806356dad6f9146102f357806365a1be4814610323578063715018a6146103415780637fe212431461034b5761018e565b806336568abe1461028b578063404203b9146102a7578063436a34ee146102c35761018e565b806301ffc9a71461019357806314e8f8d3146101c3578063248a9ca3146101df578063277065841461020f5780632f2ff15d1461023f57806332f803631461025b575b600080fd5b6101ad60048036038101906101a891906124e9565b61052b565b6040516101ba9190612acc565b60405180910390f35b6101dd60048036038101906101d8919061245b565b6105a5565b005b6101f960048036038101906101f49190612484565b61086c565b6040516102069190612ae7565b60405180910390f35b6102296004803603810190610224919061245b565b61088b565b6040516102369190612acc565b60405180910390f35b610259600480360381019061025491906124ad565b6108be565b005b61027560048036038101906102709190612512565b6108e7565b6040516102829190612ab1565b60405180910390f35b6102a560048036038101906102a091906124ad565b61091a565b005b6102c160048036038101906102bc919061245b565b61099d565b005b6102dd60048036038101906102d8919061245b565b610c64565b6040516102ea9190612acc565b60405180910390f35b61030d60048036038101906103089190612512565b610c97565b60405161031a9190612ab1565b60405180910390f35b61032b610d44565b6040516103389190612ae7565b60405180910390f35b610349610d68565b005b610353610df0565b6040516103609190612ae7565b60405180910390f35b610383600480360381019061037e919061245b565b610e14565b6040516103909190612b02565b60405180910390f35b6103a1610e6a565b6040516103ae9190612ae7565b60405180910390f35b6103bf610e8e565b6040516103cc9190612ab1565b60405180910390f35b6103ef60048036038101906103ea919061245b565b610eb8565b6040516103fc9190612acc565b60405180910390f35b61041f600480360381019061041a919061245b565b610eeb565b005b61043b600480360381019061043691906124ad565b611197565b6040516104489190612acc565b60405180910390f35b61046b6004803603810190610466919061245b565b611201565b6040516104789190612b02565b60405180910390f35b61049b6004803603810190610496919061245b565b611221565b005b6104a56114ac565b6040516104b29190612ae7565b60405180910390f35b6104d560048036038101906104d0919061245b565b6114b3565b005b6104f160048036038101906104ec91906124ad565b61177a565b005b61050d6004803603810190610508919061245b565b6117a3565b005b6105296004803603810190610524919061245b565b611a4f565b005b60007f7965db0b000000000000000000000000000000000000000000000000000000007bffffffffffffffffffffffffffffffffffffffffffffffffffffffff1916827bffffffffffffffffffffffffffffffffffffffffffffffffffffffff1916148061059e575061059d82611b47565b5b9050919050565b600360169054906101000a900460ff16156105f5576040517f08c379a00000000000000000000000000000000000000000000000000000000081526004016105ec90612c5f565b60405180910390fd5b6000600481111561062f577f4e487b7100000000000000000000000000000000000000000000000000000000600052602160045260246000fd5b600560008373ffffffffffffffffffffffffffffffffffffffff1673ffffffffffffffffffffffffffffffffffffffff16815260200190815260200160002060009054906101000a900460ff1660048111156106b4577f4e487b7100000000000000000000000000000000000000000000000000000000600052602160045260246000fd5b146106f4576040517f08c379a00000000000000000000000000000000000000000000000000000000081526004016106eb90612b5f565b60405180910390fd5b806004600060016004811115610733577f4e487b7100000000000000000000000000000000000000000000000000000000600052602160045260246000fd5b600481111561076b577f4e487b7100000000000000000000000000000000000000000000000000000000600052602160045260246000fd5b815260200190815260200160002060006101000a81548173ffffffffffffffffffffffffffffffffffffffff021916908373ffffffffffffffffffffffffffffffffffffffff1602179055506001600560008373ffffffffffffffffffffffffffffffffffffffff1673ffffffffffffffffffffffffffffffffffffffff16815260200190815260200160002060006101000a81548160ff02191690836004811115610840577f4e487b7100000000000000000000000000000000000000000000000000000000600052602160045260246000fd5b02179055506001600360166101000a81548160ff02191690831515021790555061086981611bb1565b50565b6000806000838152602001908152602001600020600101549050919050565b60006108b77fc9f41f19cd323609a8840e20c19f0688fff7f2c7796dc69350af80f75835f81583611197565b9050919050565b6108c78261086c565b6108d8816108d3611c21565b611c29565b6108e28383611cc6565b505050565b60046020528060005260406000206000915054906101000a900473ffffffffffffffffffffffffffffffffffffffff1681565b610922611c21565b73ffffffffffffffffffffffffffffffffffffffff168173ffffffffffffffffffffffffffffffffffffffff161461098f576040517f08c379a000000000000000000000000000000000000000000000000000000000815260040161098690612c7f565b60405180910390fd5b6109998282611da6565b5050565b600360149054906101000a900460ff16156109ed576040517f08c379a00000000000000000000000000000000000000000000000000000000081526004016109e490612c1f565b60405180910390fd5b60006004811115610a27577f4e487b7100000000000000000000000000000000000000000000000000000000600052602160045260246000fd5b600560008373ffffffffffffffffffffffffffffffffffffffff1673ffffffffffffffffffffffffffffffffffffffff16815260200190815260200160002060009054906101000a900460ff166004811115610aac577f4e487b7100000000000000000000000000000000000000000000000000000000600052602160045260246000fd5b14610aec576040517f08c379a0000000000000000000000000000000000000000000000000000000008152600401610ae390612b5f565b60405180910390fd5b806004600060026004811115610b2b577f4e487b7100000000000000000000000000000000000000000000000000000000600052602160045260246000fd5b6004811115610b63577f4e487b7100000000000000000000000000000000000000000000000000000000600052602160045260246000fd5b815260200190815260200160002060006101000a81548173ffffffffffffffffffffffffffffffffffffffff021916908373ffffffffffffffffffffffffffffffffffffffff1602179055506002600560008373ffffffffffffffffffffffffffffffffffffffff1673ffffffffffffffffffffffffffffffffffffffff16815260200190815260200160002060006101000a81548160ff02191690836004811115610c38577f4e487b7100000000000000000000000000000000000000000000000000000000600052602160045260246000fd5b02179055506001600360146101000a81548160ff021916908315150217905550610c6181611e87565b50565b6000610c907feb998ffefd22a823ed46d63e27357a1eefa908b6ba6804ac328694f77956b46983611197565b9050919050565b600060046000836004811115610cd6577f4e487b7100000000000000000000000000000000000000000000000000000000600052602160045260246000fd5b6004811115610d0e577f4e487b7100000000000000000000000000000000000000000000000000000000600052602160045260246000fd5b815260200190815260200160002060009054906101000a900473ffffffffffffffffffffffffffffffffffffffff169050919050565b7feb998ffefd22a823ed46d63e27357a1eefa908b6ba6804ac328694f77956b46981565b610d70611c21565b73ffffffffffffffffffffffffffffffffffffffff16610d8e610e8e565b73ffffffffffffffffffffffffffffffffffffffff1614610de4576040517f08c379a0000000000000000000000000000000000000000000000000000000008152600401610ddb90612c3f565b60405180910390fd5b610dee6000611ef7565b565b7fc9f41f19cd323609a8840e20c19f0688fff7f2c7796dc69350af80f75835f81581565b6000600560008373ffffffffffffffffffffffffffffffffffffffff1673ffffffffffffffffffffffffffffffffffffffff16815260200190815260200160002060009054906101000a900460ff169050919050565b7f5ddb3e3497f8f7f164aebc4d7f54dcf016e8cbf4b02588ee047dd5605a414dcb81565b6000600160009054906101000a900473ffffffffffffffffffffffffffffffffffffffff16905090565b6000610ee47f5ddb3e3497f8f7f164aebc4d7f54dcf016e8cbf4b02588ee047dd5605a414dcb83611197565b9050919050565b8073ffffffffffffffffffffffffffffffffffffffff166004600060026004811115610f40577f4e487b7100000000000000000000000000000000000000000000000000000000600052602160045260246000fd5b6004811115610f78577f4e487b7100000000000000000000000000000000000000000000000000000000600052602160045260246000fd5b815260200190815260200160002060009054906101000a900473ffffffffffffffffffffffffffffffffffffffff1673ffffffffffffffffffffffffffffffffffffffff1614610ffd576040517f08c379a0000000000000000000000000000000000000000000000000000000008152600401610ff490612b9f565b60405180910390fd5b6000600560008373ffffffffffffffffffffffffffffffffffffffff1673ffffffffffffffffffffffffffffffffffffffff16815260200190815260200160002060006101000a81548160ff02191690836004811115611086577f4e487b7100000000000000000000000000000000000000000000000000000000600052602160045260246000fd5b0217905550600360009054906101000a900473ffffffffffffffffffffffffffffffffffffffff1660046000600260048111156110ec577f4e487b7100000000000000000000000000000000000000000000000000000000600052602160045260246000fd5b6004811115611124577f4e487b7100000000000000000000000000000000000000000000000000000000600052602160045260246000fd5b815260200190815260200160002060006101000a81548173ffffffffffffffffffffffffffffffffffffffff021916908373ffffffffffffffffffffffffffffffffffffffff1602179055506000600360146101000a81548160ff02191690831515021790555061119481611fbd565b50565b600080600084815260200190815260200160002060000160008373ffffffffffffffffffffffffffffffffffffffff1673ffffffffffffffffffffffffffffffffffffffff16815260200190815260200160002060009054906101000a900460ff16905092915050565b60056020528060005260406000206000915054906101000a900460ff1681565b8073ffffffffffffffffffffffffffffffffffffffff166004600060016004811115611276577f4e487b7100000000000000000000000000000000000000000000000000000000600052602160045260246000fd5b60048111156112ae577f4e487b7100000000000000000000000000000000000000000000000000000000600052602160045260246000fd5b815260200190815260200160002060009054906101000a900473ffffffffffffffffffffffffffffffffffffffff1673ffffffffffffffffffffffffffffffffffffffff1614611333576040517f08c379a000000000000000000000000000000000000000000000000000000000815260040161132a90612b7f565b60405180910390fd5b6000600560008373ffffffffffffffffffffffffffffffffffffffff1673ffffffffffffffffffffffffffffffffffffffff16815260200190815260200160002060006101000a81548160ff021916908360048111156113bc577f4e487b7100000000000000000000000000000000000000000000000000000000600052602160045260246000fd5b021790555060006004600060016004811115611401577f4e487b7100000000000000000000000000000000000000000000000000000000600052602160045260246000fd5b6004811115611439577f4e487b7100000000000000000000000000000000000000000000000000000000600052602160045260246000fd5b815260200190815260200160002060006101000a81548173ffffffffffffffffffffffffffffffffffffffff021916908373ffffffffffffffffffffffffffffffffffffffff1602179055506000600360166101000a81548160ff0219169083151502179055506114a98161202d565b50565b6000801b81565b600360159054906101000a900460ff1615611503576040517f08c379a00000000000000000000000000000000000000000000000000000000081526004016114fa90612bff565b60405180910390fd5b6000600481111561153d577f4e487b7100000000000000000000000000000000000000000000000000000000600052602160045260246000fd5b600560008373ffffffffffffffffffffffffffffffffffffffff1673ffffffffffffffffffffffffffffffffffffffff16815260200190815260200160002060009054906101000a900460ff1660048111156115c2577f4e487b7100000000000000000000000000000000000000000000000000000000600052602160045260246000fd5b14611602576040517f08c379a00000000000000000000000000000000000000000000000000000000081526004016115f990612b5f565b60405180910390fd5b806004600060036004811115611641577f4e487b7100000000000000000000000000000000000000000000000000000000600052602160045260246000fd5b6004811115611679577f4e487b7100000000000000000000000000000000000000000000000000000000600052602160045260246000fd5b815260200190815260200160002060006101000a81548173ffffffffffffffffffffffffffffffffffffffff021916908373ffffffffffffffffffffffffffffffffffffffff1602179055506003600560008373ffffffffffffffffffffffffffffffffffffffff1673ffffffffffffffffffffffffffffffffffffffff16815260200190815260200160002060006101000a81548160ff0219169083600481111561174e577f4e487b7100000000000000000000000000000000000000000000000000000000600052602160045260246000fd5b02179055506001600360156101000a81548160ff02191690831515021790555061177781611e87565b50565b6117838261086c565b6117948161178f611c21565b611c29565b61179e8383611da6565b505050565b8073ffffffffffffffffffffffffffffffffffffffff1660046000600360048111156117f8577f4e487b7100000000000000000000000000000000000000000000000000000000600052602160045260246000fd5b6004811115611830577f4e487b7100000000000000000000000000000000000000000000000000000000600052602160045260246000fd5b815260200190815260200160002060009054906101000a900473ffffffffffffffffffffffffffffffffffffffff1673ffffffffffffffffffffffffffffffffffffffff16146118b5576040517f08c379a00000000000000000000000000000000000000000000000000000000081526004016118ac90612bdf565b60405180910390fd5b6000600560008373ffffffffffffffffffffffffffffffffffffffff1673ffffffffffffffffffffffffffffffffffffffff16815260200190815260200160002060006101000a81548160ff0219169083600481111561193e577f4e487b7100000000000000000000000000000000000000000000000000000000600052602160045260246000fd5b0217905550600360009054906101000a900473ffffffffffffffffffffffffffffffffffffffff1660046000600360048111156119a4577f4e487b7100000000000000000000000000000000000000000000000000000000600052602160045260246000fd5b60048111156119dc577f4e487b7100000000000000000000000000000000000000000000000000000000600052602160045260246000fd5b815260200190815260200160002060006101000a81548173ffffffffffffffffffffffffffffffffffffffff021916908373ffffffffffffffffffffffffffffffffffffffff1602179055506000600360156101000a81548160ff021916908315150217905550611a4c8161209d565b50565b611a57611c21565b73ffffffffffffffffffffffffffffffffffffffff16611a75610e8e565b73ffffffffffffffffffffffffffffffffffffffff1614611acb576040517f08c379a0000000000000000000000000000000000000000000000000000000008152600401611ac290612c3f565b60405180910390fd5b600073ffffffffffffffffffffffffffffffffffffffff168173ffffffffffffffffffffffffffffffffffffffff161415611b3b576040517f08c379a0000000000000000000000000000000000000000000000000000000008152600401611b3290612bbf565b60405180910390fd5b611b4481611ef7565b50565b60007f01ffc9a7000000000000000000000000000000000000000000000000000000007bffffffffffffffffffffffffffffffffffffffffffffffffffffffff1916827bffffffffffffffffffffffffffffffffffffffffffffffffffffffff1916149050919050565b611bdb7feb998ffefd22a823ed46d63e27357a1eefa908b6ba6804ac328694f77956b46982611cc6565b8073ffffffffffffffffffffffffffffffffffffffff167f387a6db0f68b316b57f3260da99c5aeffd87c39beb8948ce8303d61e541869a060405160405180910390a250565b600033905090565b611c338282611197565b611cc257611c588173ffffffffffffffffffffffffffffffffffffffff16601461210d565b611c668360001c602061210d565b604051602001611c77929190612a77565b6040516020818303038152906040526040517f08c379a0000000000000000000000000000000000000000000000000000000008152600401611cb99190612b1d565b60405180910390fd5b5050565b611cd08282611197565b611da257600160008084815260200190815260200160002060000160008373ffffffffffffffffffffffffffffffffffffffff1673ffffffffffffffffffffffffffffffffffffffff16815260200190815260200160002060006101000a81548160ff021916908315150217905550611d47611c21565b73ffffffffffffffffffffffffffffffffffffffff168173ffffffffffffffffffffffffffffffffffffffff16837f2f8788117e7eff1d82e926ec794901d17c78024a50270940304540a733656f0d60405160405180910390a45b5050565b611db08282611197565b15611e8357600080600084815260200190815260200160002060000160008373ffffffffffffffffffffffffffffffffffffffff1673ffffffffffffffffffffffffffffffffffffffff16815260200190815260200160002060006101000a81548160ff021916908315150217905550611e28611c21565b73ffffffffffffffffffffffffffffffffffffffff168173ffffffffffffffffffffffffffffffffffffffff16837ff6391f5c32d9c69d2a47ea670b442974b53935d1edc7fd64eb21e047a839171b60405160405180910390a45b5050565b611eb17fc9f41f19cd323609a8840e20c19f0688fff7f2c7796dc69350af80f75835f81582611cc6565b8073ffffffffffffffffffffffffffffffffffffffff167f98980d7f599134323351c537f72e6e91717e3b79333a908281c16eba585a455760405160405180910390a250565b6000600160009054906101000a900473ffffffffffffffffffffffffffffffffffffffff16905081600160006101000a81548173ffffffffffffffffffffffffffffffffffffffff021916908373ffffffffffffffffffffffffffffffffffffffff1602179055508173ffffffffffffffffffffffffffffffffffffffff168173ffffffffffffffffffffffffffffffffffffffff167f8be0079c531659141344cd1fd0a4f28419497f9722a3daafe3b4186f6b6457e060405160405180910390a35050565b611fe77fc9f41f19cd323609a8840e20c19f0688fff7f2c7796dc69350af80f75835f81582611da6565b8073ffffffffffffffffffffffffffffffffffffffff167f97777ba2e5fcee6d754cfc5ef55c7906082b5f8304c0612b37538176814d8b6260405160405180910390a250565b6120577feb998ffefd22a823ed46d63e27357a1eefa908b6ba6804ac328694f77956b46982611da6565b8073ffffffffffffffffffffffffffffffffffffffff167f78f1966a437b216b79694eba11d816b9d0e19de3271c193a3644850e9d6b3a8460405160405180910390a250565b6120c77f5ddb3e3497f8f7f164aebc4d7f54dcf016e8cbf4b02588ee047dd5605a414dcb82611da6565b8073ffffffffffffffffffffffffffffffffffffffff167f0301d300f7ffcdac7be324e8f0935a454bd86464697c0c9eea742da99310867460405160405180910390a250565b6060600060028360026121209190612d1c565b61212a9190612cc6565b67ffffffffffffffff811115612169577f4e487b7100000000000000000000000000000000000000000000000000000000600052604160045260246000fd5b6040519080825280601f01601f19166020018201604052801561219b5781602001600182028036833780820191505090505b5090507f3000000000000000000000000000000000000000000000000000000000000000816000815181106121f9577f4e487b7100000000000000000000000000000000000000000000000000000000600052603260045260246000fd5b60200101907effffffffffffffffffffffffffffffffffffffffffffffffffffffffffffff1916908160001a9053507f780000000000000000000000000000000000000000000000000000000000000081600181518110612283577f4e487b7100000000000000000000000000000000000000000000000000000000600052603260045260246000fd5b60200101907effffffffffffffffffffffffffffffffffffffffffffffffffffffffffffff1916908160001a905350600060018460026122c39190612d1c565b6122cd9190612cc6565b90505b60018111156123b9577f3031323334353637383961626364656600000000000000000000000000000000600f861660108110612335577f4e487b7100000000000000000000000000000000000000000000000000000000600052603260045260246000fd5b1a60f81b828281518110612372577f4e487b7100000000000000000000000000000000000000000000000000000000600052603260045260246000fd5b60200101907effffffffffffffffffffffffffffffffffffffffffffffffffffffffffffff1916908160001a905350600485901c9450806123b290612e4c565b90506122d0565b50600084146123fd576040517f08c379a00000000000000000000000000000000000000000000000000000000081526004016123f490612b3f565b60405180910390fd5b8091505092915050565b60008135905061241681612ef9565b92915050565b60008135905061242b81612f10565b92915050565b60008135905061244081612f27565b92915050565b60008135905061245581612f3e565b92915050565b60006020828403121561246d57600080fd5b600061247b84828501612407565b91505092915050565b60006020828403121561249657600080fd5b60006124a48482850161241c565b91505092915050565b600080604083850312156124c057600080fd5b60006124ce8582860161241c565b92505060206124df85828601612407565b9150509250929050565b6000602082840312156124fb57600080fd5b600061250984828501612431565b91505092915050565b60006020828403121561252457600080fd5b600061253284828501612446565b91505092915050565b61254481612d76565b82525050565b61255381612d88565b82525050565b61256281612d94565b82525050565b61257181612e07565b82525050565b600061258282612c9f565b61258c8185612caa565b935061259c818560208601612e19565b6125a581612ed4565b840191505092915050565b60006125bb82612c9f565b6125c58185612cbb565b93506125d5818560208601612e19565b80840191505092915050565b60006125ee602083612caa565b91507f537472696e67733a20686578206c656e67746820696e73756666696369656e746000830152602082019050919050565b600061262e602583612caa565b91507f45737461206375656e7461207961206573746120617369676e6164612061207560008301527f6e20726f6c0000000000000000000000000000000000000000000000000000006020830152604082019050919050565b6000612694602683612caa565b91507f45737461206375656e7461206e6f207469656e6520726f6c207472616e73706f60008301527f72746973746100000000000000000000000000000000000000000000000000006020830152604082019050919050565b60006126fa602783612caa565b91507f45737461206375656e7461206e6f207469656e6520726f6c206465206c61626f60008301527f7261746f72696f000000000000000000000000000000000000000000000000006020830152604082019050919050565b6000612760602683612caa565b91507f4f776e61626c653a206e6577206f776e657220697320746865207a65726f206160008301527f64647265737300000000000000000000000000000000000000000000000000006020830152604082019050919050565b60006127c6602283612caa565b91507f45737461206375656e7461206e6f207469656e6520726f6c2064652063656e7460008301527f726f0000000000000000000000000000000000000000000000000000000000006020830152604082019050919050565b600061282c603583612caa565b91507f59612068617920756e20726573706f6e7361626c652064656c2063656e74726f60008301527f20646520766163756e6163696f6e2063726561646f00000000000000000000006020830152604082019050919050565b6000612892602d83612caa565b91507f59612068617920756e206c61626f7261746f72696f2063726561646f2c20656c60008301527f696d696e616c6f20616e746573000000000000000000000000000000000000006020830152604082019050919050565b60006128f8602083612caa565b91507f4f776e61626c653a2063616c6c6572206973206e6f7420746865206f776e65726000830152602082019050919050565b6000612938601783612cbb565b91507f416363657373436f6e74726f6c3a206163636f756e74200000000000000000006000830152601782019050919050565b6000612978602f83612caa565b91507f59612068617920756e207472616e73706f7274697374612063726561646f2c2060008301527f656c696d696e616c6f20616e74657300000000000000000000000000000000006020830152604082019050919050565b60006129de601183612cbb565b91507f206973206d697373696e6720726f6c65200000000000000000000000000000006000830152601182019050919050565b6000612a1e602f83612caa565b91507f416363657373436f6e74726f6c3a2063616e206f6e6c792072656e6f756e636560008301527f20726f6c657320666f722073656c6600000000000000000000000000000000006020830152604082019050919050565b6000612a828261292b565b9150612a8e82856125b0565b9150612a99826129d1565b9150612aa582846125b0565b91508190509392505050565b6000602082019050612ac6600083018461253b565b92915050565b6000602082019050612ae1600083018461254a565b92915050565b6000602082019050612afc6000830184612559565b92915050565b6000602082019050612b176000830184612568565b92915050565b60006020820190508181036000830152612b378184612577565b905092915050565b60006020820190508181036000830152612b58816125e1565b9050919050565b60006020820190508181036000830152612b7881612621565b9050919050565b60006020820190508181036000830152612b9881612687565b9050919050565b60006020820190508181036000830152612bb8816126ed565b9050919050565b60006020820190508181036000830152612bd881612753565b9050919050565b60006020820190508181036000830152612bf8816127b9565b9050919050565b60006020820190508181036000830152612c188161281f565b9050919050565b60006020820190508181036000830152612c3881612885565b9050919050565b60006020820190508181036000830152612c58816128eb565b9050919050565b60006020820190508181036000830152612c788161296b565b9050919050565b60006020820190508181036000830152612c9881612a11565b9050919050565b600081519050919050565b600082825260208201905092915050565b600081905092915050565b6000612cd182612dfd565b9150612cdc83612dfd565b9250827fffffffffffffffffffffffffffffffffffffffffffffffffffffffffffffffff03821115612d1157612d10612e76565b5b828201905092915050565b6000612d2782612dfd565b9150612d3283612dfd565b9250817fffffffffffffffffffffffffffffffffffffffffffffffffffffffffffffffff0483118215151615612d6b57612d6a612e76565b5b828202905092915050565b6000612d8182612ddd565b9050919050565b60008115159050919050565b6000819050919050565b60007fffffffff0000000000000000000000000000000000000000000000000000000082169050919050565b6000819050612dd882612ee5565b919050565b600073ffffffffffffffffffffffffffffffffffffffff82169050919050565b6000819050919050565b6000612e1282612dca565b9050919050565b60005b83811015612e37578082015181840152602081019050612e1c565b83811115612e46576000848401525b50505050565b6000612e5782612dfd565b91506000821415612e6b57612e6a612e76565b5b600182039050919050565b7f4e487b7100000000000000000000000000000000000000000000000000000000600052601160045260246000fd5b7f4e487b7100000000000000000000000000000000000000000000000000000000600052602160045260246000fd5b6000601f19601f8301169050919050565b60058110612ef657612ef5612ea5565b5b50565b612f0281612d76565b8114612f0d57600080fd5b50565b612f1981612d94565b8114612f2457600080fd5b50565b612f3081612d9e565b8114612f3b57600080fd5b50565b60058110612f4b57600080fd5b5056fea264697066735822122047ce9818aceea61d755621822b662acfe8618594573ce9e2a932d85c96a64cd564736f6c63430008000033",
  "immutableReferences": {},
  "source": "// SPDX-License-Identifier: GPL-3.0\npragma solidity >=0.6.0 <0.9.0;\n\nimport './roles/LaboratoryRole.sol';\nimport './roles/CarrierRole.sol';\nimport './roles/VaccineCenterRole.sol';\n/**\n * @title Vacine Network Model\n */\ncontract VaccineNetwork is LaboratoryRole, CarrierRole, VaccineCenterRole {\n    uint transport_phases;\n    address empty = 0x0000000000000000000000000000000000000000;\n    bool laboratory = false;\n    bool center = false;\n    bool carrier = false;\n    enum Rol {None, Carrier, Laboratory, VaccineCenter, Admin}\n\n    mapping(Rol => address) public users;\n     mapping(address => Rol) public roles;\n\n\n    //Add Laboratory role to an account. Only admin account can use it.\n    function addLaboratory(address account) public {\n        require(!laboratory, \"Ya hay un laboratorio creado, eliminalo antes\");\n        require(roles[account] == Rol.None, \"Esta cuenta ya esta asignada a un rol\");\n        users[Rol.Laboratory] = account;\n        roles[account] = Rol.Laboratory;\n        laboratory = true;\n        _addLaboratory(account);\n    }\n\n      //Remove laboratory role of an account. Only admin account can use it. \n    function removeLaboratory(address account) public {\n        require(users[Rol.Laboratory] == account, \"Esta cuenta no tiene rol de laboratorio\");\n        roles[account] = Rol.None;\n        users[Rol.Laboratory] = empty;\n        laboratory = false;\n        _removeLaboratory(account);\n    }\n\n    //Add VaccineCenter role to an account. Only admin account can use it.\n    function addVaccineCenter(address account) public {\n        require(!center, \"Ya hay un responsable del centro de vacunacion creado\");\n        require(roles[account] == Rol.None, \"Esta cuenta ya esta asignada a un rol\");\n        users[Rol.VaccineCenter] = account;\n        roles[account] = Rol.VaccineCenter;\n        center = true;\n        _addLaboratory(account);\n    }\n\n    //Remove VaccineCenter role of an account. Only admin account can use it. \n    function removeVaccineCenter(address account) public {\n        require(users[Rol.VaccineCenter] == account, \"Esta cuenta no tiene rol de centro\");\n        roles[account] = Rol.None;\n        users[Rol.VaccineCenter] = empty;\n        center = false;\n        _removeVaccineCenter(account);\n    }\n\n    //Add Carrier role to an account. Only admin account can use it.\n    function addCarrier(address account) public {\n        require(!carrier, \"Ya hay un transportista creado, eliminalo antes\");\n        require(roles[account] == Rol.None, \"Esta cuenta ya esta asignada a un rol\");\n        users[Rol.Carrier] = account;\n        roles[account] = Rol.Carrier;\n        carrier = true;\n        _addCarrier(account);\n    }\n\n    //Remove Carrier role of an account. Only admin account can use it. \n    function removeCarrier(address account) public {\n        require(users[Rol.Carrier] == account, \"Esta cuenta no tiene rol transportista\");\n        roles[account] = Rol.None;\n        users[Rol.Carrier] = 0x0000000000000000000000000000000000000000;\n        carrier = false;\n        _removeCarrier(account);\n    }\n\n    function getAccountRole (address _address) public view returns (Rol) {\n        return roles[_address];\n    }\n\n    function getRoleAccount (Rol _rol) public view returns (address) {\n        return users[_rol];\n    }\n\n}",
  "sourcePath": "/Users/tfm/Desktop/Drizzle-tuto-master/contracts/vaccineNetwork.sol",
  "compiler": {
    "name": "solc",
    "version": "0.8.0+commit.c7dfd78e.Emscripten.clang"
  },
  "schemaVersion": "3.4.7",
  "updatedAt": "2022-04-21T02:10:09.848Z",
  "networkType": "ethereum",
  "devdoc": {
    "kind": "dev",
    "methods": {
      "getRoleAdmin(bytes32)": {
        "details": "Returns the admin role that controls `role`. See {grantRole} and {revokeRole}. To change a role's admin, use {_setRoleAdmin}."
      },
      "grantRole(bytes32,address)": {
        "details": "Grants `role` to `account`. If `account` had not been already granted `role`, emits a {RoleGranted} event. Requirements: - the caller must have ``role``'s admin role."
      },
      "hasRole(bytes32,address)": {
        "details": "Returns `true` if `account` has been granted `role`."
      },
      "owner()": {
        "details": "Returns the address of the current owner."
      },
      "renounceOwnership()": {
        "details": "Leaves the contract without owner. It will not be possible to call `onlyOwner` functions anymore. Can only be called by the current owner. NOTE: Renouncing ownership will leave the contract without an owner, thereby removing any functionality that is only available to the owner."
      },
      "renounceRole(bytes32,address)": {
        "details": "Revokes `role` from the calling account. Roles are often managed via {grantRole} and {revokeRole}: this function's purpose is to provide a mechanism for accounts to lose their privileges if they are compromised (such as when a trusted device is misplaced). If the calling account had been revoked `role`, emits a {RoleRevoked} event. Requirements: - the caller must be `account`."
      },
      "revokeRole(bytes32,address)": {
        "details": "Revokes `role` from `account`. If `account` had been granted `role`, emits a {RoleRevoked} event. Requirements: - the caller must have ``role``'s admin role."
      },
      "supportsInterface(bytes4)": {
        "details": "See {IERC165-supportsInterface}."
      },
      "transferOwnership(address)": {
        "details": "Transfers ownership of the contract to a new account (`newOwner`). Can only be called by the current owner."
      }
    },
    "title": "Vacine Network Model",
    "version": 1
  },
  "userdoc": {
    "kind": "user",
    "methods": {},
    "version": 1
  }
}