{
  "contractName": "VaccineNetwork",
  "abi": [
    {
      "anonymous": false,
      "inputs": [
        {
          "indexed": true,
          "internalType": "address",
          "name": "previousOwner",
          "type": "address"
        },
        {
          "indexed": true,
          "internalType": "address",
          "name": "newOwner",
          "type": "address"
        }
      ],
      "name": "OwnershipTransferred",
      "type": "event"
    },
    {
      "anonymous": false,
      "inputs": [
        {
          "indexed": true,
          "internalType": "bytes32",
          "name": "role",
          "type": "bytes32"
        },
        {
          "indexed": true,
          "internalType": "bytes32",
          "name": "previousAdminRole",
          "type": "bytes32"
        },
        {
          "indexed": true,
          "internalType": "bytes32",
          "name": "newAdminRole",
          "type": "bytes32"
        }
      ],
      "name": "RoleAdminChanged",
      "type": "event"
    },
    {
      "anonymous": false,
      "inputs": [
        {
          "indexed": true,
          "internalType": "bytes32",
          "name": "role",
          "type": "bytes32"
        },
        {
          "indexed": true,
          "internalType": "address",
          "name": "account",
          "type": "address"
        },
        {
          "indexed": true,
          "internalType": "address",
          "name": "sender",
          "type": "address"
        }
      ],
      "name": "RoleGranted",
      "type": "event"
    },
    {
      "anonymous": false,
      "inputs": [
        {
          "indexed": true,
          "internalType": "bytes32",
          "name": "role",
          "type": "bytes32"
        },
        {
          "indexed": true,
          "internalType": "address",
          "name": "account",
          "type": "address"
        },
        {
          "indexed": true,
          "internalType": "address",
          "name": "sender",
          "type": "address"
        }
      ],
      "name": "RoleRevoked",
      "type": "event"
    },
    {
      "anonymous": false,
      "inputs": [
        {
          "indexed": true,
          "internalType": "address",
          "name": "account",
          "type": "address"
        }
      ],
      "name": "carrierAdded",
      "type": "event"
    },
    {
      "anonymous": false,
      "inputs": [
        {
          "indexed": true,
          "internalType": "address",
          "name": "account",
          "type": "address"
        }
      ],
      "name": "carrierRemoved",
      "type": "event"
    },
    {
      "anonymous": false,
      "inputs": [
        {
          "indexed": true,
          "internalType": "address",
          "name": "account",
          "type": "address"
        }
      ],
      "name": "laboratoryAdded",
      "type": "event"
    },
    {
      "anonymous": false,
      "inputs": [
        {
          "indexed": true,
          "internalType": "address",
          "name": "account",
          "type": "address"
        }
      ],
      "name": "laboratoryRemoved",
      "type": "event"
    },
    {
      "anonymous": false,
      "inputs": [
        {
          "indexed": true,
          "internalType": "address",
          "name": "account",
          "type": "address"
        }
      ],
      "name": "vaccineCenterAdded",
      "type": "event"
    },
    {
      "anonymous": false,
      "inputs": [
        {
          "indexed": true,
          "internalType": "address",
          "name": "account",
          "type": "address"
        }
      ],
      "name": "vaccineCenterRemoved",
      "type": "event"
    },
    {
      "inputs": [],
      "name": "CARRIER_ROLE",
      "outputs": [
        {
          "internalType": "bytes32",
          "name": "",
          "type": "bytes32"
        }
      ],
      "stateMutability": "view",
      "type": "function",
      "constant": true
    },
    {
      "inputs": [],
      "name": "DEFAULT_ADMIN_ROLE",
      "outputs": [
        {
          "internalType": "bytes32",
          "name": "",
          "type": "bytes32"
        }
      ],
      "stateMutability": "view",
      "type": "function",
      "constant": true
    },
    {
      "inputs": [],
      "name": "LABORATORY_ROLE",
      "outputs": [
        {
          "internalType": "bytes32",
          "name": "",
          "type": "bytes32"
        }
      ],
      "stateMutability": "view",
      "type": "function",
      "constant": true
    },
    {
      "inputs": [],
      "name": "VC_ROLE",
      "outputs": [
        {
          "internalType": "bytes32",
          "name": "",
          "type": "bytes32"
        }
      ],
      "stateMutability": "view",
      "type": "function",
      "constant": true
    },
    {
      "inputs": [
        {
          "internalType": "bytes32",
          "name": "role",
          "type": "bytes32"
        }
      ],
      "name": "getRoleAdmin",
      "outputs": [
        {
          "internalType": "bytes32",
          "name": "",
          "type": "bytes32"
        }
      ],
      "stateMutability": "view",
      "type": "function",
      "constant": true
    },
    {
      "inputs": [
        {
          "internalType": "bytes32",
          "name": "role",
          "type": "bytes32"
        },
        {
          "internalType": "address",
          "name": "account",
          "type": "address"
        }
      ],
      "name": "grantRole",
      "outputs": [],
      "stateMutability": "nonpayable",
      "type": "function"
    },
    {
      "inputs": [
        {
          "internalType": "bytes32",
          "name": "role",
          "type": "bytes32"
        },
        {
          "internalType": "address",
          "name": "account",
          "type": "address"
        }
      ],
      "name": "hasRole",
      "outputs": [
        {
          "internalType": "bool",
          "name": "",
          "type": "bool"
        }
      ],
      "stateMutability": "view",
      "type": "function",
      "constant": true
    },
    {
      "inputs": [
        {
          "internalType": "address",
          "name": "account",
          "type": "address"
        }
      ],
      "name": "isCarrier",
      "outputs": [
        {
          "internalType": "bool",
          "name": "",
          "type": "bool"
        }
      ],
      "stateMutability": "view",
      "type": "function",
      "constant": true
    },
    {
      "inputs": [
        {
          "internalType": "address",
          "name": "account",
          "type": "address"
        }
      ],
      "name": "isLaboratory",
      "outputs": [
        {
          "internalType": "bool",
          "name": "",
          "type": "bool"
        }
      ],
      "stateMutability": "view",
      "type": "function",
      "constant": true
    },
    {
      "inputs": [
        {
          "internalType": "address",
          "name": "account",
          "type": "address"
        }
      ],
      "name": "isVaccineCenter",
      "outputs": [
        {
          "internalType": "bool",
          "name": "",
          "type": "bool"
        }
      ],
      "stateMutability": "view",
      "type": "function",
      "constant": true
    },
    {
      "inputs": [],
      "name": "owner",
      "outputs": [
        {
          "internalType": "address",
          "name": "",
          "type": "address"
        }
      ],
      "stateMutability": "view",
      "type": "function",
      "constant": true
    },
    {
      "inputs": [],
      "name": "renounceOwnership",
      "outputs": [],
      "stateMutability": "nonpayable",
      "type": "function"
    },
    {
      "inputs": [
        {
          "internalType": "bytes32",
          "name": "role",
          "type": "bytes32"
        },
        {
          "internalType": "address",
          "name": "account",
          "type": "address"
        }
      ],
      "name": "renounceRole",
      "outputs": [],
      "stateMutability": "nonpayable",
      "type": "function"
    },
    {
      "inputs": [
        {
          "internalType": "bytes32",
          "name": "role",
          "type": "bytes32"
        },
        {
          "internalType": "address",
          "name": "account",
          "type": "address"
        }
      ],
      "name": "revokeRole",
      "outputs": [],
      "stateMutability": "nonpayable",
      "type": "function"
    },
    {
      "inputs": [
        {
          "internalType": "address",
          "name": "",
          "type": "address"
        }
      ],
      "name": "roles",
      "outputs": [
        {
          "internalType": "enum VaccineNetwork.Rol",
          "name": "",
          "type": "uint8"
        }
      ],
      "stateMutability": "view",
      "type": "function",
      "constant": true
    },
    {
      "inputs": [
        {
          "internalType": "bytes4",
          "name": "interfaceId",
          "type": "bytes4"
        }
      ],
      "name": "supportsInterface",
      "outputs": [
        {
          "internalType": "bool",
          "name": "",
          "type": "bool"
        }
      ],
      "stateMutability": "view",
      "type": "function",
      "constant": true
    },
    {
      "inputs": [
        {
          "internalType": "address",
          "name": "newOwner",
          "type": "address"
        }
      ],
      "name": "transferOwnership",
      "outputs": [],
      "stateMutability": "nonpayable",
      "type": "function"
    },
    {
      "inputs": [
        {
          "internalType": "enum VaccineNetwork.Rol",
          "name": "",
          "type": "uint8"
        }
      ],
      "name": "users",
      "outputs": [
        {
          "internalType": "address",
          "name": "",
          "type": "address"
        }
      ],
      "stateMutability": "view",
      "type": "function",
      "constant": true
    },
    {
      "inputs": [
        {
          "internalType": "address",
          "name": "account",
          "type": "address"
        }
      ],
      "name": "addLaboratory",
      "outputs": [],
      "stateMutability": "nonpayable",
      "type": "function"
    },
    {
      "inputs": [
        {
          "internalType": "address",
          "name": "account",
          "type": "address"
        }
      ],
      "name": "removeLaboratory",
      "outputs": [],
      "stateMutability": "nonpayable",
      "type": "function"
    },
    {
      "inputs": [
        {
          "internalType": "address",
          "name": "account",
          "type": "address"
        }
      ],
      "name": "addVaccineCenter",
      "outputs": [],
      "stateMutability": "nonpayable",
      "type": "function"
    },
    {
      "inputs": [
        {
          "internalType": "address",
          "name": "account",
          "type": "address"
        }
      ],
      "name": "removeVaccineCenter",
      "outputs": [],
      "stateMutability": "nonpayable",
      "type": "function"
    },
    {
      "inputs": [
        {
          "internalType": "address",
          "name": "account",
          "type": "address"
        }
      ],
      "name": "addCarrier",
      "outputs": [],
      "stateMutability": "nonpayable",
      "type": "function"
    },
    {
      "inputs": [
        {
          "internalType": "address",
          "name": "account",
          "type": "address"
        }
      ],
      "name": "removeCarrier",
      "outputs": [],
      "stateMutability": "nonpayable",
      "type": "function"
    },
    {
      "inputs": [
        {
          "internalType": "address",
          "name": "_address",
          "type": "address"
        }
      ],
      "name": "getAccountRole",
      "outputs": [
        {
          "internalType": "enum VaccineNetwork.Rol",
          "name": "",
          "type": "uint8"
        }
      ],
      "stateMutability": "view",
      "type": "function",
      "constant": true
    }
  ],
  "bytecode": "0x60806040526000600360006101000a81548173ffffffffffffffffffffffffffffffffffffffff021916908373ffffffffffffffffffffffffffffffffffffffff1602179055506000600360146101000a81548160ff0219169083151502179055506000600360156101000a81548160ff0219169083151502179055506000600360166101000a81548160ff021916908315150217905550348015620000a457600080fd5b50620000c5620000b9620000cb60201b60201c565b620000d360201b60201c565b62000199565b600033905090565b6000600160009054906101000a900473ffffffffffffffffffffffffffffffffffffffff16905081600160006101000a81548173ffffffffffffffffffffffffffffffffffffffff021916908373ffffffffffffffffffffffffffffffffffffffff1602179055508173ffffffffffffffffffffffffffffffffffffffff168173ffffffffffffffffffffffffffffffffffffffff167f8be0079c531659141344cd1fd0a4f28419497f9722a3daafe3b4186f6b6457e060405160405180910390a35050565b61281280620001a96000396000f3fe608060405234801561001057600080fd5b50600436106101735760003560e01c806381d66b23116100de5780639937464211610097578063c714bae411610071578063c714bae414610470578063d547741f1461048c578063eca48fd7146104a8578063f2fde38b146104c457610173565b806399374642146104065780639e2fe90a14610436578063a217fddf1461045257610173565b806381d66b231461031e578063857aa71a1461034e5780638da5cb5b1461036c5780638e08aed61461038a5780638fadae90146103ba57806391d14854146103d657610173565b806336568abe1161013057806336568abe14610270578063404203b91461028c578063436a34ee146102a857806365a1be48146102d8578063715018a6146102f65780637fe212431461030057610173565b806301ffc9a71461017857806314e8f8d3146101a8578063248a9ca3146101c457806327706584146101f45780632f2ff15d1461022457806332f8036314610240575b600080fd5b610192600480360381019061018d9190611ecf565b6104e0565b60405161019f919061239a565b60405180910390f35b6101c260048036038101906101bd9190611e41565b61055a565b005b6101de60048036038101906101d99190611e6a565b610722565b6040516101eb91906123b5565b60405180910390f35b61020e60048036038101906102099190611e41565b610741565b60405161021b919061239a565b60405180910390f35b61023e60048036038101906102399190611e93565b610774565b005b61025a60048036038101906102559190611ef8565b61079d565b604051610267919061237f565b60405180910390f35b61028a60048036038101906102859190611e93565b6107d0565b005b6102a660048036038101906102a19190611e41565b610853565b005b6102c260048036038101906102bd9190611e41565b610a1b565b6040516102cf919061239a565b60405180910390f35b6102e0610a4e565b6040516102ed91906123b5565b60405180910390f35b6102fe610a72565b005b610308610afa565b60405161031591906123b5565b60405180910390f35b61033860048036038101906103339190611e41565b610b1e565b60405161034591906123d0565b60405180910390f35b610356610b74565b60405161036391906123b5565b60405180910390f35b610374610b98565b604051610381919061237f565b60405180910390f35b6103a4600480360381019061039f9190611e41565b610bc2565b6040516103b1919061239a565b60405180910390f35b6103d460048036038101906103cf9190611e41565b610bf5565b005b6103f060048036038101906103eb9190611e93565b610ddf565b6040516103fd919061239a565b60405180910390f35b610420600480360381019061041b9190611e41565b610e49565b60405161042d91906123d0565b60405180910390f35b610450600480360381019061044b9190611e41565b610e69565b005b61045a611053565b60405161046791906123b5565b60405180910390f35b61048a60048036038101906104859190611e41565b61105a565b005b6104a660048036038101906104a19190611e93565b611222565b005b6104c260048036038101906104bd9190611e41565b61124b565b005b6104de60048036038101906104d99190611e41565b611435565b005b60007f7965db0b000000000000000000000000000000000000000000000000000000007bffffffffffffffffffffffffffffffffffffffffffffffffffffffff1916827bffffffffffffffffffffffffffffffffffffffffffffffffffffffff1916148061055357506105528261152d565b5b9050919050565b600360169054906101000a900460ff16156105aa576040517f08c379a00000000000000000000000000000000000000000000000000000000081526004016105a1906124ed565b60405180910390fd5b8060046000600160048111156105e9577f4e487b7100000000000000000000000000000000000000000000000000000000600052602160045260246000fd5b6004811115610621577f4e487b7100000000000000000000000000000000000000000000000000000000600052602160045260246000fd5b815260200190815260200160002060006101000a81548173ffffffffffffffffffffffffffffffffffffffff021916908373ffffffffffffffffffffffffffffffffffffffff1602179055506001600560008373ffffffffffffffffffffffffffffffffffffffff1673ffffffffffffffffffffffffffffffffffffffff16815260200190815260200160002060006101000a81548160ff021916908360048111156106f6577f4e487b7100000000000000000000000000000000000000000000000000000000600052602160045260246000fd5b02179055506001600360146101000a81548160ff02191690831515021790555061071f81611597565b50565b6000806000838152602001908152602001600020600101549050919050565b600061076d7fc9f41f19cd323609a8840e20c19f0688fff7f2c7796dc69350af80f75835f81583610ddf565b9050919050565b61077d82610722565b61078e81610789611607565b61160f565b61079883836116ac565b505050565b60046020528060005260406000206000915054906101000a900473ffffffffffffffffffffffffffffffffffffffff1681565b6107d8611607565b73ffffffffffffffffffffffffffffffffffffffff168173ffffffffffffffffffffffffffffffffffffffff1614610845576040517f08c379a000000000000000000000000000000000000000000000000000000000815260040161083c9061250d565b60405180910390fd5b61084f828261178c565b5050565b600360149054906101000a900460ff16156108a3576040517f08c379a000000000000000000000000000000000000000000000000000000000815260040161089a9061246d565b60405180910390fd5b8060046000600260048111156108e2577f4e487b7100000000000000000000000000000000000000000000000000000000600052602160045260246000fd5b600481111561091a577f4e487b7100000000000000000000000000000000000000000000000000000000600052602160045260246000fd5b815260200190815260200160002060006101000a81548173ffffffffffffffffffffffffffffffffffffffff021916908373ffffffffffffffffffffffffffffffffffffffff1602179055506002600560008373ffffffffffffffffffffffffffffffffffffffff1673ffffffffffffffffffffffffffffffffffffffff16815260200190815260200160002060006101000a81548160ff021916908360048111156109ef577f4e487b7100000000000000000000000000000000000000000000000000000000600052602160045260246000fd5b02179055506001600360146101000a81548160ff021916908315150217905550610a188161186d565b50565b6000610a477feb998ffefd22a823ed46d63e27357a1eefa908b6ba6804ac328694f77956b46983610ddf565b9050919050565b7feb998ffefd22a823ed46d63e27357a1eefa908b6ba6804ac328694f77956b46981565b610a7a611607565b73ffffffffffffffffffffffffffffffffffffffff16610a98610b98565b73ffffffffffffffffffffffffffffffffffffffff1614610aee576040517f08c379a0000000000000000000000000000000000000000000000000000000008152600401610ae5906124cd565b60405180910390fd5b610af860006118dd565b565b7fc9f41f19cd323609a8840e20c19f0688fff7f2c7796dc69350af80f75835f81581565b6000600560008373ffffffffffffffffffffffffffffffffffffffff1673ffffffffffffffffffffffffffffffffffffffff16815260200190815260200160002060009054906101000a900460ff169050919050565b7f5ddb3e3497f8f7f164aebc4d7f54dcf016e8cbf4b02588ee047dd5605a414dcb81565b6000600160009054906101000a900473ffffffffffffffffffffffffffffffffffffffff16905090565b6000610bee7f5ddb3e3497f8f7f164aebc4d7f54dcf016e8cbf4b02588ee047dd5605a414dcb83610ddf565b9050919050565b600360009054906101000a900473ffffffffffffffffffffffffffffffffffffffff1673ffffffffffffffffffffffffffffffffffffffff166004600060026004811115610c6c577f4e487b7100000000000000000000000000000000000000000000000000000000600052602160045260246000fd5b6004811115610ca4577f4e487b7100000000000000000000000000000000000000000000000000000000600052602160045260246000fd5b815260200190815260200160002060009054906101000a900473ffffffffffffffffffffffffffffffffffffffff1673ffffffffffffffffffffffffffffffffffffffff161415610d2a576040517f08c379a0000000000000000000000000000000000000000000000000000000008152600401610d219061242d565b60405180910390fd5b6004600560008373ffffffffffffffffffffffffffffffffffffffff1673ffffffffffffffffffffffffffffffffffffffff16815260200190815260200160002060006101000a81548160ff02191690836004811115610db3577f4e487b7100000000000000000000000000000000000000000000000000000000600052602160045260246000fd5b02179055506000600360146101000a81548160ff021916908315150217905550610ddc816119a3565b50565b600080600084815260200190815260200160002060000160008373ffffffffffffffffffffffffffffffffffffffff1673ffffffffffffffffffffffffffffffffffffffff16815260200190815260200160002060009054906101000a900460ff16905092915050565b60056020528060005260406000206000915054906101000a900460ff1681565b600360009054906101000a900473ffffffffffffffffffffffffffffffffffffffff1673ffffffffffffffffffffffffffffffffffffffff166004600060016004811115610ee0577f4e487b7100000000000000000000000000000000000000000000000000000000600052602160045260246000fd5b6004811115610f18577f4e487b7100000000000000000000000000000000000000000000000000000000600052602160045260246000fd5b815260200190815260200160002060009054906101000a900473ffffffffffffffffffffffffffffffffffffffff1673ffffffffffffffffffffffffffffffffffffffff161415610f9e576040517f08c379a0000000000000000000000000000000000000000000000000000000008152600401610f959061248d565b60405180910390fd5b6004600560008373ffffffffffffffffffffffffffffffffffffffff1673ffffffffffffffffffffffffffffffffffffffff16815260200190815260200160002060006101000a81548160ff02191690836004811115611027577f4e487b7100000000000000000000000000000000000000000000000000000000600052602160045260246000fd5b02179055506000600360166101000a81548160ff02191690831515021790555061105081611a13565b50565b6000801b81565b600360159054906101000a900460ff16156110aa576040517f08c379a00000000000000000000000000000000000000000000000000000000081526004016110a1906124ad565b60405180910390fd5b8060046000600360048111156110e9577f4e487b7100000000000000000000000000000000000000000000000000000000600052602160045260246000fd5b6004811115611121577f4e487b7100000000000000000000000000000000000000000000000000000000600052602160045260246000fd5b815260200190815260200160002060006101000a81548173ffffffffffffffffffffffffffffffffffffffff021916908373ffffffffffffffffffffffffffffffffffffffff1602179055506003600560008373ffffffffffffffffffffffffffffffffffffffff1673ffffffffffffffffffffffffffffffffffffffff16815260200190815260200160002060006101000a81548160ff021916908360048111156111f6577f4e487b7100000000000000000000000000000000000000000000000000000000600052602160045260246000fd5b02179055506001600360146101000a81548160ff02191690831515021790555061121f8161186d565b50565b61122b82610722565b61123c81611237611607565b61160f565b611246838361178c565b505050565b600360009054906101000a900473ffffffffffffffffffffffffffffffffffffffff1673ffffffffffffffffffffffffffffffffffffffff1660046000600360048111156112c2577f4e487b7100000000000000000000000000000000000000000000000000000000600052602160045260246000fd5b60048111156112fa577f4e487b7100000000000000000000000000000000000000000000000000000000600052602160045260246000fd5b815260200190815260200160002060009054906101000a900473ffffffffffffffffffffffffffffffffffffffff1673ffffffffffffffffffffffffffffffffffffffff161415611380576040517f08c379a00000000000000000000000000000000000000000000000000000000081526004016113779061242d565b60405180910390fd5b6004600560008373ffffffffffffffffffffffffffffffffffffffff1673ffffffffffffffffffffffffffffffffffffffff16815260200190815260200160002060006101000a81548160ff02191690836004811115611409577f4e487b7100000000000000000000000000000000000000000000000000000000600052602160045260246000fd5b02179055506000600360156101000a81548160ff02191690831515021790555061143281611a83565b50565b61143d611607565b73ffffffffffffffffffffffffffffffffffffffff1661145b610b98565b73ffffffffffffffffffffffffffffffffffffffff16146114b1576040517f08c379a00000000000000000000000000000000000000000000000000000000081526004016114a8906124cd565b60405180910390fd5b600073ffffffffffffffffffffffffffffffffffffffff168173ffffffffffffffffffffffffffffffffffffffff161415611521576040517f08c379a00000000000000000000000000000000000000000000000000000000081526004016115189061244d565b60405180910390fd5b61152a816118dd565b50565b60007f01ffc9a7000000000000000000000000000000000000000000000000000000007bffffffffffffffffffffffffffffffffffffffffffffffffffffffff1916827bffffffffffffffffffffffffffffffffffffffffffffffffffffffff1916149050919050565b6115c17feb998ffefd22a823ed46d63e27357a1eefa908b6ba6804ac328694f77956b469826116ac565b8073ffffffffffffffffffffffffffffffffffffffff167f387a6db0f68b316b57f3260da99c5aeffd87c39beb8948ce8303d61e541869a060405160405180910390a250565b600033905090565b6116198282610ddf565b6116a85761163e8173ffffffffffffffffffffffffffffffffffffffff166014611af3565b61164c8360001c6020611af3565b60405160200161165d929190612345565b6040516020818303038152906040526040517f08c379a000000000000000000000000000000000000000000000000000000000815260040161169f91906123eb565b60405180910390fd5b5050565b6116b68282610ddf565b61178857600160008084815260200190815260200160002060000160008373ffffffffffffffffffffffffffffffffffffffff1673ffffffffffffffffffffffffffffffffffffffff16815260200190815260200160002060006101000a81548160ff02191690831515021790555061172d611607565b73ffffffffffffffffffffffffffffffffffffffff168173ffffffffffffffffffffffffffffffffffffffff16837f2f8788117e7eff1d82e926ec794901d17c78024a50270940304540a733656f0d60405160405180910390a45b5050565b6117968282610ddf565b1561186957600080600084815260200190815260200160002060000160008373ffffffffffffffffffffffffffffffffffffffff1673ffffffffffffffffffffffffffffffffffffffff16815260200190815260200160002060006101000a81548160ff02191690831515021790555061180e611607565b73ffffffffffffffffffffffffffffffffffffffff168173ffffffffffffffffffffffffffffffffffffffff16837ff6391f5c32d9c69d2a47ea670b442974b53935d1edc7fd64eb21e047a839171b60405160405180910390a45b5050565b6118977fc9f41f19cd323609a8840e20c19f0688fff7f2c7796dc69350af80f75835f815826116ac565b8073ffffffffffffffffffffffffffffffffffffffff167f98980d7f599134323351c537f72e6e91717e3b79333a908281c16eba585a455760405160405180910390a250565b6000600160009054906101000a900473ffffffffffffffffffffffffffffffffffffffff16905081600160006101000a81548173ffffffffffffffffffffffffffffffffffffffff021916908373ffffffffffffffffffffffffffffffffffffffff1602179055508173ffffffffffffffffffffffffffffffffffffffff168173ffffffffffffffffffffffffffffffffffffffff167f8be0079c531659141344cd1fd0a4f28419497f9722a3daafe3b4186f6b6457e060405160405180910390a35050565b6119cd7fc9f41f19cd323609a8840e20c19f0688fff7f2c7796dc69350af80f75835f8158261178c565b8073ffffffffffffffffffffffffffffffffffffffff167f97777ba2e5fcee6d754cfc5ef55c7906082b5f8304c0612b37538176814d8b6260405160405180910390a250565b611a3d7feb998ffefd22a823ed46d63e27357a1eefa908b6ba6804ac328694f77956b4698261178c565b8073ffffffffffffffffffffffffffffffffffffffff167f78f1966a437b216b79694eba11d816b9d0e19de3271c193a3644850e9d6b3a8460405160405180910390a250565b611aad7f5ddb3e3497f8f7f164aebc4d7f54dcf016e8cbf4b02588ee047dd5605a414dcb8261178c565b8073ffffffffffffffffffffffffffffffffffffffff167f0301d300f7ffcdac7be324e8f0935a454bd86464697c0c9eea742da99310867460405160405180910390a250565b606060006002836002611b0691906125aa565b611b109190612554565b67ffffffffffffffff811115611b4f577f4e487b7100000000000000000000000000000000000000000000000000000000600052604160045260246000fd5b6040519080825280601f01601f191660200182016040528015611b815781602001600182028036833780820191505090505b5090507f300000000000000000000000000000000000000000000000000000000000000081600081518110611bdf577f4e487b7100000000000000000000000000000000000000000000000000000000600052603260045260246000fd5b60200101907effffffffffffffffffffffffffffffffffffffffffffffffffffffffffffff1916908160001a9053507f780000000000000000000000000000000000000000000000000000000000000081600181518110611c69577f4e487b7100000000000000000000000000000000000000000000000000000000600052603260045260246000fd5b60200101907effffffffffffffffffffffffffffffffffffffffffffffffffffffffffffff1916908160001a90535060006001846002611ca991906125aa565b611cb39190612554565b90505b6001811115611d9f577f3031323334353637383961626364656600000000000000000000000000000000600f861660108110611d1b577f4e487b7100000000000000000000000000000000000000000000000000000000600052603260045260246000fd5b1a60f81b828281518110611d58577f4e487b7100000000000000000000000000000000000000000000000000000000600052603260045260246000fd5b60200101907effffffffffffffffffffffffffffffffffffffffffffffffffffffffffffff1916908160001a905350600485901c945080611d98906126da565b9050611cb6565b5060008414611de3576040517f08c379a0000000000000000000000000000000000000000000000000000000008152600401611dda9061240d565b60405180910390fd5b8091505092915050565b600081359050611dfc81612787565b92915050565b600081359050611e118161279e565b92915050565b600081359050611e26816127b5565b92915050565b600081359050611e3b816127cc565b92915050565b600060208284031215611e5357600080fd5b6000611e6184828501611ded565b91505092915050565b600060208284031215611e7c57600080fd5b6000611e8a84828501611e02565b91505092915050565b60008060408385031215611ea657600080fd5b6000611eb485828601611e02565b9250506020611ec585828601611ded565b9150509250929050565b600060208284031215611ee157600080fd5b6000611eef84828501611e17565b91505092915050565b600060208284031215611f0a57600080fd5b6000611f1884828501611e2c565b91505092915050565b611f2a81612604565b82525050565b611f3981612616565b82525050565b611f4881612622565b82525050565b611f5781612695565b82525050565b6000611f688261252d565b611f728185612538565b9350611f828185602086016126a7565b611f8b81612762565b840191505092915050565b6000611fa18261252d565b611fab8185612549565b9350611fbb8185602086016126a7565b80840191505092915050565b6000611fd4602083612538565b91507f537472696e67733a20686578206c656e67746820696e73756666696369656e746000830152602082019050919050565b6000612014602783612538565b91507f45737461206375656e7461206e6f207469656e6520726f6c206465206c61626f60008301527f7261746f72696f000000000000000000000000000000000000000000000000006020830152604082019050919050565b600061207a602683612538565b91507f4f776e61626c653a206e6577206f776e657220697320746865207a65726f206160008301527f64647265737300000000000000000000000000000000000000000000000000006020830152604082019050919050565b60006120e0601c83612538565b91507f59612068617920756e206c61626f7261746f72696f2063726561646f000000006000830152602082019050919050565b6000612120602983612538565b91507f45737461206375656e7461206e6f207469656e6520726f6c206465207472616e60008301527f73706f72746973746100000000000000000000000000000000000000000000006020830152604082019050919050565b6000612186603583612538565b91507f59612068617920756e20726573706f6e7361626c652064656c2063656e74726f60008301527f20646520766163756e6163696f6e2063726561646f00000000000000000000006020830152604082019050919050565b60006121ec602083612538565b91507f4f776e61626c653a2063616c6c6572206973206e6f7420746865206f776e65726000830152602082019050919050565b600061222c601783612549565b91507f416363657373436f6e74726f6c3a206163636f756e74200000000000000000006000830152601782019050919050565b600061226c601e83612538565b91507f59612068617920756e207472616e73706f7274697374612063726561646f00006000830152602082019050919050565b60006122ac601183612549565b91507f206973206d697373696e6720726f6c65200000000000000000000000000000006000830152601182019050919050565b60006122ec602f83612538565b91507f416363657373436f6e74726f6c3a2063616e206f6e6c792072656e6f756e636560008301527f20726f6c657320666f722073656c6600000000000000000000000000000000006020830152604082019050919050565b60006123508261221f565b915061235c8285611f96565b91506123678261229f565b91506123738284611f96565b91508190509392505050565b60006020820190506123946000830184611f21565b92915050565b60006020820190506123af6000830184611f30565b92915050565b60006020820190506123ca6000830184611f3f565b92915050565b60006020820190506123e56000830184611f4e565b92915050565b600060208201905081810360008301526124058184611f5d565b905092915050565b6000602082019050818103600083015261242681611fc7565b9050919050565b6000602082019050818103600083015261244681612007565b9050919050565b600060208201905081810360008301526124668161206d565b9050919050565b60006020820190508181036000830152612486816120d3565b9050919050565b600060208201905081810360008301526124a681612113565b9050919050565b600060208201905081810360008301526124c681612179565b9050919050565b600060208201905081810360008301526124e6816121df565b9050919050565b600060208201905081810360008301526125068161225f565b9050919050565b60006020820190508181036000830152612526816122df565b9050919050565b600081519050919050565b600082825260208201905092915050565b600081905092915050565b600061255f8261268b565b915061256a8361268b565b9250827fffffffffffffffffffffffffffffffffffffffffffffffffffffffffffffffff0382111561259f5761259e612704565b5b828201905092915050565b60006125b58261268b565b91506125c08361268b565b9250817fffffffffffffffffffffffffffffffffffffffffffffffffffffffffffffffff04831182151516156125f9576125f8612704565b5b828202905092915050565b600061260f8261266b565b9050919050565b60008115159050919050565b6000819050919050565b60007fffffffff0000000000000000000000000000000000000000000000000000000082169050919050565b600081905061266682612773565b919050565b600073ffffffffffffffffffffffffffffffffffffffff82169050919050565b6000819050919050565b60006126a082612658565b9050919050565b60005b838110156126c55780820151818401526020810190506126aa565b838111156126d4576000848401525b50505050565b60006126e58261268b565b915060008214156126f9576126f8612704565b5b600182039050919050565b7f4e487b7100000000000000000000000000000000000000000000000000000000600052601160045260246000fd5b7f4e487b7100000000000000000000000000000000000000000000000000000000600052602160045260246000fd5b6000601f19601f8301169050919050565b6005811061278457612783612733565b5b50565b61279081612604565b811461279b57600080fd5b50565b6127a781612622565b81146127b257600080fd5b50565b6127be8161262c565b81146127c957600080fd5b50565b600581106127d957600080fd5b5056fea2646970667358221220bb052d60bb438251fcbcb05618242244a7c0df8bc8ae309a3a2ef28ae06532eb64736f6c63430008000033",
  "immutableReferences": {},
  "source": "// SPDX-License-Identifier: GPL-3.0\npragma solidity >=0.6.0 <0.9.0;\n\nimport './roles/LaboratoryRole.sol';\nimport './roles/CarrierRole.sol';\nimport './roles/VaccineCenterRole.sol';\n/**\n * @title Vacine Network Model\n */\ncontract VaccineNetwork is LaboratoryRole, CarrierRole, VaccineCenterRole {\n    uint transport_phases;\n    address empty = 0x0000000000000000000000000000000000000000;\n    bool laboratory = false;\n    bool center = false;\n    bool carrier = false;\n    enum Rol {Admin, Carrier, Laboratory, VaccineCenter, None}\n\n    mapping(Rol => address) public users;\n     mapping(address => Rol) public roles;\n\n\n    //Add Laboratory role to an account. Only admin account can use it.\n    function addLaboratory(address account) public {\n        require(!laboratory, \"Ya hay un laboratorio creado\");\n        users[Rol.Laboratory] = account;\n        roles[account] = Rol.Laboratory;\n        laboratory = true;\n        _addLaboratory(account);\n    }\n\n      //Remove laboratory role of an account. Only admin account can use it. \n    function removeLaboratory(address account) public {\n        require(users[Rol.Laboratory] != empty, \"Esta cuenta no tiene rol de laboratorio\");\n        roles[account] = Rol.None;\n        laboratory = false;\n        _removeLaboratory(account);\n    }\n\n    //Add VaccineCenter role to an account. Only admin account can use it.\n    function addVaccineCenter(address account) public {\n        require(!center, \"Ya hay un responsable del centro de vacunacion creado\");\n        users[Rol.VaccineCenter] = account;\n        roles[account] = Rol.VaccineCenter;\n        laboratory = true;\n        _addLaboratory(account);\n    }\n\n    //Remove VaccineCenter role of an account. Only admin account can use it. \n    function removeVaccineCenter(address account) public {\n        require(users[Rol.VaccineCenter] != empty, \"Esta cuenta no tiene rol de laboratorio\");\n        roles[account] = Rol.None;\n        center = false;\n        _removeVaccineCenter(account);\n    }\n\n    //Add Carrier role to an account. Only admin account can use it.\n    function addCarrier(address account) public {\n        require(!carrier, \"Ya hay un transportista creado\");\n        users[Rol.Carrier] = account;\n        roles[account] = Rol.Carrier;\n        laboratory = true;\n        _addCarrier(account);\n    }\n\n    //Remove Carrier role of an account. Only admin account can use it. \n    function removeCarrier(address account) public {\n        require(users[Rol.Carrier] != empty, \"Esta cuenta no tiene rol de transportista\");\n        roles[account] = Rol.None;\n        carrier = false;\n        _removeCarrier(account);\n    }\n\n    function getAccountRole (address _address) public view returns (Rol) {\n        return roles[_address];\n    }\n\n}",
  "sourcePath": "/Users/tfm/Desktop/Drizzle-tuto-master/contracts/vaccineNetwork.sol",
  "compiler": {
    "name": "solc",
    "version": "0.8.0+commit.c7dfd78e.Emscripten.clang"
  },
  "schemaVersion": "3.4.7",
  "updatedAt": "2022-04-20T23:20:12.644Z",
  "networkType": "ethereum",
  "devdoc": {
    "kind": "dev",
    "methods": {
      "getRoleAdmin(bytes32)": {
        "details": "Returns the admin role that controls `role`. See {grantRole} and {revokeRole}. To change a role's admin, use {_setRoleAdmin}."
      },
      "grantRole(bytes32,address)": {
        "details": "Grants `role` to `account`. If `account` had not been already granted `role`, emits a {RoleGranted} event. Requirements: - the caller must have ``role``'s admin role."
      },
      "hasRole(bytes32,address)": {
        "details": "Returns `true` if `account` has been granted `role`."
      },
      "owner()": {
        "details": "Returns the address of the current owner."
      },
      "renounceOwnership()": {
        "details": "Leaves the contract without owner. It will not be possible to call `onlyOwner` functions anymore. Can only be called by the current owner. NOTE: Renouncing ownership will leave the contract without an owner, thereby removing any functionality that is only available to the owner."
      },
      "renounceRole(bytes32,address)": {
        "details": "Revokes `role` from the calling account. Roles are often managed via {grantRole} and {revokeRole}: this function's purpose is to provide a mechanism for accounts to lose their privileges if they are compromised (such as when a trusted device is misplaced). If the calling account had been revoked `role`, emits a {RoleRevoked} event. Requirements: - the caller must be `account`."
      },
      "revokeRole(bytes32,address)": {
        "details": "Revokes `role` from `account`. If `account` had been granted `role`, emits a {RoleRevoked} event. Requirements: - the caller must have ``role``'s admin role."
      },
      "supportsInterface(bytes4)": {
        "details": "See {IERC165-supportsInterface}."
      },
      "transferOwnership(address)": {
        "details": "Transfers ownership of the contract to a new account (`newOwner`). Can only be called by the current owner."
      }
    },
    "title": "Vacine Network Model",
    "version": 1
  },
  "userdoc": {
    "kind": "user",
    "methods": {},
    "version": 1
  }
}