{
  "contractName": "VaccineNetwork",
  "abi": [
    {
      "anonymous": false,
      "inputs": [
        {
          "indexed": true,
          "internalType": "address",
          "name": "previousOwner",
          "type": "address"
        },
        {
          "indexed": true,
          "internalType": "address",
          "name": "newOwner",
          "type": "address"
        }
      ],
      "name": "OwnershipTransferred",
      "type": "event"
    },
    {
      "anonymous": false,
      "inputs": [
        {
          "indexed": true,
          "internalType": "bytes32",
          "name": "role",
          "type": "bytes32"
        },
        {
          "indexed": true,
          "internalType": "bytes32",
          "name": "previousAdminRole",
          "type": "bytes32"
        },
        {
          "indexed": true,
          "internalType": "bytes32",
          "name": "newAdminRole",
          "type": "bytes32"
        }
      ],
      "name": "RoleAdminChanged",
      "type": "event"
    },
    {
      "anonymous": false,
      "inputs": [
        {
          "indexed": true,
          "internalType": "bytes32",
          "name": "role",
          "type": "bytes32"
        },
        {
          "indexed": true,
          "internalType": "address",
          "name": "account",
          "type": "address"
        },
        {
          "indexed": true,
          "internalType": "address",
          "name": "sender",
          "type": "address"
        }
      ],
      "name": "RoleGranted",
      "type": "event"
    },
    {
      "anonymous": false,
      "inputs": [
        {
          "indexed": true,
          "internalType": "bytes32",
          "name": "role",
          "type": "bytes32"
        },
        {
          "indexed": true,
          "internalType": "address",
          "name": "account",
          "type": "address"
        },
        {
          "indexed": true,
          "internalType": "address",
          "name": "sender",
          "type": "address"
        }
      ],
      "name": "RoleRevoked",
      "type": "event"
    },
    {
      "anonymous": false,
      "inputs": [
        {
          "indexed": true,
          "internalType": "address",
          "name": "account",
          "type": "address"
        }
      ],
      "name": "carrierAdded",
      "type": "event"
    },
    {
      "anonymous": false,
      "inputs": [
        {
          "indexed": true,
          "internalType": "address",
          "name": "account",
          "type": "address"
        }
      ],
      "name": "carrierRemoved",
      "type": "event"
    },
    {
      "anonymous": false,
      "inputs": [
        {
          "indexed": true,
          "internalType": "address",
          "name": "account",
          "type": "address"
        }
      ],
      "name": "laboratoryAdded",
      "type": "event"
    },
    {
      "anonymous": false,
      "inputs": [
        {
          "indexed": true,
          "internalType": "address",
          "name": "account",
          "type": "address"
        }
      ],
      "name": "laboratoryRemoved",
      "type": "event"
    },
    {
      "anonymous": false,
      "inputs": [
        {
          "indexed": true,
          "internalType": "address",
          "name": "account",
          "type": "address"
        }
      ],
      "name": "vaccineCenterAdded",
      "type": "event"
    },
    {
      "anonymous": false,
      "inputs": [
        {
          "indexed": true,
          "internalType": "address",
          "name": "account",
          "type": "address"
        }
      ],
      "name": "vaccineCenterRemoved",
      "type": "event"
    },
    {
      "inputs": [],
      "name": "CARRIER_ROLE",
      "outputs": [
        {
          "internalType": "bytes32",
          "name": "",
          "type": "bytes32"
        }
      ],
      "stateMutability": "view",
      "type": "function",
      "constant": true
    },
    {
      "inputs": [],
      "name": "DEFAULT_ADMIN_ROLE",
      "outputs": [
        {
          "internalType": "bytes32",
          "name": "",
          "type": "bytes32"
        }
      ],
      "stateMutability": "view",
      "type": "function",
      "constant": true
    },
    {
      "inputs": [],
      "name": "LABORATORY_ROLE",
      "outputs": [
        {
          "internalType": "bytes32",
          "name": "",
          "type": "bytes32"
        }
      ],
      "stateMutability": "view",
      "type": "function",
      "constant": true
    },
    {
      "inputs": [],
      "name": "VC_ROLE",
      "outputs": [
        {
          "internalType": "bytes32",
          "name": "",
          "type": "bytes32"
        }
      ],
      "stateMutability": "view",
      "type": "function",
      "constant": true
    },
    {
      "inputs": [
        {
          "internalType": "address",
          "name": "",
          "type": "address"
        }
      ],
      "name": "carriers",
      "outputs": [
        {
          "internalType": "uint256",
          "name": "points",
          "type": "uint256"
        },
        {
          "internalType": "uint256",
          "name": "travels",
          "type": "uint256"
        }
      ],
      "stateMutability": "view",
      "type": "function",
      "constant": true
    },
    {
      "inputs": [
        {
          "internalType": "bytes32",
          "name": "role",
          "type": "bytes32"
        }
      ],
      "name": "getRoleAdmin",
      "outputs": [
        {
          "internalType": "bytes32",
          "name": "",
          "type": "bytes32"
        }
      ],
      "stateMutability": "view",
      "type": "function",
      "constant": true
    },
    {
      "inputs": [
        {
          "internalType": "bytes32",
          "name": "role",
          "type": "bytes32"
        },
        {
          "internalType": "address",
          "name": "account",
          "type": "address"
        }
      ],
      "name": "grantRole",
      "outputs": [],
      "stateMutability": "nonpayable",
      "type": "function"
    },
    {
      "inputs": [
        {
          "internalType": "bytes32",
          "name": "role",
          "type": "bytes32"
        },
        {
          "internalType": "address",
          "name": "account",
          "type": "address"
        }
      ],
      "name": "hasRole",
      "outputs": [
        {
          "internalType": "bool",
          "name": "",
          "type": "bool"
        }
      ],
      "stateMutability": "view",
      "type": "function",
      "constant": true
    },
    {
      "inputs": [
        {
          "internalType": "address",
          "name": "account",
          "type": "address"
        }
      ],
      "name": "isCarrier",
      "outputs": [
        {
          "internalType": "bool",
          "name": "",
          "type": "bool"
        }
      ],
      "stateMutability": "view",
      "type": "function",
      "constant": true
    },
    {
      "inputs": [
        {
          "internalType": "address",
          "name": "account",
          "type": "address"
        }
      ],
      "name": "isLaboratory",
      "outputs": [
        {
          "internalType": "bool",
          "name": "",
          "type": "bool"
        }
      ],
      "stateMutability": "view",
      "type": "function",
      "constant": true
    },
    {
      "inputs": [
        {
          "internalType": "address",
          "name": "account",
          "type": "address"
        }
      ],
      "name": "isVaccineCenter",
      "outputs": [
        {
          "internalType": "bool",
          "name": "",
          "type": "bool"
        }
      ],
      "stateMutability": "view",
      "type": "function",
      "constant": true
    },
    {
      "inputs": [],
      "name": "owner",
      "outputs": [
        {
          "internalType": "address",
          "name": "",
          "type": "address"
        }
      ],
      "stateMutability": "view",
      "type": "function",
      "constant": true
    },
    {
      "inputs": [
        {
          "internalType": "uint256",
          "name": "",
          "type": "uint256"
        }
      ],
      "name": "places",
      "outputs": [
        {
          "internalType": "enum VaccineNetwork.Place",
          "name": "",
          "type": "uint8"
        }
      ],
      "stateMutability": "view",
      "type": "function",
      "constant": true
    },
    {
      "inputs": [],
      "name": "renounceOwnership",
      "outputs": [],
      "stateMutability": "nonpayable",
      "type": "function"
    },
    {
      "inputs": [
        {
          "internalType": "bytes32",
          "name": "role",
          "type": "bytes32"
        },
        {
          "internalType": "address",
          "name": "account",
          "type": "address"
        }
      ],
      "name": "renounceRole",
      "outputs": [],
      "stateMutability": "nonpayable",
      "type": "function"
    },
    {
      "inputs": [
        {
          "internalType": "bytes32",
          "name": "role",
          "type": "bytes32"
        },
        {
          "internalType": "address",
          "name": "account",
          "type": "address"
        }
      ],
      "name": "revokeRole",
      "outputs": [],
      "stateMutability": "nonpayable",
      "type": "function"
    },
    {
      "inputs": [
        {
          "internalType": "address",
          "name": "",
          "type": "address"
        }
      ],
      "name": "roles",
      "outputs": [
        {
          "internalType": "enum VaccineNetwork.Rol",
          "name": "",
          "type": "uint8"
        }
      ],
      "stateMutability": "view",
      "type": "function",
      "constant": true
    },
    {
      "inputs": [
        {
          "internalType": "uint256",
          "name": "",
          "type": "uint256"
        }
      ],
      "name": "states",
      "outputs": [
        {
          "internalType": "enum VaccineNetwork.State",
          "name": "",
          "type": "uint8"
        }
      ],
      "stateMutability": "view",
      "type": "function",
      "constant": true
    },
    {
      "inputs": [
        {
          "internalType": "bytes4",
          "name": "interfaceId",
          "type": "bytes4"
        }
      ],
      "name": "supportsInterface",
      "outputs": [
        {
          "internalType": "bool",
          "name": "",
          "type": "bool"
        }
      ],
      "stateMutability": "view",
      "type": "function",
      "constant": true
    },
    {
      "inputs": [
        {
          "internalType": "address",
          "name": "newOwner",
          "type": "address"
        }
      ],
      "name": "transferOwnership",
      "outputs": [],
      "stateMutability": "nonpayable",
      "type": "function"
    },
    {
      "inputs": [
        {
          "internalType": "enum VaccineNetwork.Rol",
          "name": "",
          "type": "uint8"
        }
      ],
      "name": "users",
      "outputs": [
        {
          "internalType": "address",
          "name": "",
          "type": "address"
        }
      ],
      "stateMutability": "view",
      "type": "function",
      "constant": true
    },
    {
      "inputs": [],
      "name": "vaccine_id",
      "outputs": [
        {
          "internalType": "uint256",
          "name": "",
          "type": "uint256"
        }
      ],
      "stateMutability": "view",
      "type": "function",
      "constant": true
    },
    {
      "inputs": [],
      "name": "addLaboratory",
      "outputs": [
        {
          "internalType": "bool",
          "name": "",
          "type": "bool"
        }
      ],
      "stateMutability": "payable",
      "type": "function",
      "payable": true
    },
    {
      "inputs": [
        {
          "internalType": "address",
          "name": "account",
          "type": "address"
        }
      ],
      "name": "addCarrier",
      "outputs": [],
      "stateMutability": "nonpayable",
      "type": "function"
    },
    {
      "inputs": [
        {
          "internalType": "address",
          "name": "account",
          "type": "address"
        }
      ],
      "name": "removeCarrier",
      "outputs": [],
      "stateMutability": "nonpayable",
      "type": "function"
    },
    {
      "inputs": [
        {
          "internalType": "address",
          "name": "account",
          "type": "address"
        }
      ],
      "name": "addVaccineCenter",
      "outputs": [],
      "stateMutability": "nonpayable",
      "type": "function"
    },
    {
      "inputs": [
        {
          "internalType": "address",
          "name": "account",
          "type": "address"
        }
      ],
      "name": "removeVaccineCenter",
      "outputs": [],
      "stateMutability": "nonpayable",
      "type": "function"
    },
    {
      "inputs": [],
      "name": "setCarrierPlace",
      "outputs": [],
      "stateMutability": "nonpayable",
      "type": "function"
    },
    {
      "inputs": [],
      "name": "setVaccineCenterPlace",
      "outputs": [],
      "stateMutability": "nonpayable",
      "type": "function"
    },
    {
      "inputs": [],
      "name": "setVaccineOk",
      "outputs": [],
      "stateMutability": "nonpayable",
      "type": "function"
    },
    {
      "inputs": [],
      "name": "setVaccineKo",
      "outputs": [],
      "stateMutability": "nonpayable",
      "type": "function"
    },
    {
      "inputs": [
        {
          "internalType": "address",
          "name": "_address",
          "type": "address"
        }
      ],
      "name": "getAccountRole",
      "outputs": [
        {
          "internalType": "enum VaccineNetwork.Rol",
          "name": "",
          "type": "uint8"
        }
      ],
      "stateMutability": "view",
      "type": "function",
      "constant": true
    },
    {
      "inputs": [
        {
          "internalType": "enum VaccineNetwork.Rol",
          "name": "_rol",
          "type": "uint8"
        }
      ],
      "name": "getRoleAccount",
      "outputs": [
        {
          "internalType": "address",
          "name": "",
          "type": "address"
        }
      ],
      "stateMutability": "view",
      "type": "function",
      "constant": true
    },
    {
      "inputs": [
        {
          "internalType": "uint256",
          "name": "id",
          "type": "uint256"
        }
      ],
      "name": "getVacccineState",
      "outputs": [
        {
          "internalType": "enum VaccineNetwork.State",
          "name": "",
          "type": "uint8"
        }
      ],
      "stateMutability": "view",
      "type": "function",
      "constant": true
    },
    {
      "inputs": [
        {
          "internalType": "uint256",
          "name": "id",
          "type": "uint256"
        }
      ],
      "name": "getVacccinePlace",
      "outputs": [
        {
          "internalType": "enum VaccineNetwork.Place",
          "name": "",
          "type": "uint8"
        }
      ],
      "stateMutability": "view",
      "type": "function",
      "constant": true
    },
    {
      "inputs": [
        {
          "internalType": "address",
          "name": "_address",
          "type": "address"
        }
      ],
      "name": "getCarrierPoints",
      "outputs": [
        {
          "internalType": "uint256",
          "name": "",
          "type": "uint256"
        },
        {
          "internalType": "uint256",
          "name": "",
          "type": "uint256"
        }
      ],
      "stateMutability": "view",
      "type": "function",
      "constant": true
    },
    {
      "inputs": [],
      "name": "getVaccineId",
      "outputs": [
        {
          "internalType": "uint256",
          "name": "",
          "type": "uint256"
        }
      ],
      "stateMutability": "view",
      "type": "function",
      "constant": true
    }
  ],
  "bytecode": "0x60806040526000600160146101000a81548160ff0219169083151502179055506000600160156101000a81548160ff0219169083151502179055506000600160166101000a81548160ff02191690831515021790555060006002553480156200006757600080fd5b50620000886200007c6200008e60201b60201c565b6200009660201b60201c565b6200015c565b600033905090565b6000600160009054906101000a900473ffffffffffffffffffffffffffffffffffffffff16905081600160006101000a81548173ffffffffffffffffffffffffffffffffffffffff021916908373ffffffffffffffffffffffffffffffffffffffff1602179055508173ffffffffffffffffffffffffffffffffffffffff168173ffffffffffffffffffffffffffffffffffffffff167f8be0079c531659141344cd1fd0a4f28419497f9722a3daafe3b4186f6b6457e060405160405180910390a35050565b6155bf806200016c6000396000f3fe60806040526004361061021a5760003560e01c806381d66b2311610123578063baceb4b2116100ab578063e557bb4e1161006f578063e557bb4e14610813578063eca48fd714610850578063ee94ddc514610879578063f2fde38b14610890578063f80cacbe146108b95761021a565b8063baceb4b21461071c578063bc51f4d614610759578063c2c0bac114610796578063c714bae4146107c1578063d547741f146107ea5761021a565b806390ea273c116100f257806390ea273c1461063757806391d148541461064e578063993746421461068b5780639e2fe90a146106c8578063a217fddf146106f15761021a565b806381d66b2314610567578063857aa71a146105a45780638da5cb5b146105cf5780638e08aed6146105fa5761021a565b806336568abe116101a657806356dad6f91161017557806356dad6f9146104925780635c7e6330146104cf57806365a1be48146104fa578063715018a6146105255780637fe212431461053c5761021a565b806336568abe146103d75780633ef7bd4014610400578063436a34ee1461043e578063452ce9811461047b5761021a565b8063248a9ca3116101ed578063248a9ca3146102d957806327706584146103165780632b30c239146103535780632f2ff15d1461037157806332f803631461039a5761021a565b8063017a91051461021f57806301ffc9a71461025c5780630b2189a21461029957806314e8f8d3146102b0575b600080fd5b34801561022b57600080fd5b5061024660048036038101906102419190614794565b6108f7565b6040516102539190614f7c565b60405180910390f35b34801561026857600080fd5b50610283600480360381019061027e9190614742565b610917565b6040516102909190614f10565b60405180910390f35b3480156102a557600080fd5b506102ae610991565b005b3480156102bc57600080fd5b506102d760048036038101906102d291906146b4565b611472565b005b3480156102e557600080fd5b5061030060048036038101906102fb91906146dd565b611837565b60405161030d9190614f2b565b60405180910390f35b34801561032257600080fd5b5061033d600480360381019061033891906146b4565b611856565b60405161034a9190614f10565b60405180910390f35b61035b611889565b6040516103689190614f10565b60405180910390f35b34801561037d57600080fd5b5061039860048036038101906103939190614706565b611e10565b005b3480156103a657600080fd5b506103c160048036038101906103bc919061476b565b611e39565b6040516103ce9190614ef5565b60405180910390f35b3480156103e357600080fd5b506103fe60048036038101906103f99190614706565b611e6c565b005b34801561040c57600080fd5b50610427600480360381019061042291906146b4565b611eef565b6040516104359291906151d4565b60405180910390f35b34801561044a57600080fd5b50610465600480360381019061046091906146b4565b611f13565b6040516104729190614f10565b60405180910390f35b34801561048757600080fd5b50610490611f46565b005b34801561049e57600080fd5b506104b960048036038101906104b4919061476b565b612180565b6040516104c69190614ef5565b60405180910390f35b3480156104db57600080fd5b506104e461222d565b6040516104f191906151b9565b60405180910390f35b34801561050657600080fd5b5061050f612233565b60405161051c9190614f2b565b60405180910390f35b34801561053157600080fd5b5061053a612257565b005b34801561054857600080fd5b506105516122df565b60405161055e9190614f2b565b60405180910390f35b34801561057357600080fd5b5061058e600480360381019061058991906146b4565b612303565b60405161059b9190614f61565b60405180910390f35b3480156105b057600080fd5b506105b9612359565b6040516105c69190614f2b565b60405180910390f35b3480156105db57600080fd5b506105e461237d565b6040516105f19190614ef5565b60405180910390f35b34801561060657600080fd5b50610621600480360381019061061c91906146b4565b6123a7565b60405161062e9190614f10565b60405180910390f35b34801561064357600080fd5b5061064c6123da565b005b34801561065a57600080fd5b5061067560048036038101906106709190614706565b612b81565b6040516106829190614f10565b60405180910390f35b34801561069757600080fd5b506106b260048036038101906106ad91906146b4565b612beb565b6040516106bf9190614f61565b60405180910390f35b3480156106d457600080fd5b506106ef60048036038101906106ea91906146b4565b612c0b565b005b3480156106fd57600080fd5b50610706612f6c565b6040516107139190614f2b565b60405180910390f35b34801561072857600080fd5b50610743600480360381019061073e9190614794565b612f73565b6040516107509190614f7c565b60405180910390f35b34801561076557600080fd5b50610780600480360381019061077b9190614794565b612f9d565b60405161078d9190614f46565b60405180910390f35b3480156107a257600080fd5b506107ab612fc7565b6040516107b891906151b9565b60405180910390f35b3480156107cd57600080fd5b506107e860048036038101906107e391906146b4565b612fd1565b005b3480156107f657600080fd5b50610811600480360381019061080c9190614706565b613395565b005b34801561081f57600080fd5b5061083a60048036038101906108359190614794565b6133be565b6040516108479190614f46565b60405180910390f35b34801561085c57600080fd5b50610877600480360381019061087291906146b4565b6133de565b005b34801561088557600080fd5b5061088e61373d565b005b34801561089c57600080fd5b506108b760048036038101906108b291906146b4565b613976565b005b3480156108c557600080fd5b506108e060048036038101906108db91906146b4565b613a6e565b6040516108ee9291906151d4565b60405180910390f35b60056020528060005260406000206000915054906101000a900460ff1681565b60007f7965db0b000000000000000000000000000000000000000000000000000000007bffffffffffffffffffffffffffffffffffffffffffffffffffffffff1916827bffffffffffffffffffffffffffffffffffffffffffffffffffffffff1916148061098a575061098982613b00565b5b9050919050565b600260038111156109cb577f4e487b7100000000000000000000000000000000000000000000000000000000600052602160045260246000fd5b600460003373ffffffffffffffffffffffffffffffffffffffff1673ffffffffffffffffffffffffffffffffffffffff16815260200190815260200160002060009054906101000a900460ff166003811115610a50577f4e487b7100000000000000000000000000000000000000000000000000000000600052602160045260246000fd5b1480610b175750600380811115610a90577f4e487b7100000000000000000000000000000000000000000000000000000000600052602160045260246000fd5b600460003373ffffffffffffffffffffffffffffffffffffffff1673ffffffffffffffffffffffffffffffffffffffff16815260200190815260200160002060009054906101000a900460ff166003811115610b15577f4e487b7100000000000000000000000000000000000000000000000000000000600052602160045260246000fd5b145b610b56576040517f08c379a0000000000000000000000000000000000000000000000000000000008152600401610b4d90614fb9565b60405180910390fd5b60016003811115610b90577f4e487b7100000000000000000000000000000000000000000000000000000000600052602160045260246000fd5b60056000600254815260200190815260200160002060009054906101000a900460ff166003811115610beb577f4e487b7100000000000000000000000000000000000000000000000000000000600052602160045260246000fd5b14610c2b576040517f08c379a0000000000000000000000000000000000000000000000000000000008152600401610c2290615119565b60405180910390fd5b60016003811115610c65577f4e487b7100000000000000000000000000000000000000000000000000000000600052602160045260246000fd5b60066000600254815260200190815260200160002060009054906101000a900460ff166003811115610cc0577f4e487b7100000000000000000000000000000000000000000000000000000000600052602160045260246000fd5b1415610d01576040517f08c379a0000000000000000000000000000000000000000000000000000000008152600401610cf890615119565b60405180910390fd5b600360056000600254815260200190815260200160002060006101000a81548160ff02191690836003811115610d60577f4e487b7100000000000000000000000000000000000000000000000000000000600052602160045260246000fd5b021790555060006003600060026003811115610da5577f4e487b7100000000000000000000000000000000000000000000000000000000600052602160045260246000fd5b6003811115610ddd577f4e487b7100000000000000000000000000000000000000000000000000000000600052602160045260246000fd5b815260200190815260200160002060009054906101000a900473ffffffffffffffffffffffffffffffffffffffff1673ffffffffffffffffffffffffffffffffffffffff16660110d9316ec000604051610e3690614ea6565b60006040518083038185875af1925050503d8060008114610e73576040519150601f19603f3d011682016040523d82523d6000602084013e610e78565b606091505b5050905080610ebc576040517f08c379a0000000000000000000000000000000000000000000000000000000008152600401610eb390615139565b60405180910390fd5b610f696003600060016003811115610efd577f4e487b7100000000000000000000000000000000000000000000000000000000600052602160045260246000fd5b6003811115610f35577f4e487b7100000000000000000000000000000000000000000000000000000000600052602160045260246000fd5b815260200190815260200160002060009054906101000a900473ffffffffffffffffffffffffffffffffffffffff16613b6a565b6110166003600060026003811115610faa577f4e487b7100000000000000000000000000000000000000000000000000000000600052602160045260246000fd5b6003811115610fe2577f4e487b7100000000000000000000000000000000000000000000000000000000600052602160045260246000fd5b815260200190815260200160002060009054906101000a900473ffffffffffffffffffffffffffffffffffffffff16612c0b565b6110c260036000600380811115611056577f4e487b7100000000000000000000000000000000000000000000000000000000600052602160045260246000fd5b600381111561108e577f4e487b7100000000000000000000000000000000000000000000000000000000600052602160045260246000fd5b815260200190815260200160002060009054906101000a900473ffffffffffffffffffffffffffffffffffffffff166133de565b600260038111156110fc577f4e487b7100000000000000000000000000000000000000000000000000000000600052602160045260246000fd5b60066000600254815260200190815260200160002060009054906101000a900460ff166003811115611157577f4e487b7100000000000000000000000000000000000000000000000000000000600052602160045260246000fd5b141561125e5760076000600360006002600381111561119f577f4e487b7100000000000000000000000000000000000000000000000000000000600052602160045260246000fd5b60038111156111d7577f4e487b7100000000000000000000000000000000000000000000000000000000600052602160045260246000fd5b815260200190815260200160002060009054906101000a900473ffffffffffffffffffffffffffffffffffffffff1673ffffffffffffffffffffffffffffffffffffffff1673ffffffffffffffffffffffffffffffffffffffff168152602001908152602001600020600101600081548092919061125490615429565b9190505550611457565b6007600060036000600260038111156112a0577f4e487b7100000000000000000000000000000000000000000000000000000000600052602160045260246000fd5b60038111156112d8577f4e487b7100000000000000000000000000000000000000000000000000000000600052602160045260246000fd5b815260200190815260200160002060009054906101000a900473ffffffffffffffffffffffffffffffffffffffff1673ffffffffffffffffffffffffffffffffffffffff1673ffffffffffffffffffffffffffffffffffffffff168152602001908152602001600020600001600081548092919061135590615429565b919050555060076000600360006002600381111561139c577f4e487b7100000000000000000000000000000000000000000000000000000000600052602160045260246000fd5b60038111156113d4577f4e487b7100000000000000000000000000000000000000000000000000000000600052602160045260246000fd5b815260200190815260200160002060009054906101000a900473ffffffffffffffffffffffffffffffffffffffff1673ffffffffffffffffffffffffffffffffffffffff1673ffffffffffffffffffffffffffffffffffffffff168152602001908152602001600020600101600081548092919061145190615429565b91905055505b6002600081548092919061146a90615429565b919050555050565b600160038111156114ac577f4e487b7100000000000000000000000000000000000000000000000000000000600052602160045260246000fd5b600460003373ffffffffffffffffffffffffffffffffffffffff1673ffffffffffffffffffffffffffffffffffffffff16815260200190815260200160002060009054906101000a900460ff166003811115611531577f4e487b7100000000000000000000000000000000000000000000000000000000600052602160045260246000fd5b14611571576040517f08c379a000000000000000000000000000000000000000000000000000000000815260040161156890614fb9565b60405180910390fd5b600160169054906101000a900460ff16156115c1576040517f08c379a00000000000000000000000000000000000000000000000000000000081526004016115b890615159565b60405180910390fd5b600060038111156115fb577f4e487b7100000000000000000000000000000000000000000000000000000000600052602160045260246000fd5b600460008373ffffffffffffffffffffffffffffffffffffffff1673ffffffffffffffffffffffffffffffffffffffff16815260200190815260200160002060009054906101000a900460ff166003811115611680577f4e487b7100000000000000000000000000000000000000000000000000000000600052602160045260246000fd5b146116c0576040517f08c379a00000000000000000000000000000000000000000000000000000000081526004016116b790614ff9565b60405180910390fd5b60018060166101000a81548160ff021916908315150217905550806003600060026003811115611719577f4e487b7100000000000000000000000000000000000000000000000000000000600052602160045260246000fd5b6003811115611751577f4e487b7100000000000000000000000000000000000000000000000000000000600052602160045260246000fd5b815260200190815260200160002060006101000a81548173ffffffffffffffffffffffffffffffffffffffff021916908373ffffffffffffffffffffffffffffffffffffffff1602179055506002600460008373ffffffffffffffffffffffffffffffffffffffff1673ffffffffffffffffffffffffffffffffffffffff16815260200190815260200160002060006101000a81548160ff02191690836003811115611826577f4e487b7100000000000000000000000000000000000000000000000000000000600052602160045260246000fd5b021790555061183481613df5565b50565b6000806000838152602001908152602001600020600101549050919050565b60006118827fc9f41f19cd323609a8840e20c19f0688fff7f2c7796dc69350af80f75835f81583612b81565b9050919050565b600066038d7ea4c6800034146118d4576040517f08c379a00000000000000000000000000000000000000000000000000000000081526004016118cb90615179565b60405180910390fd5b600160149054906101000a900460ff1615611924576040517f08c379a000000000000000000000000000000000000000000000000000000000815260040161191b90615079565b60405180910390fd5b6000600381111561195e577f4e487b7100000000000000000000000000000000000000000000000000000000600052602160045260246000fd5b600460003373ffffffffffffffffffffffffffffffffffffffff1673ffffffffffffffffffffffffffffffffffffffff16815260200190815260200160002060009054906101000a900460ff1660038111156119e3577f4e487b7100000000000000000000000000000000000000000000000000000000600052602160045260246000fd5b14611a23576040517f08c379a0000000000000000000000000000000000000000000000000000000008152600401611a1a90614ff9565b60405180910390fd5b60006003811115611a5d577f4e487b7100000000000000000000000000000000000000000000000000000000600052602160045260246000fd5b60056000600254815260200190815260200160002060009054906101000a900460ff166003811115611ab8577f4e487b7100000000000000000000000000000000000000000000000000000000600052602160045260246000fd5b14611af8576040517f08c379a0000000000000000000000000000000000000000000000000000000008152600401611aef90615119565b60405180910390fd5b60006003811115611b32577f4e487b7100000000000000000000000000000000000000000000000000000000600052602160045260246000fd5b60066000600254815260200190815260200160002060009054906101000a900460ff166003811115611b8d577f4e487b7100000000000000000000000000000000000000000000000000000000600052602160045260246000fd5b14611bcd576040517f08c379a0000000000000000000000000000000000000000000000000000000008152600401611bc490615119565b60405180910390fd5b60018060146101000a81548160ff021916908315150217905550611bf033613e65565b336003600060016003811115611c2f577f4e487b7100000000000000000000000000000000000000000000000000000000600052602160045260246000fd5b6003811115611c67577f4e487b7100000000000000000000000000000000000000000000000000000000600052602160045260246000fd5b815260200190815260200160002060006101000a81548173ffffffffffffffffffffffffffffffffffffffff021916908373ffffffffffffffffffffffffffffffffffffffff1602179055506001600460003373ffffffffffffffffffffffffffffffffffffffff1673ffffffffffffffffffffffffffffffffffffffff16815260200190815260200160002060006101000a81548160ff02191690836003811115611d3c577f4e487b7100000000000000000000000000000000000000000000000000000000600052602160045260246000fd5b0217905550600160056000600254815260200190815260200160002060006101000a81548160ff02191690836003811115611da0577f4e487b7100000000000000000000000000000000000000000000000000000000600052602160045260246000fd5b0217905550600160066000600254815260200190815260200160002060006101000a81548160ff02191690836003811115611e04577f4e487b7100000000000000000000000000000000000000000000000000000000600052602160045260246000fd5b02179055506001905090565b611e1982611837565b611e2a81611e25613ed5565b613edd565b611e348383613f7a565b505050565b60036020528060005260406000206000915054906101000a900473ffffffffffffffffffffffffffffffffffffffff1681565b611e74613ed5565b73ffffffffffffffffffffffffffffffffffffffff168173ffffffffffffffffffffffffffffffffffffffff1614611ee1576040517f08c379a0000000000000000000000000000000000000000000000000000000008152600401611ed890615199565b60405180910390fd5b611eeb828261405a565b5050565b60076020528060005260406000206000915090508060000154908060010154905082565b6000611f3f7feb998ffefd22a823ed46d63e27357a1eefa908b6ba6804ac328694f77956b46983612b81565b9050919050565b60026003811115611f80577f4e487b7100000000000000000000000000000000000000000000000000000000600052602160045260246000fd5b600460003373ffffffffffffffffffffffffffffffffffffffff1673ffffffffffffffffffffffffffffffffffffffff16815260200190815260200160002060009054906101000a900460ff166003811115612005577f4e487b7100000000000000000000000000000000000000000000000000000000600052602160045260246000fd5b14612045576040517f08c379a000000000000000000000000000000000000000000000000000000000815260040161203c90614fb9565b60405180910390fd5b6001600381111561207f577f4e487b7100000000000000000000000000000000000000000000000000000000600052602160045260246000fd5b60066000600254815260200190815260200160002060009054906101000a900460ff1660038111156120da577f4e487b7100000000000000000000000000000000000000000000000000000000600052602160045260246000fd5b1461211a576040517f08c379a000000000000000000000000000000000000000000000000000000000815260040161211190615119565b60405180910390fd5b600260066000600254815260200190815260200160002060006101000a81548160ff02191690836003811115612179577f4e487b7100000000000000000000000000000000000000000000000000000000600052602160045260246000fd5b0217905550565b6000600360008360038111156121bf577f4e487b7100000000000000000000000000000000000000000000000000000000600052602160045260246000fd5b60038111156121f7577f4e487b7100000000000000000000000000000000000000000000000000000000600052602160045260246000fd5b815260200190815260200160002060009054906101000a900473ffffffffffffffffffffffffffffffffffffffff169050919050565b60025481565b7feb998ffefd22a823ed46d63e27357a1eefa908b6ba6804ac328694f77956b46981565b61225f613ed5565b73ffffffffffffffffffffffffffffffffffffffff1661227d61237d565b73ffffffffffffffffffffffffffffffffffffffff16146122d3576040517f08c379a00000000000000000000000000000000000000000000000000000000081526004016122ca906150f9565b60405180910390fd5b6122dd600061413b565b565b7fc9f41f19cd323609a8840e20c19f0688fff7f2c7796dc69350af80f75835f81581565b6000600460008373ffffffffffffffffffffffffffffffffffffffff1673ffffffffffffffffffffffffffffffffffffffff16815260200190815260200160002060009054906101000a900460ff169050919050565b7f5ddb3e3497f8f7f164aebc4d7f54dcf016e8cbf4b02588ee047dd5605a414dcb81565b6000600160009054906101000a900473ffffffffffffffffffffffffffffffffffffffff16905090565b60006123d37f5ddb3e3497f8f7f164aebc4d7f54dcf016e8cbf4b02588ee047dd5605a414dcb83612b81565b9050919050565b600380811115612413577f4e487b7100000000000000000000000000000000000000000000000000000000600052602160045260246000fd5b600460003373ffffffffffffffffffffffffffffffffffffffff1673ffffffffffffffffffffffffffffffffffffffff16815260200190815260200160002060009054906101000a900460ff166003811115612498577f4e487b7100000000000000000000000000000000000000000000000000000000600052602160045260246000fd5b146124d8576040517f08c379a00000000000000000000000000000000000000000000000000000000081526004016124cf90614fb9565b60405180910390fd5b60016003811115612512577f4e487b7100000000000000000000000000000000000000000000000000000000600052602160045260246000fd5b60056000600254815260200190815260200160002060009054906101000a900460ff16600381111561256d577f4e487b7100000000000000000000000000000000000000000000000000000000600052602160045260246000fd5b146125ad576040517f08c379a00000000000000000000000000000000000000000000000000000000081526004016125a490615119565b60405180910390fd5b600260056000600254815260200190815260200160002060006101000a81548160ff0219169083600381111561260c577f4e487b7100000000000000000000000000000000000000000000000000000000600052602160045260246000fd5b021790555060006003600060026003811115612651577f4e487b7100000000000000000000000000000000000000000000000000000000600052602160045260246000fd5b6003811115612689577f4e487b7100000000000000000000000000000000000000000000000000000000600052602160045260246000fd5b815260200190815260200160002060009054906101000a900473ffffffffffffffffffffffffffffffffffffffff1673ffffffffffffffffffffffffffffffffffffffff16660110d9316ec0006040516126e290614ea6565b60006040518083038185875af1925050503d806000811461271f576040519150601f19603f3d011682016040523d82523d6000602084013e612724565b606091505b5050905080612768576040517f08c379a000000000000000000000000000000000000000000000000000000000815260040161275f90615139565b60405180910390fd5b6007600060036000600260038111156127aa577f4e487b7100000000000000000000000000000000000000000000000000000000600052602160045260246000fd5b60038111156127e2577f4e487b7100000000000000000000000000000000000000000000000000000000600052602160045260246000fd5b815260200190815260200160002060009054906101000a900473ffffffffffffffffffffffffffffffffffffffff1673ffffffffffffffffffffffffffffffffffffffff1673ffffffffffffffffffffffffffffffffffffffff168152602001908152602001600020600001600081548092919061285f90615429565b91905055506007600060036000600260038111156128a6577f4e487b7100000000000000000000000000000000000000000000000000000000600052602160045260246000fd5b60038111156128de577f4e487b7100000000000000000000000000000000000000000000000000000000600052602160045260246000fd5b815260200190815260200160002060009054906101000a900473ffffffffffffffffffffffffffffffffffffffff1673ffffffffffffffffffffffffffffffffffffffff1673ffffffffffffffffffffffffffffffffffffffff168152602001908152602001600020600101600081548092919061295b90615429565b9190505550612a0d60036000600160038111156129a1577f4e487b7100000000000000000000000000000000000000000000000000000000600052602160045260246000fd5b60038111156129d9577f4e487b7100000000000000000000000000000000000000000000000000000000600052602160045260246000fd5b815260200190815260200160002060009054906101000a900473ffffffffffffffffffffffffffffffffffffffff16613b6a565b612aba6003600060026003811115612a4e577f4e487b7100000000000000000000000000000000000000000000000000000000600052602160045260246000fd5b6003811115612a86577f4e487b7100000000000000000000000000000000000000000000000000000000600052602160045260246000fd5b815260200190815260200160002060009054906101000a900473ffffffffffffffffffffffffffffffffffffffff16612c0b565b612b6660036000600380811115612afa577f4e487b7100000000000000000000000000000000000000000000000000000000600052602160045260246000fd5b6003811115612b32577f4e487b7100000000000000000000000000000000000000000000000000000000600052602160045260246000fd5b815260200190815260200160002060009054906101000a900473ffffffffffffffffffffffffffffffffffffffff166133de565b60026000815480929190612b7990615429565b919050555050565b600080600084815260200190815260200160002060000160008373ffffffffffffffffffffffffffffffffffffffff1673ffffffffffffffffffffffffffffffffffffffff16815260200190815260200160002060009054906101000a900460ff16905092915050565b60046020528060005260406000206000915054906101000a900460ff1681565b60016003811115612c45577f4e487b7100000000000000000000000000000000000000000000000000000000600052602160045260246000fd5b60066000600254815260200190815260200160002060009054906101000a900460ff166003811115612ca0577f4e487b7100000000000000000000000000000000000000000000000000000000600052602160045260246000fd5b1415612ce1576040517f08c379a0000000000000000000000000000000000000000000000000000000008152600401612cd8906150d9565b60405180910390fd5b8073ffffffffffffffffffffffffffffffffffffffff166003600060026003811115612d36577f4e487b7100000000000000000000000000000000000000000000000000000000600052602160045260246000fd5b6003811115612d6e577f4e487b7100000000000000000000000000000000000000000000000000000000600052602160045260246000fd5b815260200190815260200160002060009054906101000a900473ffffffffffffffffffffffffffffffffffffffff1673ffffffffffffffffffffffffffffffffffffffff1614612df3576040517f08c379a0000000000000000000000000000000000000000000000000000000008152600401612dea90615019565b60405180910390fd5b6000600160166101000a81548160ff0219169083151502179055506000600460008373ffffffffffffffffffffffffffffffffffffffff1673ffffffffffffffffffffffffffffffffffffffff16815260200190815260200160002060006101000a81548160ff02191690836003811115612e97577f4e487b7100000000000000000000000000000000000000000000000000000000600052602160045260246000fd5b021790555060006003600060026003811115612edc577f4e487b7100000000000000000000000000000000000000000000000000000000600052602160045260246000fd5b6003811115612f14577f4e487b7100000000000000000000000000000000000000000000000000000000600052602160045260246000fd5b815260200190815260200160002060006101000a81548173ffffffffffffffffffffffffffffffffffffffff021916908373ffffffffffffffffffffffffffffffffffffffff160217905550612f6981614201565b50565b6000801b81565b60006005600083815260200190815260200160002060009054906101000a900460ff169050919050565b60006006600083815260200190815260200160002060009054906101000a900460ff169050919050565b6000600254905090565b6001600381111561300b577f4e487b7100000000000000000000000000000000000000000000000000000000600052602160045260246000fd5b600460003373ffffffffffffffffffffffffffffffffffffffff1673ffffffffffffffffffffffffffffffffffffffff16815260200190815260200160002060009054906101000a900460ff166003811115613090577f4e487b7100000000000000000000000000000000000000000000000000000000600052602160045260246000fd5b146130d0576040517f08c379a00000000000000000000000000000000000000000000000000000000081526004016130c790614fb9565b60405180910390fd5b600160159054906101000a900460ff1615613120576040517f08c379a0000000000000000000000000000000000000000000000000000000008152600401613117906150b9565b60405180910390fd5b6000600381111561315a577f4e487b7100000000000000000000000000000000000000000000000000000000600052602160045260246000fd5b600460008373ffffffffffffffffffffffffffffffffffffffff1673ffffffffffffffffffffffffffffffffffffffff16815260200190815260200160002060009054906101000a900460ff1660038111156131df577f4e487b7100000000000000000000000000000000000000000000000000000000600052602160045260246000fd5b1461321f576040517f08c379a000000000000000000000000000000000000000000000000000000000815260040161321690614ff9565b60405180910390fd5b60018060156101000a81548160ff0219169083151502179055508060036000600380811115613277577f4e487b7100000000000000000000000000000000000000000000000000000000600052602160045260246000fd5b60038111156132af577f4e487b7100000000000000000000000000000000000000000000000000000000600052602160045260246000fd5b815260200190815260200160002060006101000a81548173ffffffffffffffffffffffffffffffffffffffff021916908373ffffffffffffffffffffffffffffffffffffffff1602179055506003600460008373ffffffffffffffffffffffffffffffffffffffff1673ffffffffffffffffffffffffffffffffffffffff16815260200190815260200160002060006101000a81548160ff02191690836003811115613384577f4e487b7100000000000000000000000000000000000000000000000000000000600052602160045260246000fd5b021790555061339281613e65565b50565b61339e82611837565b6133af816133aa613ed5565b613edd565b6133b9838361405a565b505050565b60066020528060005260406000206000915054906101000a900460ff1681565b60016003811115613418577f4e487b7100000000000000000000000000000000000000000000000000000000600052602160045260246000fd5b60066000600254815260200190815260200160002060009054906101000a900460ff166003811115613473577f4e487b7100000000000000000000000000000000000000000000000000000000600052602160045260246000fd5b14156134b4576040517f08c379a00000000000000000000000000000000000000000000000000000000081526004016134ab906150d9565b60405180910390fd5b8073ffffffffffffffffffffffffffffffffffffffff1660036000600380811115613508577f4e487b7100000000000000000000000000000000000000000000000000000000600052602160045260246000fd5b6003811115613540577f4e487b7100000000000000000000000000000000000000000000000000000000600052602160045260246000fd5b815260200190815260200160002060009054906101000a900473ffffffffffffffffffffffffffffffffffffffff1673ffffffffffffffffffffffffffffffffffffffff16146135c5576040517f08c379a00000000000000000000000000000000000000000000000000000000081526004016135bc90615099565b60405180910390fd5b6000600160156101000a81548160ff0219169083151502179055506000600460008373ffffffffffffffffffffffffffffffffffffffff1673ffffffffffffffffffffffffffffffffffffffff16815260200190815260200160002060006101000a81548160ff02191690836003811115613669577f4e487b7100000000000000000000000000000000000000000000000000000000600052602160045260246000fd5b02179055506000600360006003808111156136ad577f4e487b7100000000000000000000000000000000000000000000000000000000600052602160045260246000fd5b60038111156136e5577f4e487b7100000000000000000000000000000000000000000000000000000000600052602160045260246000fd5b815260200190815260200160002060006101000a81548173ffffffffffffffffffffffffffffffffffffffff021916908373ffffffffffffffffffffffffffffffffffffffff16021790555061373a81614271565b50565b600380811115613776577f4e487b7100000000000000000000000000000000000000000000000000000000600052602160045260246000fd5b600460003373ffffffffffffffffffffffffffffffffffffffff1673ffffffffffffffffffffffffffffffffffffffff16815260200190815260200160002060009054906101000a900460ff1660038111156137fb577f4e487b7100000000000000000000000000000000000000000000000000000000600052602160045260246000fd5b1461383b576040517f08c379a000000000000000000000000000000000000000000000000000000000815260040161383290614fb9565b60405180910390fd5b60026003811115613875577f4e487b7100000000000000000000000000000000000000000000000000000000600052602160045260246000fd5b60066000600254815260200190815260200160002060009054906101000a900460ff1660038111156138d0577f4e487b7100000000000000000000000000000000000000000000000000000000600052602160045260246000fd5b14613910576040517f08c379a000000000000000000000000000000000000000000000000000000000815260040161390790615119565b60405180910390fd5b600360066000600254815260200190815260200160002060006101000a81548160ff0219169083600381111561396f577f4e487b7100000000000000000000000000000000000000000000000000000000600052602160045260246000fd5b0217905550565b61397e613ed5565b73ffffffffffffffffffffffffffffffffffffffff1661399c61237d565b73ffffffffffffffffffffffffffffffffffffffff16146139f2576040517f08c379a00000000000000000000000000000000000000000000000000000000081526004016139e9906150f9565b60405180910390fd5b600073ffffffffffffffffffffffffffffffffffffffff168173ffffffffffffffffffffffffffffffffffffffff161415613a62576040517f08c379a0000000000000000000000000000000000000000000000000000000008152600401613a5990615059565b60405180910390fd5b613a6b8161413b565b50565b600080600760008473ffffffffffffffffffffffffffffffffffffffff1673ffffffffffffffffffffffffffffffffffffffff16815260200190815260200160002060000154600760008573ffffffffffffffffffffffffffffffffffffffff1673ffffffffffffffffffffffffffffffffffffffff1681526020019081526020016000206001015491509150915091565b60007f01ffc9a7000000000000000000000000000000000000000000000000000000007bffffffffffffffffffffffffffffffffffffffffffffffffffffffff1916827bffffffffffffffffffffffffffffffffffffffffffffffffffffffff1916149050919050565b8073ffffffffffffffffffffffffffffffffffffffff166003600060016003811115613bbf577f4e487b7100000000000000000000000000000000000000000000000000000000600052602160045260246000fd5b6003811115613bf7577f4e487b7100000000000000000000000000000000000000000000000000000000600052602160045260246000fd5b815260200190815260200160002060009054906101000a900473ffffffffffffffffffffffffffffffffffffffff1673ffffffffffffffffffffffffffffffffffffffff1614613c7c576040517f08c379a0000000000000000000000000000000000000000000000000000000008152600401613c7390615039565b60405180910390fd5b6000600160146101000a81548160ff0219169083151502179055506000600460008373ffffffffffffffffffffffffffffffffffffffff1673ffffffffffffffffffffffffffffffffffffffff16815260200190815260200160002060006101000a81548160ff02191690836003811115613d20577f4e487b7100000000000000000000000000000000000000000000000000000000600052602160045260246000fd5b021790555060006003600060016003811115613d65577f4e487b7100000000000000000000000000000000000000000000000000000000600052602160045260246000fd5b6003811115613d9d577f4e487b7100000000000000000000000000000000000000000000000000000000600052602160045260246000fd5b815260200190815260200160002060006101000a81548173ffffffffffffffffffffffffffffffffffffffff021916908373ffffffffffffffffffffffffffffffffffffffff160217905550613df2816142e1565b50565b613e1f7feb998ffefd22a823ed46d63e27357a1eefa908b6ba6804ac328694f77956b46982613f7a565b8073ffffffffffffffffffffffffffffffffffffffff167f387a6db0f68b316b57f3260da99c5aeffd87c39beb8948ce8303d61e541869a060405160405180910390a250565b613e8f7fc9f41f19cd323609a8840e20c19f0688fff7f2c7796dc69350af80f75835f81582613f7a565b8073ffffffffffffffffffffffffffffffffffffffff167f98980d7f599134323351c537f72e6e91717e3b79333a908281c16eba585a455760405160405180910390a250565b600033905090565b613ee78282612b81565b613f7657613f0c8173ffffffffffffffffffffffffffffffffffffffff166014614351565b613f1a8360001c6020614351565b604051602001613f2b929190614ebb565b6040516020818303038152906040526040517f08c379a0000000000000000000000000000000000000000000000000000000008152600401613f6d9190614f97565b60405180910390fd5b5050565b613f848282612b81565b61405657600160008084815260200190815260200160002060000160008373ffffffffffffffffffffffffffffffffffffffff1673ffffffffffffffffffffffffffffffffffffffff16815260200190815260200160002060006101000a81548160ff021916908315150217905550613ffb613ed5565b73ffffffffffffffffffffffffffffffffffffffff168173ffffffffffffffffffffffffffffffffffffffff16837f2f8788117e7eff1d82e926ec794901d17c78024a50270940304540a733656f0d60405160405180910390a45b5050565b6140648282612b81565b1561413757600080600084815260200190815260200160002060000160008373ffffffffffffffffffffffffffffffffffffffff1673ffffffffffffffffffffffffffffffffffffffff16815260200190815260200160002060006101000a81548160ff0219169083151502179055506140dc613ed5565b73ffffffffffffffffffffffffffffffffffffffff168173ffffffffffffffffffffffffffffffffffffffff16837ff6391f5c32d9c69d2a47ea670b442974b53935d1edc7fd64eb21e047a839171b60405160405180910390a45b5050565b6000600160009054906101000a900473ffffffffffffffffffffffffffffffffffffffff16905081600160006101000a81548173ffffffffffffffffffffffffffffffffffffffff021916908373ffffffffffffffffffffffffffffffffffffffff1602179055508173ffffffffffffffffffffffffffffffffffffffff168173ffffffffffffffffffffffffffffffffffffffff167f8be0079c531659141344cd1fd0a4f28419497f9722a3daafe3b4186f6b6457e060405160405180910390a35050565b61422b7feb998ffefd22a823ed46d63e27357a1eefa908b6ba6804ac328694f77956b4698261405a565b8073ffffffffffffffffffffffffffffffffffffffff167f78f1966a437b216b79694eba11d816b9d0e19de3271c193a3644850e9d6b3a8460405160405180910390a250565b61429b7f5ddb3e3497f8f7f164aebc4d7f54dcf016e8cbf4b02588ee047dd5605a414dcb8261405a565b8073ffffffffffffffffffffffffffffffffffffffff167f0301d300f7ffcdac7be324e8f0935a454bd86464697c0c9eea742da99310867460405160405180910390a250565b61430b7fc9f41f19cd323609a8840e20c19f0688fff7f2c7796dc69350af80f75835f8158261405a565b8073ffffffffffffffffffffffffffffffffffffffff167f97777ba2e5fcee6d754cfc5ef55c7906082b5f8304c0612b37538176814d8b6260405160405180910390a250565b6060600060028360026143649190615285565b61436e919061522f565b67ffffffffffffffff8111156143ad577f4e487b7100000000000000000000000000000000000000000000000000000000600052604160045260246000fd5b6040519080825280601f01601f1916602001820160405280156143df5781602001600182028036833780820191505090505b5090507f30000000000000000000000000000000000000000000000000000000000000008160008151811061443d577f4e487b7100000000000000000000000000000000000000000000000000000000600052603260045260246000fd5b60200101907effffffffffffffffffffffffffffffffffffffffffffffffffffffffffffff1916908160001a9053507f7800000000000000000000000000000000000000000000000000000000000000816001815181106144c7577f4e487b7100000000000000000000000000000000000000000000000000000000600052603260045260246000fd5b60200101907effffffffffffffffffffffffffffffffffffffffffffffffffffffffffffff1916908160001a905350600060018460026145079190615285565b614511919061522f565b90505b60018111156145fd577f3031323334353637383961626364656600000000000000000000000000000000600f861660108110614579577f4e487b7100000000000000000000000000000000000000000000000000000000600052603260045260246000fd5b1a60f81b8282815181106145b6577f4e487b7100000000000000000000000000000000000000000000000000000000600052603260045260246000fd5b60200101907effffffffffffffffffffffffffffffffffffffffffffffffffffffffffffff1916908160001a905350600485901c9450806145f6906153ff565b9050614514565b5060008414614641576040517f08c379a000000000000000000000000000000000000000000000000000000000815260040161463890614fd9565b60405180910390fd5b8091505092915050565b60008135905061465a8161551d565b92915050565b60008135905061466f81615534565b92915050565b6000813590506146848161554b565b92915050565b60008135905061469981615562565b92915050565b6000813590506146ae81615572565b92915050565b6000602082840312156146c657600080fd5b60006146d48482850161464b565b91505092915050565b6000602082840312156146ef57600080fd5b60006146fd84828501614660565b91505092915050565b6000806040838503121561471957600080fd5b600061472785828601614660565b92505060206147388582860161464b565b9150509250929050565b60006020828403121561475457600080fd5b600061476284828501614675565b91505092915050565b60006020828403121561477d57600080fd5b600061478b8482850161468a565b91505092915050565b6000602082840312156147a657600080fd5b60006147b48482850161469f565b91505092915050565b6147c6816152df565b82525050565b6147d5816152f1565b82525050565b6147e4816152fd565b82525050565b6147f381615396565b82525050565b614802816153a8565b82525050565b614811816153ba565b82525050565b6000614822826151fd565b61482c8185615213565b935061483c8185602086016153cc565b614845816154d0565b840191505092915050565b600061485b826151fd565b6148658185615224565b93506148758185602086016153cc565b80840191505092915050565b600061488e602d83615213565b91507f4e6f207469656e6573207065726d69736f732070617261207265616c697a617260008301527f206573746120616363696f6e2e000000000000000000000000000000000000006020830152604082019050919050565b60006148f4602083615213565b91507f537472696e67733a20686578206c656e67746820696e73756666696369656e746000830152602082019050919050565b6000614934602583615213565b91507f45737461206375656e7461207961206573746120617369676e6164612061207560008301527f6e20726f6c0000000000000000000000000000000000000000000000000000006020830152604082019050919050565b600061499a602683615213565b91507f45737461206375656e7461206e6f207469656e6520726f6c207472616e73706f60008301527f72746973746100000000000000000000000000000000000000000000000000006020830152604082019050919050565b6000614a00602783615213565b91507f45737461206375656e7461206e6f207469656e6520726f6c206465206c61626f60008301527f7261746f72696f000000000000000000000000000000000000000000000000006020830152604082019050919050565b6000614a66602683615213565b91507f4f776e61626c653a206e6577206f776e657220697320746865207a65726f206160008301527f64647265737300000000000000000000000000000000000000000000000000006020830152604082019050919050565b6000614acc601d83615213565b91507f59612068617920756e206c61626f7261746f72696f2063726561646f2e0000006000830152602082019050919050565b6000614b0c602283615213565b91507f45737461206375656e7461206e6f207469656e6520726f6c2064652063656e7460008301527f726f0000000000000000000000000000000000000000000000000000000000006020830152604082019050919050565b6000614b72603583615213565b91507f59612068617920756e20726573706f6e7361626c652064656c2063656e74726f60008301527f20646520766163756e6163696f6e2063726561646f00000000000000000000006020830152604082019050919050565b6000614bd8601983615213565b91507f456c206c6f7465206573746120656e207472616e7369746f2e000000000000006000830152602082019050919050565b6000614c18602083615213565b91507f4f776e61626c653a2063616c6c6572206973206e6f7420746865206f776e65726000830152602082019050919050565b6000614c58601283615213565b91507f48612068616269646f20756e206572726f7200000000000000000000000000006000830152602082019050919050565b6000614c98600083615208565b9150600082019050919050565b6000614cb2601083615213565b91507f5472616e73666572206661696c65642e000000000000000000000000000000006000830152602082019050919050565b6000614cf2601783615224565b91507f416363657373436f6e74726f6c3a206163636f756e74200000000000000000006000830152601782019050919050565b6000614d32602f83615213565b91507f59612068617920756e207472616e73706f7274697374612063726561646f2c2060008301527f656c696d696e616c6f20616e74657300000000000000000000000000000000006020830152604082019050919050565b6000614d98602383615213565b91507f4e6f206861732070616761646f206c612063616e74696461642061636f72646160008301527f64612e00000000000000000000000000000000000000000000000000000000006020830152604082019050919050565b6000614dfe601183615224565b91507f206973206d697373696e6720726f6c65200000000000000000000000000000006000830152601182019050919050565b6000614e3e602f83615213565b91507f416363657373436f6e74726f6c3a2063616e206f6e6c792072656e6f756e636560008301527f20726f6c657320666f722073656c6600000000000000000000000000000000006020830152604082019050919050565b614ea08161538c565b82525050565b6000614eb182614c8b565b9150819050919050565b6000614ec682614ce5565b9150614ed28285614850565b9150614edd82614df1565b9150614ee98284614850565b91508190509392505050565b6000602082019050614f0a60008301846147bd565b92915050565b6000602082019050614f2560008301846147cc565b92915050565b6000602082019050614f4060008301846147db565b92915050565b6000602082019050614f5b60008301846147ea565b92915050565b6000602082019050614f7660008301846147f9565b92915050565b6000602082019050614f916000830184614808565b92915050565b60006020820190508181036000830152614fb18184614817565b905092915050565b60006020820190508181036000830152614fd281614881565b9050919050565b60006020820190508181036000830152614ff2816148e7565b9050919050565b6000602082019050818103600083015261501281614927565b9050919050565b600060208201905081810360008301526150328161498d565b9050919050565b60006020820190508181036000830152615052816149f3565b9050919050565b6000602082019050818103600083015261507281614a59565b9050919050565b6000602082019050818103600083015261509281614abf565b9050919050565b600060208201905081810360008301526150b281614aff565b9050919050565b600060208201905081810360008301526150d281614b65565b9050919050565b600060208201905081810360008301526150f281614bcb565b9050919050565b6000602082019050818103600083015261511281614c0b565b9050919050565b6000602082019050818103600083015261513281614c4b565b9050919050565b6000602082019050818103600083015261515281614ca5565b9050919050565b6000602082019050818103600083015261517281614d25565b9050919050565b6000602082019050818103600083015261519281614d8b565b9050919050565b600060208201905081810360008301526151b281614e31565b9050919050565b60006020820190506151ce6000830184614e97565b92915050565b60006040820190506151e96000830185614e97565b6151f66020830184614e97565b9392505050565b600081519050919050565b600081905092915050565b600082825260208201905092915050565b600081905092915050565b600061523a8261538c565b91506152458361538c565b9250827fffffffffffffffffffffffffffffffffffffffffffffffffffffffffffffffff0382111561527a57615279615472565b5b828201905092915050565b60006152908261538c565b915061529b8361538c565b9250817fffffffffffffffffffffffffffffffffffffffffffffffffffffffffffffffff04831182151516156152d4576152d3615472565b5b828202905092915050565b60006152ea8261536c565b9050919050565b60008115159050919050565b6000819050919050565b60007fffffffff0000000000000000000000000000000000000000000000000000000082169050919050565b6000819050615341826154e1565b919050565b6000819050615354826154f5565b919050565b600081905061536782615509565b919050565b600073ffffffffffffffffffffffffffffffffffffffff82169050919050565b6000819050919050565b60006153a182615333565b9050919050565b60006153b382615346565b9050919050565b60006153c582615359565b9050919050565b60005b838110156153ea5780820151818401526020810190506153cf565b838111156153f9576000848401525b50505050565b600061540a8261538c565b9150600082141561541e5761541d615472565b5b600182039050919050565b60006154348261538c565b91507fffffffffffffffffffffffffffffffffffffffffffffffffffffffffffffffff82141561546757615466615472565b5b600182019050919050565b7f4e487b7100000000000000000000000000000000000000000000000000000000600052601160045260246000fd5b7f4e487b7100000000000000000000000000000000000000000000000000000000600052602160045260246000fd5b6000601f19601f8301169050919050565b600481106154f2576154f16154a1565b5b50565b60048110615506576155056154a1565b5b50565b6004811061551a576155196154a1565b5b50565b615526816152df565b811461553157600080fd5b50565b61553d816152fd565b811461554857600080fd5b50565b61555481615307565b811461555f57600080fd5b50565b6004811061556f57600080fd5b50565b61557b8161538c565b811461558657600080fd5b5056fea2646970667358221220928dcc0b932f307cfb3f1b8185505334e6e6eedc3b378c0525a1b353e3c25a9164736f6c63430008000033",
  "immutableReferences": {},
  "source": "// SPDX-License-Identifier: GPL-3.0\npragma solidity >=0.6.0 <0.9.0;\n\nimport './roles/LaboratoryRole.sol';\nimport './roles/CarrierRole.sol';\nimport './roles/VaccineCenterRole.sol';\n/**\n * @title Vacine Network Model\n */\ncontract VaccineNetwork is LaboratoryRole, CarrierRole, VaccineCenterRole {\n\n    //Flags para saber si un rol esta creado\n    bool laboratory = false;\n    bool center = false;\n    bool carrier = false;\n\n    //Id de lote de vacunas\n    uint public vaccine_id = 0;\n\n    //Posibles valores del rol del usuario \n    enum Rol {None, Laboratory, Carrier, VaccineCenter}\n\n    //Posibles estados del lote de vacunas\n    enum State {None, Transit, Ok, Ko}\n\n    //Posibles lugares del lote de vacunas\n    enum Place {None, Laboratory, Carrier, VaccineCenter}\n\n    //Estructura de datos de los puntos de los transportistas\n    struct CarrierPoints {\n        uint points;\n        uint travels;\n    }\n\n    //Asociacin de roles a cuentas\n    mapping(Rol => address) public users;\n    //Asociacin de cuentas a roles\n    mapping(address => Rol) public roles;\n\n    //Asociacin de estados a lote de vacunas\n    mapping(uint => State) public states;\n    //Asociacin de lugares a lote de vacunas\n    mapping(uint => Place) public places;\n\n    //Asociacin de cuentas de transportista a sus puntos por viajes realizados correctaente\n    mapping(address => CarrierPoints) public carriers;\n\n    //Asignar a la cuenta ejecutora el rol de Laboratorio tras pagar 1e15 Wei.\n    function addLaboratory() public payable returns (bool){\n        require(msg.value == 1e15, \"No has pagado la cantidad acordada.\");\n        require(!laboratory, \"Ya hay un laboratorio creado.\");\n        require(roles[msg.sender] == Rol.None, \"Esta cuenta ya esta asignada a un rol\");\n        require(states[vaccine_id] == State.None, \"Ha habido un error\");\n        require(places[vaccine_id] == Place.None, \"Ha habido un error\");\n\n        laboratory = true;\n        _addLaboratory(msg.sender);\n\n        users[Rol.Laboratory] = msg.sender;\n        roles[msg.sender] = Rol.Laboratory;\n        states[vaccine_id] = State.Transit;\n        places[vaccine_id] = Place.Laboratory;\n\n        return true;\n    }\n\n    //Desasigna el rol de laboratorio   \n    function removeLaboratory(address account) private {\n        require(users[Rol.Laboratory] == account, \"Esta cuenta no tiene rol de laboratorio\");\n\n        laboratory = false;\n\n        roles[account] = Rol.None;\n        users[Rol.Laboratory] = 0x0000000000000000000000000000000000000000;\n        \n        _removeLaboratory(account);\n    }\n\n    //Asigna el rol de transportista a la cuenta pasada como parametro. Solo puede hacerlo el rol de laboratorio\n    function addCarrier(address account) public {\n        require(roles[msg.sender] == Rol.Laboratory, \"No tienes permisos para realizar esta accion.\");\n        require(!carrier, \"Ya hay un transportista creado, eliminalo antes\");\n        require(roles[account] == Rol.None, \"Esta cuenta ya esta asignada a un rol\");\n\n        carrier = true;\n\n        users[Rol.Carrier] = account;\n        roles[account] = Rol.Carrier;\n\n        _addCarrier(account);\n    }\n\n    /*\n    * Elimina el rol de transportista de la cuenta pasada como parametro. \n    * Solo puede borrarse si el lote sigue en el laboratorio o el producto ha completado la cadena. \n    */    \n    function removeCarrier(address account) public {\n        require(places[vaccine_id] != Place.Laboratory, \"El lote esta en transito.\");\n        require(users[Rol.Carrier] == account, \"Esta cuenta no tiene rol transportista\");\n\n        carrier = false;\n\n        roles[account] = Rol.None;\n        users[Rol.Carrier] = 0x0000000000000000000000000000000000000000;\n\n        _removeCarrier(account);\n    }\n\n    //Asigna el rol de responsable del centro de vacunacin a la cuenta pasada como parametro. Solo puede hacerlo el rol de laboratorio\n    function addVaccineCenter(address account) public {\n        require(roles[msg.sender] == Rol.Laboratory, \"No tienes permisos para realizar esta accion.\");\n        require(!center, \"Ya hay un responsable del centro de vacunacion creado\");\n        require(roles[account] == Rol.None, \"Esta cuenta ya esta asignada a un rol\");\n\n        center = true;\n\n        users[Rol.VaccineCenter] = account;\n        roles[account] = Rol.VaccineCenter;\n\n        _addLaboratory(account);\n    }\n\n    /*\n    * Elimina el rol de responsable de centro de vacunacin de la cuenta pasada como parametro. \n    * Solo puede hacerlo si el lote sigue en el laboratorio. o el producto ha completado la cadena.\n    */\n    function removeVaccineCenter(address account) public {\n        require(places[vaccine_id] != Place.Laboratory, \"El lote esta en transito.\");\n        require(users[Rol.VaccineCenter] == account, \"Esta cuenta no tiene rol de centro\");\n        center = false;\n\n        roles[account] = Rol.None;\n        users[Rol.VaccineCenter] = 0x0000000000000000000000000000000000000000;\n\n        _removeVaccineCenter(account);\n    }\n\n    /*\n    * El transportista actualiza el el lugar en el que se encuentra el lote de vacunas.\n    */\n    function setCarrierPlace () public {\n        require(roles[msg.sender] == Rol.Carrier, \"No tienes permisos para realizar esta accion.\");\n        require(places[vaccine_id] == Place.Laboratory, \"Ha habido un error\");\n\n        places[vaccine_id] = Place.Carrier;\n    }\n\n    /*\n    * El responsable del centro de vacunacin actualiza el lugar en el que se encuentra el lote de vacunas.\n    */\n    function setVaccineCenterPlace () public {\n        require(roles[msg.sender] == Rol.VaccineCenter, \"No tienes permisos para realizar esta accion.\");\n        require(places[vaccine_id] == Place.Carrier, \"Ha habido un error\");\n\n        places[vaccine_id] = Place.VaccineCenter;\n    }\n\n    /*\n    * El responsable del centro de vacunacin actualiza el estado del lote de vacunas a ok.\n    * Se compensa de forma remunerada al transportista por sus servicios y se le puntua positivamente.\n    * Se elimina la red asociada al lote de vacunas ya confirmado.\n    */\n    function setVaccineOk () public {\n        require(roles[msg.sender] == Rol.VaccineCenter, \"No tienes permisos para realizar esta accion.\");\n        require(states[vaccine_id] == State.Transit, \"Ha habido un error\");\n\n        states[vaccine_id] = State.Ok;\n\n        (bool success, ) =  users[Rol.Carrier].call{value: 3e14}(\"\");\n        require(success, \"Transfer failed.\");  \n\n        carriers[users[Rol.Carrier]].points++;\n        carriers[users[Rol.Carrier]].travels++;\n\n        removeLaboratory(users[Rol.Laboratory]);\n        removeCarrier(users[Rol.Carrier]);\n        removeVaccineCenter(users[Rol.VaccineCenter]);\n\n        vaccine_id++;\n    }\n\n    /*\n    * El responsable del centro de vacunacin o el transportista actualiza el estado del lote de vacunas a ko por que ha detectado la rotura de la cadena de fro.\n    * Se compensa de forma remunerada al transportista por sus servicios y se le puntua positivamente solo si el fallo ha ocurrido en el centro de vacunacin.\n    * Se elimina la red asociada al lote de vacunas.\n    */\n    function setVaccineKo () public {\n        require(roles[msg.sender] == Rol.Carrier || roles[msg.sender] == Rol.VaccineCenter, \"No tienes permisos para realizar esta accion.\");\n        require(states[vaccine_id] == State.Transit, \"Ha habido un error\");\n        require(places[vaccine_id] != Place.Laboratory, \"Ha habido un error\");\n\n        states[vaccine_id] = State.Ko;\n\n        (bool success, ) =  users[Rol.Carrier].call{value: 3e14}(\"\");\n        require(success, \"Transfer failed.\"); \n\n        removeLaboratory(users[Rol.Laboratory]);\n        removeCarrier(users[Rol.Carrier]);\n        removeVaccineCenter(users[Rol.VaccineCenter]);\n\n        if (places[vaccine_id] == Place.Carrier) {\n            carriers[users[Rol.Carrier]].travels++;\n        } else {\n            carriers[users[Rol.Carrier]].points++;\n            carriers[users[Rol.Carrier]].travels++;\n        }\n\n        vaccine_id++;\n    }\n\n    /* -------------------------------------------------------------------------- */\n    /*                                Getters                                     */\n    /* -------------------------------------------------------------------------- */\n\n    function getAccountRole (address _address) public view returns (Rol) {\n        return roles[_address];\n    }\n\n    function getRoleAccount (Rol _rol) public view returns (address) {\n        return users[_rol];\n    }\n\n    function getVacccineState (uint id) public view returns (State) {\n        return states[id];\n    }\n\n    function getVacccinePlace (uint id) public view returns (Place) {\n        return places[id];\n    }\n\n    function getCarrierPoints(address _address) public view returns (uint, uint) {\n        return (carriers[_address].points, carriers[_address].travels);\n    }\n\n    function getVaccineId() public view returns (uint) {\n        return vaccine_id;\n    }\n}\n",
  "sourcePath": "/Users/tfm/Desktop/Drizzle-tuto-master/contracts/vaccineNetwork.sol",
  "compiler": {
    "name": "solc",
    "version": "0.8.0+commit.c7dfd78e.Emscripten.clang"
  },
  "schemaVersion": "3.4.7",
  "updatedAt": "2022-04-25T21:02:54.823Z",
  "networkType": "ethereum",
  "devdoc": {
    "kind": "dev",
    "methods": {
      "getRoleAdmin(bytes32)": {
        "details": "Returns the admin role that controls `role`. See {grantRole} and {revokeRole}. To change a role's admin, use {_setRoleAdmin}."
      },
      "grantRole(bytes32,address)": {
        "details": "Grants `role` to `account`. If `account` had not been already granted `role`, emits a {RoleGranted} event. Requirements: - the caller must have ``role``'s admin role."
      },
      "hasRole(bytes32,address)": {
        "details": "Returns `true` if `account` has been granted `role`."
      },
      "owner()": {
        "details": "Returns the address of the current owner."
      },
      "renounceOwnership()": {
        "details": "Leaves the contract without owner. It will not be possible to call `onlyOwner` functions anymore. Can only be called by the current owner. NOTE: Renouncing ownership will leave the contract without an owner, thereby removing any functionality that is only available to the owner."
      },
      "renounceRole(bytes32,address)": {
        "details": "Revokes `role` from the calling account. Roles are often managed via {grantRole} and {revokeRole}: this function's purpose is to provide a mechanism for accounts to lose their privileges if they are compromised (such as when a trusted device is misplaced). If the calling account had been revoked `role`, emits a {RoleRevoked} event. Requirements: - the caller must be `account`."
      },
      "revokeRole(bytes32,address)": {
        "details": "Revokes `role` from `account`. If `account` had been granted `role`, emits a {RoleRevoked} event. Requirements: - the caller must have ``role``'s admin role."
      },
      "supportsInterface(bytes4)": {
        "details": "See {IERC165-supportsInterface}."
      },
      "transferOwnership(address)": {
        "details": "Transfers ownership of the contract to a new account (`newOwner`). Can only be called by the current owner."
      }
    },
    "title": "Vacine Network Model",
    "version": 1
  },
  "userdoc": {
    "kind": "user",
    "methods": {},
    "version": 1
  }
}